:020000040000FA
:06000000020107022A3D87
:03002B00022E356D
:03003300022E6139
:03005300022AB3CB
:10008300022893E5C754F84401F5C779012200001B
:100093000080FB120086B900030200F1E4792178A5
:1000A3000FB800028004F709D8FCE479307802B86D
:1000B30000028004F709D8FCE4900281784D791896
:1000C3008002F0A3D8FCD9FA7ACD7B199001377856
:1000D3006779028015E493A3AD82AE838A828B8312
:1000E300F0A3AA82AB838D828E83D8E9D9E7758288
:1000F300857583F9740412011975829175830074EF
:100103000012011975D00075813F751881751902A8
:10011300759F00020096C09FF59FE473D09F22D085
:1001230083D082C09FE493C0E0740193C0E0740263
:1001330093F59F228F049B04D104CB04FF0000B4EA
:10014300000028002800283075A000A000A000A00F
:100153000000080008E001F000100010001000107B
:10016300001000100050005000500010001000D08C
:10017300070000000000000F0001000500307507B4
:10018300001000010081FF00000000FFFFFF2D06AB
:100193004B0633068D06FF02020208025000A00040
:1001A3000000E803029C910100008D9102A49101DB
:1001B3000000301A029291010000C80202A49101CA
:1001C3000000311A029091010000DE0202A49101A5
:1001D3000000321A02A691010000E00202A491017C
:1001E3000000331A02A091080000E10202A4910169
:1001F3000000341A029691010000351AFFFF010036
:10020300FF20029C910100008A9102A49101000049
:100213009A1A02DA90000000000002949103000091
:1002230011031700971197119711971197119711B0
:1002330097119711971197119711971197111914F6
:10024300371413145D156F155715544920424C4547
:1002530020416C6C00000000000000000000001151
:1002630000FFFF0000033000310032003300340090
:1002730035003600370038003900300031003200D5
:100283003300340035003600370038003900111CC4
:10029300661C661C661C661C6E1C120122CFD404ED
:1002A300120122E2D4041201223CD5041201225D80
:1002B300D504120122C8D50412012209D604120161
:1002C300222AD6041201224BD6041201229BD60401
:1002D300120122DCD60412012274D704120122BCBB
:1002E300D704120122E7D70412012218CA0412010B
:1002F300222BCA041201225CCA0412012296CA04E8
:10030300120122EFCA0412012236CB041201227E0B
:10031300CB04120122ADCB04120122DCCB04120167
:100323002213CC041201225ACC0412012273CC04EE
:10033300120122C8CC04120122E1CC041201222FA3
:10034300CD0412012269CD041201226FB2031201FE
:100353002272B3031201229FB303120122E4B303F7
:10036300120122F0B30312012213B4031201221566
:10037300B4031201224AB4031201224DB403120141
:10038300228BB403120122C1B40312012258B50314
:10039300120122C4B5031201228CB603120122A852
:1003A300B603120122DFB60312012219B7031201A9
:1003B30022B0B70312012202B80312012233B80399
:1003C30012012236B80312012267B8031201227404
:1003D300B8031201228CB803120122F6B8031201EA
:1003E30022F9B80312012206B90312012209B90343
:1003F30012012260B90312012263B903120122869A
:10040300B90312012299B903120122D2B9031201CD
:1004130022D5B903120122EAB903120122EDB9036D
:100423001201224FBA0312012252BA03120122A669
:10043300BA03120122A9BA031201223CBB0312011F
:10044300224CBB031201227FBB031201228CBB038C
:100453001201228FBB03120122F7BB0312012204F4
:10046300BC0312012206BD03120122AABD0312011D
:100473002213BE0312012251BE031201221FE803FD
:1004830012012217E9031201224BE903120122E1AF
:10049300E9031201222CEA0312012290EA0312015A
:1004A300221AEB03120122D3EB03120122F5EE030E
:1004B30012012272F00312012295F003120122BDF0
:1004C300BD0412012262BF0412012282BF04120181
:1004D30022A3C004120122F6C0041201228696044C
:1004E300120122AE9604120122DB9604120122139A
:1004F3009704120122719704120122CF980412016A
:10050300221B9904120122829904120122C2990426
:10051300120122FF99041201222D9A04120122D7FB
:100523009A04120122E19A04120122EE9A041201A2
:1005330022219B041201222D9B04120122459B04BC
:100543001201224F9B0412012238F70412012246A2
:10055300F7041201225EF70412012276F704120156
:10056300228DF70412012275A8021201221FA9028B
:1005730012012232AA02120122AEAA02120122CCD5
:10058300AB0212012208AC021201229DAC0212013D
:100593002238AD021201221CAE02120122DFAE028A
:1005A30012012257AF02120122E5B00212012256B4
:1005B300B10212012210B20212012202B30212018D
:1005C3002242B302120122F6B30212012228B4021C
:1005D3001201221EB60212012265B6021201228303
:1005E300B602120122E9B602120122B8B7021201C1
:1005F300227CB8021201229BBA02120122A5BA027E
:1006030012012287C90312012271CA031201221C9B
:10061300CB0312012266CB0312012203CC03120186
:10062300221CCC0312012236CC03120122E6CC0396
:1006330012012257CD031201223CCE031201227074
:10064300CE0312012269CF03120122A6CF031201A6
:100653002267D003120122CBD00312012235D1032A
:1006630012012267D103120122CFD10312012259B1
:10067300D30312012298D303120122B4D30312012C
:100683002211ED0412012295ED04120122C0ED04A2
:10069300120122DAEE0412012226C6041201223CC0
:1006A300C6041201225AC6041201226BC7041201A6
:1006B3002275C704120122A0C80412012297C9049B
:1006C30012012204CA041201220ECA04120122DDFD
:1006D3009B041201220D9D04120122449D04120168
:1006E300228E9D04120122519F041201229BDE01DE
:1006F3001201224CDF011201225CDF01120122B838
:10070300DF011201224EE0011201220FE101120169
:100713002244E10112012279E10112012290E10157
:1007230012012209E20112012213E2011201222520
:10073300E20112012259E201120122B6E201120181
:100743002209E3011201225EE30112012269E3019E
:1007530012012274E3011201228FE4011201229299
:10076300E40112012295E40112012298E40112012D
:10077300229BE40112012271E5011201224EE601DE
:10078300120122ABE60112012208E70112012283C2
:10079300E70112012291E80112012248E901120145
:1007A3002256EC0112012245EE01120122F7EE015D
:1007B300120122C0EF0112012205F301120122AF3F
:1007C300F301120122D8F40112012294F60112015D
:1007D3002234F70112012287F701120122C6F70121
:1007E30012012299F801120122CDF8011201225AB5
:1007F300F901120122AFBA021201223BBB0212011C
:10080300229FBC02120122ABBC02120122E6BC02EF
:100813001201225DBD0212012266BE021201222DC7
:10082300BF021201228AC002120122A8C0021201D1
:1008330022C5C00212012272C102120122EFC102BB
:1008430012012217C202120122E1C402120122E69E
:10085300C402120122FFC6021201224DC702120175
:1008630022BDC702120122FBC702120122D7C8020E
:1008730012012297C902120122E3C902120122E6E0
:10088300C9021201222ACA0212012272CA021201E9
:1008930022B1CA02120122D3CA0212012207CB02D9
:1008A3001201226ACB021201225EAB0412012267FB
:1008B300AB0412012275AB04120122C8AB0412016E
:1008C30022E7AB041201222CAC0412012270AD0406
:1008D3001201220BAE041201224FAE04120122793F
:1008E300AE04120122E8AE041201222EAF0412015B
:1008F30022A5AF0412012256B00412012203BF0144
:1009030012012213BF01120122B4BF0112012210EE
:10091300C001120122CDC001120122E9C10112015D
:10092300221BC2011201224AC201120122F7C30192
:100933001201226EC601120122DEC801120122D069
:10094300C901120122C9CA01120122D0CC0112012C
:1009530022C4CF01120122F3D001120122F7D201E6
:1009630012012207D40112012296D5011201228716
:10097300D601120122D5D60112012244D701120158
:100983002268D701120122B9D7011201225ADC01D0
:1009930012012269DD011201222FDE01120122421E
:1009A300CC021201224CCC0212012291CC02120180
:1009B30022A5CC02120122DDCC0212012226CD0295
:1009C30012012267CD02120122AACD02120122D402
:1009D300CD021201225DCE0212012208CF021201C2
:1009E3002237CF0212012270CF02120122ABCF02B3
:1009F300120122E0CF021201220AD0021201223395
:100A0300D00212012281D00212012296D0021201D9
:100A130022ABD002120122C0D002120122E8D0027E
:100A23001201222BD10212012240D102120122AB68
:100A3300D102120122BFD102120122DED102120120
:100A430022F2D10212012207D2021201221CD20287
:100A530012012230D20212012274D202120122CADE
:100A6300D20212012204D30212012228D30212015C
:100A73002254D30212012282D302120122ACD302E6
:100A8300120122C1D302120122D6D302120122067D
:100A9300D40212012250D402120122B2D402120152
:100AA30022EDD40212012218D50212012243D502EB
:100AB300120122AED502120122EBD5021201221637
:100AC300D60212012246D6021201227DD60212015B
:100AD30022A7D602120122DFD60212012209D7026F
:100AE30012012246D70212012270D702120122A05C
:100AF300D702120122CAD702120122F4D70212012D
:100B0300221FD80212012248D80212012299D802C8
:100B1300120122DFD8021201220AD9021201226A2B
:100B2300D90212012295D902120122C5D90212015A
:100B33002208DA0212012232DA0212012257DA0201
:100B4300120122DEDA0212012236FA041201222AEB
:100B5300F404120122378D031201221A8E031201AB
:100B630022958E03120122D08E03120122219003BB
:100B7300120122AA9003120122C2920312012254EB
:100B83009503120122069603120122129703120102
:100B930022859803120122DE98031201228799030A
:100BA30012012220A10412012263A104120122E7EF
:100BB300A104120122BAA20412012291A504120176
:100BC30022FFB404120122ACB504120122E0B504E1
:100BD300120122F6B504120122E9B6041201223BE6
:100BE300B70412012272B704120122B1B704120131
:100BF300220BB80412012238B80412012274B8047B
:100C0300120122C6B80412012207B90412012238C4
:100C1300B904120122F3E80412012256E904120175
:100C230022F3E90412012214EA0412012256EA040F
:100C330012012286EA04120122A7EA04120122E227
:100C4300EA0412012202EB0412012231FB03120116
:100C530022BDFB031201227CFC0312012294FD033B
:100C6300120122AEFF0312012238A6031201225DF4
:100C7300A6031201222AA703120122FEA7031201CF
:100C8300226BA803120122C1A8031201225DA9034A
:100C930012012291AA031201226CAB03120122CB8F
:100CA300AB0312012257AC03120122C5AC0312019C
:100CB3002251AD0312012254AD0312012270AD0380
:100CC30012012273AD0312012295AD0312012234E6
:100CD300AE03120122A6AE0312012238AF031201A2
:100CE30022D9AF03120122F9AF0312012241B0034B
:100CF3001201228AB003120122A6B003120122CCF0
:100D0300B00312012246B10312012254B1031201AE
:100D130022E3B1031201224CB20312012271B9047E
:100D2300120122F6B90412012238BA041201221C5C
:100D3300BB0412012289BB04120122CDBB041201A0
:100D43002211BC041201223EBC0412012266BC041F
:100D53001201229EBC04120122DCBC0412012203F4
:100D6300BD041201227DBD04120122A991011201C9
:100D730022A293011201228E9601120122E2960110
:100D83001201220D9701120122E797011201222677
:100D930098011201226D980112012280980112011B
:100DA30022C1980112012203990112012212990111
:100DB3001201223F99011201228D9901120122C6CB
:100DC3009901120122259A01120122459A01120169
:100DD300227E9A01120122A19A01120122379B015C
:100DE3001201226F9B01120122CC9B011201221FCF
:100DF3009C01120122AE9C01120122849F01120167
:100E030022B1A0011201221EA10112012296A10109
:100E1300120122B1A301120122EFA3011201225FE9
:100E2300A5011201228CA501120122D1A5011201F3
:100E330022C5A601120122A9A8011201220BA901B0
:100E43001201225CA90112012277AE01120122C60E
:100E5300AE011201220CAF01120122DEB001120118
:100E630022D9B1011201227AB301120122B0B301D6
:100E7300120122B2B301120122B4B301120122B949
:100E8300B301120122BBB30112012266B4011201A4
:100E93002240B50112012268B50112012293B50166
:100EA300120122BEB501120122F3B501120122186B
:100EB300B60112012237B60112012264B6011201F2
:100EC30022DAB60112012259B701120122A1B70198
:100ED300120122C3B701120122E1B801120122A5B6
:100EE300B901120122D6B90112012235BA01120148
:100EF300225ABA0112012246BB0112012263BB012D
:100F03001201220ABC011201229ABC01120122CF52
:100F1300BC0112012216BD011201224FBD011201B3
:100F23002271BD011201229EBD01120122CEBE011A
:100F3300120122E0BE01120122A3DE0412012215D6
:100F4300DF041201226BDF04120122AFDF0412015E
:100F530022CFDF041201221CE00412012264E00408
:100F6300120122B7E00412012208E1041201226DEA
:100F7300DE03120122ECDE03120122E5E403120177
:100F830022EBE5031201225EE703120122F5E703D8
:100F9300120122E561001201222E62001201225B7E
:100FA30062001201228D6200120122996200120175
:100FB30022A56200120122BC620012012297630083
:100FC300120122F563001201222A64001201225E3B
:100FD30064001201228F6500120122DC65001201F8
:100FE300222266001201228E66001201223267005D
:100FF300120122E86700120122476800120122B899
:101003006800120122166900120122486A001201C7
:1010130022B06B001201227A6C00120122876C004D
:10102300120122C96C00120122D96C00120122FDA7
:101033006C00120122006D00120122EC6D001201FE
:1010430022886E00120122216F00120122B86F0064
:10105300120122E56F001201224370001201228A5D
:101063007000120122DA70001201222A71001201AB
:10107300229C7100120122457200120122F07200BB
:101083001201228F73001201220D740012012254E7
:101093007400120122B87400120122E774001201D5
:1010A30022757500120122C67500120122D3770042
:1010B300120122177800120122627800120122E83D
:1010C30078001201227279001201228B7A00120138
:1010D30022117B00120122367B001201228D7B003C
:1010E300120122A27B00120122EA7B001201225D7F
:1010F3007C00120122A27C00120122AB7D001201AE
:10110300225C7E00120122BA7E00120122167F00A9
:101113001201222F7F00120122B8F1031201220CC7
:10112300F20312012218F203120122E2F203120166
:10113300220FF3031201223DF303120122A9F30349
:10114300120122DFF3031201220FF40312012248DA
:10115300F40312012260F403120122B5F403120115
:1011630022CEF40312012213F50312012226F50302
:1011730012012240F50312012256F50312012274D3
:10118300F6031201229FF70312012289F8031201C9
:101193002278F903120122F77F0012012243A604E9
:1011A300120122C6A90412012213AB04120122BFA9
:1011B30099031201228F9C03120122959C031201B1
:1011C30022259F0312012288A10312012268B00481
:1011D300120122FFB004120122BDB104120122E761
:1011E300B104120122C1B304120122C6B4041201D4
:1011F300220080021201223280021201224F8C024D
:10120300120122A08D02120122A98E0212012228AC
:101213009002120122019102120122509102120145
:10122300226A9102120122AC9102120122B79102A9
:10123300120122009202120122099202120122B526
:1012430092021201228E9302120122D593021201FD
:10125300223D94021201227F9402120122AD9402D4
:10126300120122E894021201221C96021201229F0B
:101273009902120122A59902120122FA9F02120178
:101283002244A4021201222AA8021201226AD104D2
:10129300120122E0D104120122F6D10412012286A6
:1012A300D204120122C3D204120122FDD20412017C
:1012B3002237D304120122AAD304120122EBD3044E
:1012C300120122F4D30412012200D4041201221FBA
:1012D300D40412012249D4041201225ED40412015F
:1012E30022A1D404120122008004120122138004DB
:1012F3001201222D80041201225A8004120122A01D
:101303008004120122D380041201221181041201EC
:10131300227681041201228B810412012296810418
:10132300120122A38104120122BA8104120122C8EC
:101333008104120122D78104120122EC81041201DB
:10134300220182041201220C820412012218820457
:10135300120122258204120122388204120122433F
:1013630082041201226882041201226D8204120196
:10137300220483041201226C83041201227C83045D
:10138300120122918304120122A68304120122C0B6
:101393008304120122DD8304120122FA8304120161
:1013A30022058404120122B18404120122928504CD
:1013B300120122AE8504120122C58504120122D036
:1013C3008504120122E58504120122F98504120124
:1013D300225A8604120122608604120122668604C0
:1013E3001201226C8604120122808604120122A7B4
:1013F3008604120122E28604120122FB86041201F2
:10140300223D870412012270870412012215D4039E
:1014130012012237D403120122FFD403120122B98D
:10142300D703120122CFD803120122F0D9031201EC
:1014330022CADA0312012279DB03120122A2E90292
:1014430012012239EA02120122D1EA02120122C157
:10145300EB02120122F8EB021201220BEC02120141
:101463002279EC0212012214EE021201223BEE0257
:10147300120122DDEE0212012212EF0212012223D7
:10148300EF021201229CEF02120122BDEF021201B0
:1014930022D5EF021201222DF10212012236F302AC
:1014A30012012286F50212012289F602120122D8C4
:1014B300F60212012206DB0212012203DC021201F0
:1014C30022EEDC02120122F8DC0212012202DD020A
:1014D30012012224DD0212012230DD0212012282D6
:1014E300DE02120122B1DE02120122E1DF02120149
:1014F3002223E0021201224FE10212012225E2021D
:1015030012012277E202120122D6E2021201220D17
:10151300E30212012248E302120122E3E60212016E
:1015230022FCE6021201227EE7021201228CE7026C
:10153300120122E1E702120122EFE7021201225C0B
:10154300E802120122CEE80212012214E90212017A
:101553002277BE0312012299BE0312012283C00324
:1015630012012228C4031201226BC5031201224572
:10157300C603120122D6F004120122FBF004120169
:10158300226CF10412012225F7021201222EF70226
:1015930012012237F70212012268F8021201228790
:1015A300FA02120122BDFA02120122F7FA02120113
:1015B300222DFB0212012267FB021201229BFB0276
:1015C300120122C7FB0212012210FC021201224A5D
:1015D300FC0212012292FC02120122E8FC02120117
:1015E300221DFD0212012278FD02120122B2FD0228
:1015F30012012203FE0212012239FE02120122739A
:10160300FE02120122A1FE02120122C4FE021201F5
:101613002200800312012233800312012276800309
:101623001201228180031201228C8003120122976E
:101633008003120122A280031201220C84031201EF
:1016430022EB8403120122648503120122DB85034A
:10165300120122E88503120122F58503120122FFFC
:101663008503120122098603120122138603120144
:10167300222086031201223086031201227686037A
:101683001201229A8603120122A78603120122B7AE
:101693008603120122C18603120122CB86031201A3
:1016A30022D58603120122E28603120122EC86036D
:1016B300120122F686031201220087031201220A75
:1016C30087031201225287031201226F870312013B
:1016D300228C87031201229C8703120122A687030F
:1016E3001201220188031201220E8803120122D063
:1016F3008803120122DA8803120122E4880312010B
:1017030022EE88031201220B890312012228890386
:101713001201229F8903120122A98903120122B611
:101723008903120122C38903120122E489031201EE
:1017330022ED8903120122328A03120122408A0315
:10174300120122628A031201226B8A031201227A96
:101753008A03120122928A031201229B8A03120135
:1017630022298B03120122418B03120122518B0385
:10177300120122618B031201226B8B031201227B64
:101783008B031201228B8B03120122AA8B031201FA
:1017930022B78B03120122C48B03120122D48B03C1
:1017A300120122E18B03120122FE8B031201220E8E
:1017B3008C031201221E8C031201222E8C031201B0
:1017C300225F8C03120122698C03120122798C039C
:1017D300120122898C03120122968C03120122BB6F
:1017E3008C03120122C88C03120122D88C0312012C
:1017F30022E28C03120122EF8C03120122F98C03E3
:10180300120122098D03120122138D031201221DDD
:101813008D031201222D8D0312012297F804120168
:101823002209EF041201226DEF041201221CF004BD
:101833001201223BF0041201228FF004120122E56F
:10184300FF03120122D5FA0412012214FB04120130
:101853002268FB041201221DF8041201222DF80450
:1018630012012245F8041201228EF8041201223ECD
:10187300F504120122C2F50412012228F604120112
:1018830022FA7F0012012249E1041201225EE104DF
:1018930012012262E204120122D6E204120122F0B2
:1018A300E20412012207E3041201221AE3041201E3
:1018B3002232E30412012247E30412012268E30403
:1018C300120122B9E304120122D1CD04120122E54F
:1018D300CD041201225ECE0412012233CF04120181
:1018E3002205D104120122EEE3041201228FE40443
:1018F300120122C8E40412012213E504120122D8C2
:10190300E50412012202E60412012228E604120170
:10191300223CE60412012251E6041201225AE60493
:10192300120122142F00120122AA2F001201226594
:101933003000120122853000120122C03100120151
:1019430022133300120122C33300120122CB3D00C4
:10195300120122C34500120122074F001201227116
:101963005000120122125B00120122B15B0012012E
:1019730022175D00120122896000120122476100D3
:101983001201228261001201229E6100120122DEF5
:10199300F9041201225F7F00120122CA7F001201A3
:1019A30022D57F00120122E57F00120122F07F0081
:1019B300120122D4FF02120122FDFF021201225062
:1019C300FA011201225AFA011201229AFA011201B2
:1019D30022E3FA011201221DFB0112012273FB0112
:1019E30012012292FB011201229BFB01120122EC44
:1019F300FB0112012215FC011201222AFC01120132
:101A03002233FC01120122A3FC0112012231FD0148
:101A130012012275FD011201229DFD011201221CFA
:101A2300FE011201225FFE011201229CFE0112013E
:101A330022BBFE01120122C4FE0112012289FF0111
:101A4300120122D3FF011201228CF204120122DDC2
:101A5300F20412012266F304120122CCF3041201F0
:101A63002230D8041201225AD80412012254D90474
:101A730012012279D9041201221ADA04120122A0D6
:101A8300DA0412012241F604120122E1F9041201DF
:101A93002210EB0412012245EB041201227EEB0417
:101AA300120122D7EC041201220FF904120122259C
:101AB300F9041201222FF904120122F28704120100
:101AC30022AF8804120122EA880412012212890437
:101AD300120122748904120122C0890412012220F6
:101AE3008A04120122B18A04120122AD8B0412016D
:101AF300223A8D04120122BD8D04120122218E048B
:101B0300120122388E041201222E8F0412012203A5
:101B1300C20412012218C204120122CBC204120110
:101B2300220BC30412012224C30412012257C3044B
:101B3300120122A4C304120122D8C3041201221ADF
:101B4300C40412012219C60412012252FF02120117
:101B53002282FF02120122B7FF02120122B9FF0201
:101B6300120122BBFF02120122CCFF02120122CE7C
:101B7300FF02120122D1FF0212012291E604120197
:101B830022FEE60412012220E70412012258E70490
:101B93001201228EE7041201228BDB04120122CDF3
:101BA300DB04120122F0DB0412012228DE041201FD
:101BB3002242DE041201226DDE041201228AFA049B
:101BC3001201227A8F041201225890041201224733
:101BD3009104120122589104120122699104120105
:101BE30022B391041201224F9304120122AF9404F1
:101BF300120122DF9404120122AA95041201220A7F
:101C030096041201221EFB041201224AFB04120154
:101C13000002020000205104AA1609000102030178
:101C230009024300020100801909040000010202B5
:101C3300010005240010010424020205240600010A
:101C43000524010001070582034000400904010047
:101C5300020A000000070584024000010705040290
:101C63004000012C1C00004F1C0000E066701008AF
:101C7300A3E066700A08A3E066700408A3E0662286
:101C8300C3E7960809E7960809E7960809E7962245
:101C9300C3E09608A3E09608A3E09608A3E0962283
:101CA300C008C3E096F50808A3E096420808A3E03D
:101CB30096420808A3E09645087001D3D00822BBDA
:101CC3000102E722C082C08389828A83BB0003E0CA
:101CD3008002E493D083D08222BB000EC082C083F3
:101CE3008A838982F0D083D08222BB0101F7220844
:101CF3000808EAC0E0EBC0E086F0E7A4FA1809861A
:101D0300F0E7A42AFA180986F0E7A42AFA18098644
:101D1300F0E7A42AFA1986F0E7A4FBE5F02AFA19FA
:101D23000886F0E7A42BFBE5F03AFA190886F0E7FA
:101D3300A42BFBE5F03AFA18180986F0E7A4C5F0DE
:101D43002BFBE43AFA1908E7C5F0C6A426F6E5F03A
:101D53003BFBE43AFA1886F0E7A4F6E5F00826F62A
:101D6300E43B08F6E43A08F6D0E0FBD0E0FA22E4DC
:101D7300CFC0E0E4CEC0E0E4CDC0E0E4CCC0E07589
:101D8300F020E626F608E633F608E633F608E633EF
:101D9300F6181818EC33FCED33FDEE33FEEF33FF8A
:101DA300C3EC9709ED9709EE9709EF9719191940B5
:101DB3000FFFEC97FC09ED97FD09EE97FE19190645
:101DC300D5F0BFECF709EDF709EEF709EFF71919AD
:101DD30019D0E0FCD0E0FDD0E0FED0E0FF22601699
:101DE300080808C6C313C618C613C618C613C618F0
:101DF300C613C6D5E0EA227009080808226016183F
:101E03001818C6C333C608C633C608C633C608C6C1
:101E130033C6D5E0EA22E627F60809E637F60809CD
:101E2300E637F60809E637F622E026F608A3E03699
:101E3300F608A3E036F608A3E036F622E026F0081B
:101E4300A3E036F008A3E036F008A3E036F022C39F
:101E5300E697F60809E697F60809E697F60809E60D
:101E630097F622C3E096F008A3E096F008A3E09665
:101E7300F008A3E096F022E657F60809E657F608BD
:101E830009E657F60809E657F622E056F608A3E0F6
:101E930056F608A3E056F608A3E056F622E056F0FD
:101EA30008A3E056F008A3E056F008A3E056F0229A
:101EB300E046F608A3E046F608A3E046F608A3E0EA
:101EC30046F622E066F608A3E066F608A3E066F6A7
:101ED30008A3E066F622E0F608A3E0F608A3E0F61E
:101EE30008A3E0F622E6F008A3E6F008A3E6F0086C
:101EF300A3E6F022E0FAA3E0FBA3E0FCA3E0FD22CB
:101F0300EAF0A3EBF0A3ECF0A3EDF022E0F8A3E0FA
:101F1300F9A3E0FAA3E0FB22E8F0A3E9F0A3EAF0D7
:101F2300A3EBF022CAC0E0E6F0A308DAFAD0E0FAA5
:101F330022CAC0E0E0A3C582CCC582C583CDC583D8
:101F4300F0A3C582CCC582C583CDC583DAE6D0E0D4
:101F5300CA22C3E498F8E499F9121F968026C3E4D1
:101F63009AFAE49BFBE920E7E9121F96E498F8E468
:101F730099F922C3E498F8E499F9121F96E498F8C2
:101F8300E499F9C3E49AFAE49BFB22EB20E7CFE957
:101F930020E7E0B90010BB0008E88AF084F8AAF053
:101FA30022E4FBC8FA22EB70227B10C833C8C93382
:101FB300C9335007C39AC3DBF280069A50012ADB68
:101FC300EAC833F4C8C933F4C9FA2275F008E4C87F
:101FD30033C8C933C933C99AC99B5004C92AC93BF9
:101FE300D5F0ECFBC833F4C8E4C9FA22600D08C687
:101FF300A2E713C618C613C6D5E0F322600C08C6C1
:10200300C313C618C613C6D5E0F422700422600DAC
:1020130018C6C333C608C633C6D5E0F4182225183C
:1020230010AF08F518400C15198008F51840021573
:1020330019D2AF2200C0D0251810AF08F518500CE4
:1020430005198008F51850020519D2AFD0D0222502
:1020530018F58210AF08F518400C15198008F5180B
:1020630040021519D2AF851983222518F582E4356C
:1020730019F583222518F8E43519F9222518FAE40D
:102083003519FB222518FCE43519FD22E4732518C4
:10209300C582C0E0E51934FFC583C0E0E518C395E8
:1020A3008224F810AF0885831985821880088583F8
:1020B30019858218D2AFCEF0A3E520F0A37808E605
:1020C30008F0A3DEFAEFF0A3E58124FAF8E608F0BE
:1020D300A3E608F0A3E608F0A30808E608F0A3E6E1
:1020E30008F0A315811581D0E0FED0E0F815811525
:1020F300811581E8C0E0EEC0E0222518C582C0E06A
:10210300E51934FFC583C0E0E518C3958224F910AF
:10211300AF088583198582188008858319858218FD
:10212300D2AFCEF0A3E520F0A37808E608F0A3DE53
:10213300FAEFF0A3E58124FBF8E608F0A3E608F044
:10214300A30808E608F0A3E608F0A315811581D0DB
:10215300E0FED0E0F815811581E8C0E0EEC0E02292
:10216300851983851882E0A3FEE0A3F5207808E0B3
:10217300A3F608DFFAE0A3FFE0A3C0E0E0A3C0E01A
:10218300E0A3C0E0E0A3C0E0E0A3C0E010AF088597
:1021930082188583198008858218858319D2AFD068
:1021A30083D08202011F851983851882E0A3FEE094
:1021B300A3F5207808E0A3F608DFFAE0A3FFE0A385
:1021C300C0E0E0A3C0E0E0A3C0E0E0A3C0E010AF44
:1021D300088582188583198008858218858319D21A
:1021E300AFD083D08222C0D02518C582C0E0E519C4
:1021F30034FFC583C0E0E518C3958224F310AF080C
:102203008583198582188008858319858218D2AF42
:10221300C8F0A3E9F0A3EAF0A3EBF0A37908E70978
:10222300F0A3D8FAECF0A3EDF0A3EEF0A3EFF0A344
:10223300D0E0F0A3D0E0F0A3D0E0F0A3E520F0A33A
:10224300E5F0F0A322851983851882E0C0E0A3E0BE
:10225300F9A3E0FAA3E0FBA37808E0F608A3DFFA0A
:10226300E0FCA3E0FDA3E0FEA3E0FFA3E0C0E0A346
:10227300E0C0E0A3E0F5D0A3E0F520A3E0A3F5F0F0
:1022830010AF088583198582188008858319858294
:1022930018D2AFD082D083D0E0F8D0E0327404807B
:1022A3000A74038006740280027401C0E0F404120D
:1022B3002052D0E0121F2722740480087403800484
:1022C30074028000CCC0E0EDC0E0E518C39CCCAD47
:1022D3001950011D10AF068C188D1980068C188DAE
:1022E30019D2AF121F34D0E0FDD0E0FC22D083D04E
:1022F30082C5F0E493A3C5F0C395F0F5F0E493A38E
:10230300C395F04005E5F0048001E475F002A425CF
:1023130082F582E5F03583F583E493A3C0E0E4938B
:10232300C0E022D083D082E9C0E0E493A3C386F067
:10233300C5F095F0F908E493A386F0C5F095F07025
:102343000BE493A3C3994005E9048002A3E475F069
:1023530002A42582F582E5F03583F583D0E0F9E424
:1023630093A3C0E0E493C0E022D083D082CCC0E04A
:10237300E493A360061223961470FAE493A3600611
:102383001223B51470FAD0E0FCE493A3C0E0E49305
:10239300C0E022C0E0E493A3D39C5010E493A3C312
:1023A3009C400AD0E0D0E0D0E0022389A3A3A3D0CD
:1023B300E022C0E0E493A36C7009D0E0D0E0D0E069
:1023C300022389A3A3D0E022D083D082ECC0E0ED26
:1023D300C0E0E493A3FCE493A3FDED4C600D122451
:1023E30017EC24FFFCED34FFFD80EFE493A3FCE442
:1023F30093A3FDED4C600D122456EC24FFFCED3449
:10240300FFFD80EFD0E0FDD0E0FCE493A3C0E0E467
:1024130093C0E022C0E0C3E4939608740193961836
:10242300400FE49366700808740193661870007097
:1024330019A3A3C3E49396087401939618A3A34026
:102443000DD0E0D0E0D0E0022407A3A3A3A3A3A36D
:10245300D0E022C0E0C0F088F0E49366700808740E
:10246300019366187000A8F0A3A3700BD0F0D0E01E
:0E247300D0E0D0E0022407A3A3D0F0D0E022F6
:1024840074F61220FDEAFEEBFF8C088D09EE24346D
:10249400F8E43FF9E8FCE9FD1225B7E0FAEE243749
:1024A400F582E43FF583E0F88508F0A4C885F00AD6
:1024B4008509F0A4250AF9EA28F8E439F97A257B94
:1024C40000121F96EA8C828D83F0FA131313541FA3
:1024D400F8EE28F8E43FF9E8245DF582E439F58361
:1024E400E0C0E074075AF8D0E0B800028004C313D7
:1024F400D8FCA2E05003EA8020EE2436F582E43FC3
:10250400F583E0F5F0EA84A8F0EE28F8E43FF9E872
:102514002438F582E439F583E0F97F030221A974B4
:10252400F51220FDEAFEEBFFEE2434F582E43FF5DC
:1025340083E0C0E01225B7D0E0F08E828F83A3A39E
:10254400A3A3A3E0FAA3E0FB8E828F83A3A3A3A398
:10255400A3A3A3E0FCA3E0FDECC39AF50AED9BF56D
:102564000BEE247FF508E43FF509850882F583E046
:102574006401702AEE2480F582E43FF5831222C3BD
:102584001225C17402122037E960137CD57D06EE52
:10259400FAEFFB12109B850882850983E4F0AC0AEC
:1025A400AD0BEEFAEFFB122484E9F9122E277F0417
:1025B4000221A9EE2435F582E43FF58322C082C0CE
:1025C40083851882851983E0F8A3E0F9C3EA9CEBBC
:1025D4009D5010C3EC98ED99401BC3EA98EB9950B9
:1025E40014800EC3EA98EB994007C3EC98ED994028
:1025F40004790180027900D083D08222EAC39CFA54
:10260400EB9DFB2274ED1220FD900381E0640860D1
:1026140005E06407702C9061C8E060269003AFE089
:10262400F874FF68601CE875F00CA4C8AAF02AF9D5
:1026340074B128FE740339FF8E828F83A3A3A3E0B1
:10264400700579000227AAEE2468F50EE43FF50F21
:10265400906060E0850E82850F83F075106F7511B0
:1026640007750800750900E5D914F50AE5D954037E
:10267400F50B601FEE2482F50CE43FF50D74036541
:102684000B6059E50A6017EE2467F582E43FF58391
:10269400E0700B793DEEFAEFFB1210D180A49007A5
:1026A4006AE064016023850C82850D83E060047A0E
:1026B4000480027A00E50AC39AFA95E0FB120D7DC4
:1026C4008A088B09EA450970061213D70226468543
:1026D4000C82850D83E070048A108B117A008014BB
:1026E400E5D9C0E0EAF8E51028F582E43511F58370
:1026F400D0E0F00AEAC3950A40E6850C82850D8392
:10270400E0602874FC250AF50A78101222A8AC0AA5
:10271400A90BEEFAEFFB1211917402122037E97043
:102724000AAA08AB09121A4F0226977403650B60B4
:1027340054850A0C750D00780C1222A8AC10AD114A
:10274400AA08AB091211557402122037850E82852E
:102754000F83E0F87480687005750C7F8002880C24
:10276400E50CF50D780D1222AC780B1222ACA90AF7
:10277400AC08AD099003AFE0FA7B00120B4F740272
:10278400122037801C900381E06408AC10AD1170F6
:1027940009EEFAEFFB1211C18007EEFAEFFB1212F9
:1027A4007B1213E379017F0C0221A974F31220FD3B
:1027B40074FC122021EAFEEBFF8909A2AFE433F591
:1027C40008C2AFEE2463F50AE43FF50B8010AA0AB1
:1027D400AB0B121107121A4F9006DCE004F0850AC5
:1027E40082850B83E0F8A3E0F9E849602DE8240230
:1027F400FAE439FBEA2402F50CE43BF50D780C12FB
:1028040022A88A828B83E0FCA3E0F9EEFAEFFB12A4
:1028140010FB7402122037E960B49006DCE0604DCE
:102824009006DDE0F89006DCE0C398500C74026575
:1028340009703A9006DEE060348E828F83A3A3A3EE
:10284400A3E0851882851983122881740212206DF1
:10285400E81228819006DBE028F07402122087AA8F
:1028640018AB197901120BB59006DCE4F0E508A267
:10287400E092AF74041220377F060221A9F0A3E48A
:10288400F09006DCE0F822008521878522C622C06C
:10289400E074EB1221E9A2AFE433F508C2AF759BF3
:1028A40000906182E0A2E05030E591A2E0502A75E8
:1028B40091FE740165217021122A261212D5122A62
:1028C400141222BB122BD17404122037E964017054
:1028D400057901121323122608906182E0A2E550C3
:1028E4005DE591A2E550577591DF900381E064079F
:1028F4006005E06408702F122A2674016521703E79
:102904001212D5122A141222BB122BD174041220D3
:1029140037E96401700579011213237901EEFAEFA6
:10292400FB1227AF8018E0640D70139003A3E0043A
:10293400F064287002E4F07A00E0F9121401906166
:1029440082E0A2E640030229E9E591A2E6400302FF
:1029540029E97591BF900381E0640570081212BDE6
:102964001212C980031212C3752100121341E99097
:102974000382F07900121323120FB77A017B0090BF
:102984000380E0F9121A1F907803E06442705690B5
:10299400076EE014F0704EC2AF1229A0007831D057
:1029A400E0F618D0E0F6E59F5407F87005750DFFC2
:1029B4008003750D7FC4C0E07830E6F50A08E6555B
:1029C4000DF50B740B780A121FFFD0E0250AF8905E
:1029D4006270E0A2E740F8E8C333906272F090625C
:1029E40070E0D2E0F0906181E0A2E35009E5E9A251
:1029F400E3500375E9F7A3E0A2E75009E591A2E7E4
:102A0400500375917FE508A2E092AF7F0802224847
:102A14008E828F83E0F8A3E0C82416F582E438F5AB
:102A240083229003AFE0F875F00CA4C8AAF02AF949
:102A340074B128FE740339FF22C0E0C0D0C082C044
:102A440083906183E0A2E05009E5BFA2E0500375E2
:102A5400BFFEE0A2E15009E5BFA2E1500375BFFD4E
:102A6400E0A2E25009E5BFA2E2500375BFFBE0A279
:102A7400E35009E5BFA2E3500375BFF7E0A2E450B9
:102A840009E5BFA2E4500375BFEFE0A2E55009E5F4
:102A9400BFA2E5500375BFDFE0A2E65009E5BFA27F
:102AA400E6500375BFBFD083D082D0D0D0E032C00F
:102AB400E074F21221E9E5A7A2E4500FE5A1A2E433
:102AC400500953A7EF75A1EF122B07E5A7A2E55014
:102AD4000CE5A1A2E5500653A7DF75A1DFE5A7A287
:102AE400E15009E5A1A2E1500375A1FDE5A7A2E229
:102AF400500CE5A1A2E2500653A7FB75A1FB7F0190
:102B040002224874F81220FD752101900381E064CB
:102B14000670077A007B001212A5A2AFE433FED23E
:102B2400AF900387E0640170187A207B00900380E3
:102B3400E0F9121B337A207B00900380E0F9121A2B
:102B440025906182E0D2E6F090076BE0602185C6B3
:102B5400228016900386E064017008E5C654F844A8
:102B640005F5C653BEFC12288C7401652160E4EEA1
:102B7400A2E092AF7F010221A90000008E238F24DE
:102B8400858228858327851882851983E0CEA3E072
:102B9400CF852882852783EBC9EAC8EDCBECCA75BB
:102BA400F010C3E833C8E933C9EA33CAEB33CBC303
:102BB400EA9EF526EB9FF525B35004AB25AA26EC37
:102BC40033CCED33CDD5F0DAAE23AF242274F11239
:102BD40020FD8A088B098C0A8D0B9091727808125B
:102BE4001E8D740F12206D780C121ED9909172787C
:102BF4000C121E8D7808790C121C8390913E501093
:102C04007808790C121E527808121CA34014800E06
:102C1400780C7908121E52780C121CA35004790106
:102C2400800279007F080221A974ED1220FD8A0830
:102C34008B098C0A8D0B9091727808121E8D741377
:102C440012206D780C121ED9909172780C121E8D80
:102C5400780C7908121C8340117808790C121E52E2
:102C6400AA08AB09AC0AAD0B8022751000751100DF
:102C74007512007513017810790C121E52781079B0
:102C840008121E19AA10AB11AC12AD137F0C02214D
:102C9400A99091727808121ED98A828B83780812BF
:102CA4001EA07F040221A974F51220FD8C828D835D
:102CB4007808121ED98A828B837808121E66122C19
:102CC400FFC3E098F0A3E099122CF1401E90916AA2
:102CD4007808121ED98A828B837808121E3F8E824E
:102CE4008F83E02420F0A3E0344EF080A4F08E82A1
:102CF4008F83C3E09420A3E0944E22EA2404F8E4F2
:102D04003BF9E8FEE9FF8C828D83A3A3A3A3E0F83B
:102D1400A3E0F98E828F832274F51220FDE9FE90E0
:102D240006F7E0FAA3E0FBEE29F8E433F97483280C
:102D3400F582749039F583E02AF508A3E03BF509A0
:102D440078081222A890915E121EF7122B8074024A
:102D54001220378A088B098C0A8D0B74107808129C
:102D64001DE1AA08AB097F040221A974F11220FD18
:102D74008A0C8B0D8C0E8D0F741112206D1222C3D0
:102D8400741112206DE02401F508A3E03400F50964
:102D9400E4F50AF50B780C7908121CF290914A7844
:102DA40008121ED9780C7908121CF2AA0CAB0DACCF
:102DB4000EAD0F122B8074021220378B09EA4509DD
:102DC40060047A0180027A00EC2AFCE43DFD74136D
:102DD40012206DE0F8A3E0F9E8FEE9FFECF8EDF964
:102DE4007A717B02121F9688088909E4F50AF50BAB
:102DF4008E828F837808121EE8ECF8EDF97A717BE5
:102E040002121F968A088B097405780812200E8E08
:102E1400828F83A3A3A3A3E508F0A3E509F07F08A9
:102E24000221A9C082C083E9906000F0D083D082DF
:102E340022C0E0C0D0E8C0E0E9C0E0A9A8D2AFC297
:102E4400C7E9A2E7E433F8E9A2E792AFD0E0F9D00A
:102E5400E0F8D0D0D0E032C2AF02000022C0E0746B
:102E6400F11221E9E59DA2E650FA906206E0F9A28A
:102E7400E25034AA2EEA90620BF0F508852F09740B
:102E8400047808121FFFE508906207F08A08852F6E
:102E94000974097808121FFFE508543E906209F08E
:102EA400906201E0D2E0F0E9782B46F6906202E00D
:102EB400F5087509007404780812200E782BE508CB
:102EC40046F608E50946F6906204E0F5087509003F
:102ED4007409780812200E782CE50946F6E9A2E078
:102EE4005003752D017406596003752D00E58BA2FE
:102EF400E55006758BDF752D00121B75758B00C2AE
:062F0400E87F02022248F2
:102F0C00FFFFFFFFFFFFFFFF74F6122091E9900D0A
:102F1C0061F012162F900D61E0F91206991206ED70
:102F2C00900D61E0F91206F3900D61E0F91208FDC5
:102F3C0090916A121EF71206D590916A121EF71222
:102F4C00091B7AE37B1A1219BF7CE37D1A790012F4
:102F5C0006CF7CF87D1A7A0279011206CF79017AB4
:102F6C00B17B9012188D79027AA37B9012188D790F
:102F7C00037ABE7B9012188D7CCA7D0D7A10790273
:102F8C00121B097CDA7D0D7A107903121B097C6205
:102F9C007D0D7A047904121B097F0202216374F4FB
:102FAC001220918A088B09EB5480700302304590F3
:102FBC000D61E0F9121A078A0A8B0BAE0AAF0BEE01
:102FCC004F606E8E828F83E0246F600924FE7054F4
:102FDC001219358052A3E0F8740E6870208E828F1F
:102FEC0083A3A3A3A3A31222C3EE24FDF582EF3483
:102FFC00FFF583E024F9125CEA790E801D74FF68FA
:10300C0070288E828F83A3A3A3A3A31222C38E82C4
:10301C008F83A3A3E0125CEA79FF120B6774021290
:10302C0020378006121959E96007EEFAEFFB1219E6
:10303C00EFAA08E50964808016EB544060147C62AA
:10304C007D0D7A047904121B03AA08E5096440FB80
:10305C0080047A007B0002506CE9790024FE600841
:10306C00146005146009800C74106A700780077472
:10307C00046A6002790202011F74F412209174F93F
:10308C00122021EAFEEBFF851882851983E4124E8B
:10309C00B21233AFC0E0740112206DD0E0125D109B
:1030AC00A882A983E0FCA3E0FBECFA740212206D69
:1030BC00EAF0A3EBF0E82402F85001098882898336
:1030CC00E0C0E0740412206DD0E0125D1008A983FA
:1030DC00740512206D124EAC740212206DE0F508CE
:1030EC00A3E085080AF50B7407780A121FFF780A0B
:1030FC001223260100046C310E3121313031433161
:10310C005631AC18AD19740112207FE508547FF9C3
:10311C001219418046740112207FE508547FF91280
:10312C0019478037AC18AD19740112207FE508548B
:10313C007FF912194D8024AC18AD19740112207F3F
:10314C00E508547FF91219538011AC18AD197401AC
:10315C0012207FE508547FF912193BE9F50880032A
:10316C00750801EEFAEFFB1219EF900D92747FF0D7
:10317C00A37406F0E508A3F0740212206DE0900D24
:10318C0095F0740212206DA3E044FC900D96F0852E
:10319C001882851983E0900D97F07C927D0D85182F
:1031AC0082851983E02406FA79FF120B6D7900747D
:1031BC000702506974EB1220918A828B83ECFEED2E
:1031CC00FFA31232EB8E828F83E4F0850A82850B8B
:1031DC0083A3858208858309E914600C146051145B
:1031EC0070030232DB0232E2850A82850B83E0F542
:1031FC000A850882850983E0F50BC39432400302EB
:10320C0032DEAA0BA90A12192FE960030232DE7C06
:10321C00987D0DAA0BA90A121B09E9FA6003023268
:10322C00E4850882850983E08E828F83F00232E484
:10323C00850A82850B83E0F50C850882850983E07D
:10324C00F508FAA90C12192FE960030232DEE50A1F
:10325C002402FEE4350BFFEEFCEFFDAA08A90C12CC
:10326C001B03E9FA7404650C706E8E828F83E0F593
:10327C000CE4F50DF50EF50F850A82850B83A3A3DF
:10328C00123303121DFA780C7910121E19850A825A
:10329C00850B83A3A31232F6121DFA780C79101247
:1032AC001E19850A82850B83A3A3A3A3A3E0F508AB
:1032BC00E4F509F50AF50B74187808121DFA780C68
:1032CC007908121E19900D62780C121EE8800912F2
:1032DC0019B97A0280027A01EAF97F0D022163A3FF
:1032EC00A3A3E0F50AA3E0F50B22A3A3E0F510E4F9
:1032FC00F5117410781022A3E0F510E4F511F51215
:10330C00F513740878102274F412209174EA1220C8
:10331C002189088A828B831233ACFEA3E0FCE4CCB7
:10332C00FDEE2CE43DFFE82402FCE439FDE5082425
:10333C00F6602324F870401233981222A8740212FB
:10334C00207F120CAB7402122037E9F9702B123368
:10335C008A120C2D801D1233981222A8740212208E
:10336C007F120CC37402122037E9F9700C12338AE5
:10337C00120C27E9F9800279017416025069900D3C
:10338C0061E0F9AC18AD19EEFAEFFB228A828B835F
:10339C00A3A3A3E024FEF50AE434FFF50B780A227C
:1033AC00A3A3A31233BDF988828983E022A3A3A32C
:1033BC00A3A3E0F8A3E02274EC12209174EB12208A
:1033CC0021890BEAF8EBF97E007F00750A40E824AE
:1033DC0003F50EE439F50F850E82F583E0FAC394FC
:1033EC0002500579400237F1888289831233ACF59B
:1033FC0008A3E0FDE5082EE43DF50975129C751354
:10340C0091E82403F510E439F511E82402F50CE4F5
:10341C0039F50DE50B1222F0011D5F3D643490343B
:10342C00C234EE34323573351036513619376237B3
:10343C009137FB372C388538D2382639B239F339E5
:10344C00943A5F3D5F3DBC3A6F3BBA3B613C5F3D9C
:10345C00893C5F3DD93C373DA818A919880E890FC6
:10346C00780E1222A8123D821203577402122037D2
:10347C00E960030237ECAC18AD19AA08AB091202CB
:10348C00F1023827A818A919880E890F780E122274
:10349C00A8123D7B1222A8AC0CAD0D7A007900125B
:1034AC0003637404122037E960030237EC123DBD4C
:1034BC001206F9023827A818A919880E890F780E58
:1034CC001222A8123D8212036F7402122037E96097
:1034DC00030237ECAC18AD19AA08AB091202F702BB
:1034EC003827A818A919880E890F780E1222A8124D
:1034FC003D7B1222A8AC0CAD0D7A00790012037B37
:10350C007404122037E960030237EC740212206D48
:10351C001222C3900D61E0F9740212206D1245B9AC
:10352C0012071D023708123D821219898A0C8B0D65
:10353C00AE0CAF0DEE4F70030237ECA818A919882A
:10354C000C890D780C1222A8123DAA120387740262
:10355C00122037E960030237E5AC18AD19AA08ABA5
:10356C00091202FD023757A818A919880E890F787D
:10357C000E1222A8123D7B1222A8AC0CAD0D7A00C3
:10358C0079001203937404122037E960030237ECBC
:10359C00740412206D123DA21222A8740712206D21
:1035AC0085820C85830D780C1222A87C027D00AAE2
:1035BC0012AB131204657404122037E97003023C39
:1035CC005B851882851983E064017002A3E06003B7
:1035DC00023C5B740212206DE0F47003A3E0F46013
:1035EC0003023C5B12457E1222AC740812206DE083
:1035FC00F9740912206D1245B912070574011220D5
:10360C0037023827123D821219898A0C8B0DAE0CA9
:10361C00AF0DEE4F70030237ECA818A919880C896E
:10362C000D780C1222A8123DAA12039F74021220CC
:10363C0037E960030237E5AC18AD19AA08AB0912DB
:10364C000303023757A818A919880E890F780E1290
:10365C0022A8123D7B1222A8AC0CAD0D7A00790089
:10366C001203AB7404122037E960030237EC7404C4
:10367C0012206D123DA21222A8740712206D8582B1
:10368C000C85830D780C1222A87C027D007A987B25
:10369C00911204657404122037E9601A7402122026
:1036AC006D1222C3900D61E0F9740212206D124567
:1036BC00B912070B8046740412206D123DA212221F
:1036CC00A8740712206D85820C85830D780C12224C
:1036DC00A87C027D007AA47B9112046574041220EC
:1036EC0037E96020740212206D1222C3900D61E044
:1036FC00F9740212206D1245B912071174021220CE
:10370C0037023827123DBD120729023827123D8295
:10371C001219898A0C8B0DAE0CAF0DEE4F70030293
:10372C0037ECA818A919880C890D780C1222A8124C
:10373C003DAA1203B77402122037E960030237E581
:10374C00AC18AD19AA08AB09120309E9F50A600314
:10375C000237E50237ECA818A919880E890F780EE4
:10376C001222A8123D7B1222A8AC0CAD0D7A007966
:10377C00001203C37404122037E97064123DBD12A9
:10378C000723023827EAC39403400E123D82121914
:10379C00898A0C8B0DAE0CAF0D850E82850F83E0E4
:1037AC00FA74026A6004EE4F6036A818A919880CE6
:1037BC00890D780C1222A8123D721203CF740212DA
:1037CC002037E97010AC18AD19AA08AB0912030F19
:1037DC00E9F50A600BEE4F6007EEFAEFFB121A4F99
:1037EC00A90A12198374151220377F0C022163A8C1
:1037FC0018A919880E890F780E1222A8123D7B1277
:10380C0022A8AC0CAD0D7A0079001203ED740412F1
:10381C002037E970CB123DBD12072FE9F50A80C0A5
:10382C00EAC39403400E123D821219898A0C8B0D47
:10383C00AE0CAF0D850E82850F83E0FA74026A60C0
:10384C0004EE4F609BA818A919880C890D780C12EE
:10385C0022A8123D721203F97402122037E9600398
:10386C000237E1AC18AD19AA08AB09120315E9F53A
:10387C000A60030237E10237EC123D821219898A81
:10388C000C8B0DAE0CAF0DEE4F70030237ECA8187D
:10389C00A919880C890D780C1222A8850E82850F27
:1038AC00831245A41222A8EEFCEFFD7A00790012D7
:1038BC0004057404122037E960030237E5123DBD9C
:1038CC00120735023757EAC39403400E123D821299
:1038DC0019898A0C8B0DAE0CAF0D850E82850F836A
:1038EC00E0FA74026A6007EE4F70030237ECA81816
:1038FC00A919880C890D780C1222A8123D72120499
:10390C00117402122037E960030237E1AC18AD19CB
:10391C00AA08AB0912031B02387AA818A919880E39
:10392C00890F780E1222A8123D7B1222A8AC0CAD86
:10393C000D7A0079001203AB7404122037E960038E
:10394C000237EC740412206D123DA21222A87407E7
:10395C0012206D85820C85830D780C1222A87C02B6
:10396C007D00AA12AB131204657404122037E9709F
:10397C0003023C5B851882851983E064017002A305
:10398C00E06003023C5B740212206DE0F47003A350
:10399C00E0F46003023C5B900D61E0F9AA08AB090E
:1039AC001206FF023827123D821219898A0C8B0DE0
:1039BC00AE0CAF0DEE4F70030237ECA818A91988A6
:1039CC000C890D780C1222A8123DAA12041D740247
:1039DC00122037E960030237E5AC18AD19AA08AB21
:1039EC0009120321023757EA24FCFCE434FFFDE8FA
:1039FC002404FAE439FB1219898A128B13AE12AF24
:103A0C0013EE4F70030237ECA818A919881289130A
:103A1C0078121222A8850E82850F83E024FC123DB9
:103A2C00981222A8EEFCEFFD851082851183E0FA36
:103A3C00850C82850D83E0F91203D57404122037AE
:103A4C00E960030237E5740612206DE07008123D40
:103A5C00BD1207478018740512206DE0AC18AD1923
:103A6C00AA08AB09700512073B8003120741E9F560
:103A7C000AE50A60030237E5740312206D124597BC
:103A8C0070030237E50237ECA818A919880E890FC4
:103A9C00780E1222A8123D821203E1740212203712
:103AAC00E960030237ECAA08AB0912032702382796
:103ABC00123D821219898A088B09AE08AF09EE4FA4
:103ACC0070030237ECA818A919880889097808121C
:103ADC0022A8850E82850F83E024FEF508E434FFCE
:103AEC00F50978081222A8EEFCEFFD7A0079001295
:103AFC0004297404122037E960030237E5900DEBBA
:103B0C00124597700F7A237B00121A9D900DEBEAE9
:103B1C00F0A3EBF0900DEB1245976041900DEAE0AD
:103B2C00C394054003023C5B12458A29F0750807D3
:103B3C0075090078081222A87402122087E975F022
:103B4C0007A4F8A9F0900DEBE028FAA3E039FB12DA
:103B5C0019C57402122037750A000237EC750A1366
:103B6C000237E5123D821219898A0C8B0DAE0CAF0F
:103B7C000DEE4F70030237ECA818A919880C890DAB
:103B8C00780C1222A8123DAA1204357402122037A6
:103B9C00E960030237E5AC18AD19AA08AB091203AA
:103BAC002DE9F50A60030237E57405023A86A81878
:103BBC00A919880E890F780E1222A8123D7B1222A9
:103BCC00A8AC0CAD0D7A00790012044174041220DB
:103BDC0037E960030237EC900DEB124597607012D9
:103BEC00457E1222AC740112206D1245811222AC5A
:103BFC00900DEAE0F9900DEB1245B91207537402DF
:103C0C00122037E9F50A60397E008022EE75F00744
:103C1C00A4F8A9F0900DEBE028FAA3E0398A82F51C
:103C2C0083A3A3125CEFEA4B6003121A4F0E900DA4
:103C3C00EAE0F8EEC39840D4900DEB125CF2121A45
:103C4C00A3900DEBE4F0A3F0900DEAF00237EC75C5
:103C5C000A020237E1A818A919880E890F780E12EA
:103C6C0022A8123D821204477402122037E9600325
:103C7C000237ECAA08AB09120333023827123D6550
:103C8C001219898A108B11AE10AF11EE4F7003020E
:103C9C0037ECA818A9198810891178101222A812CB
:103CAC003D8B1222A8EEFCEFFD7A00790012045332
:103CBC007404122037E960030237E5850C82850D08
:103CCC0083123DC0120837E9F50A023A7F123D65AE
:103CDC001219898A108B11AE10AF11EE4F700302BE
:103CEC0037ECA818A9198810891178101222A8127B
:103CFC003D8B1222A8EEFCEFFD7A007900120453E2
:103D0C007404122037E960030237E512457E122253
:103D1C00AC850C82850D8312458A122087AA08ABCC
:103D2C00091208317401122037809CA818A919882F
:103D3C000E890F780E1222A8123D821204597402B9
:103D4C00122037E960030237ECAA08AB091202E52E
:103D5C00023827750A010237ECEA24FDFCE434FF33
:103D6C00FDAA10AB1122EA123DB5EEFAEFFB22EAE6
:103D7C0024FE123D9822EA123DB5AA0CAB0D228509
:103D8C000E82850F83E024FD123D9822F50EE4345B
:103D9C00FFF50F780E22E0F50C8E0D780C22850EB7
:103DAC0082850F83E0123DB52224FEFCE434FFFD36
:103DBC0022900D61E0F9AC18AD19AA08AB09227478
:103DCC00E812209174EA122021E985188285198362
:103DDC00F0750E00750F00750A40EA2403F510E427
:103DEC003BF511851082F583E0F9C39402500579F7
:103DFC00400243BD8A828B83A3A3A3A3E0FEA3E06E
:103E0C00FF8E828F83E0FCA3E0FAE4CAFBEC2AF578
:103E1C0008E43BF509EE2402F50CE43FF50DEE2425
:103E2C0003F512E43FF513851882851983E01223FC
:103E3C006C001602833E04913F06CB3E08563F0AA7
:103E4C00DC3F0C52400E8D4010BE3E12794116CE16
:103E5C00411B9F441DFB4430E43E32E43E3417408A
:103E6C0036E240382E413A4F423CCC433E06444069
:103E7C003D4442CE415845740112207F8A0E8B0F6F
:103E8C00780E1222A8E9123D7C1222A8AC0CAD0DC2
:103E9C007A0079001203637404122037E96003027C
:103EAC0043B8124587122087AA08AB091206F902FB
:103EBC004401900D61E0F9AA081206FF02440112B8
:103ECC00457E1222AC1919AC0CAD0DAA08120705CF
:103EDC007401122037024401E924FEF8E434FFF99E
:103EEC007404684960030243B8850C82850D83E035
:103EFC00FA851282851383E0F8E4C8F9EA28FCE419
:103F0C0039FD8E828F83A3A3A3A3E0FA8E828F83C5
:103F1C00A3A3A3A3A3E0F9EAF50AE439F50B8518EA
:103F2C0082851983E06430780A70101222A8900DF3
:103F3C0061E0F9AA0812070B023FD41222A8900DD7
:103F4C0061E0F9AA08120711807E740112207F8AA1
:103F5C000E8B0F780E1222A8E9123D7C1222A8AC0F
:103F6C000CAD0D7A0079001203AB7404122037E902
:103F7C0060030243B8124587122087AA08AB0912C6
:103F8C000717024401740112207F8A0E8B0F780EE2
:103F9C001222A8E9123D7C1222A8AC0CAD0D7A00BD
:103FAC00790012037B7404122037E960030243B8D2
:103FBC00740312206D1222C3900D61E0F974031288
:103FCC00206D1245B912071D7402122037024401EC
:103FDC00740112207F8A0E8B0F780E1222A8E91220
:103FEC003D7C1222A8AC0CAD0D7A0079001203C3F3
:103FFC007404122037E960030243B812458712207B
:10400C0087AA08AB09120723024401740112207F0E
:10401C008A0E8B0F780E1222A8E9123D7C1222A870
:10402C00AC0CAD0D7A0079001203AB74041220377E
:10403C00E960030243B8124587122087AA08AB092E
:10404C00120729024401740112207F8A0E8B0F780B
:10405C000E1222A8E9123D7C1222A8AC0CAD0D7AEE
:10406C000079001203ED7404122037E96003024357
:10407C00B8124587122087AA08AB0912072F0244F1
:10408C0001E9123D831219898A0E8B0FEA450F70D4
:10409C00030243B87401122077880C890D780C1236
:1040AC0022A812459E1222A8AC0EAD0F7A00790000
:1040BC001204057404122037E960030243B112455F
:1040CC0087122087AA08AB09120735E9F50A6003A5
:1040DC000243B10243B8E9123D831219898A0E8B4F
:1040EC000FEA450F70030243B87401122077880C55
:1040FC00890D780C1222A812459E1222A8AC0EAD86
:10410C000F7A0179001203D57404122037E9600389
:10411C000243B17401122087AA08AB0912073B02B3
:10412C0041C3E9123D831219898A0E8B0FEA450FA0
:10413C0070030243B87401122077880C890D780C37
:10414C001222A812459E1222A8AC0EAD0F7A01794C
:10415C00011203D57404122037E960030243B174D1
:10416C0001122087AA08AB09120741804AE9123DC7
:10417C00831219898A0E8B0FEA450F70030243B81C
:10418C007401122077880C890D780C1222A8124524
:10419C009E1222A8AC0EAD0F7A0079001203D574D2
:1041AC0004122037E960030243B1124587122087BD
:1041BC00AA08AB09120747E9F50A60030243B102EA
:1041CC00448FE9123D831219898A0E8B0FEA450F31
:1041DC0070030243B87401122077880C890D780C97
:1041EC001222A812459E1222A8AC0EAD0F7A0079AD
:1041FC00001204297404122037E960030243B185CC
:10420C001882851983E06416900D61700F12458A2F
:10421C00122087AA08AB0912074D800D12458A128D
:10422C002087AA08AB0912076BE9F50AE50A6003B7
:10423C000243B1740612206D12459770030243B10C
:10424C000243B8E924FEF8E434FFF9C3E89401E929
:10425C009400A2D265D03350030243B8850C8285FA
:10426C000D83E0F51070030243C7C39406400302AC
:10427C0043C7E51075F007A4FEAFF0FAEFFB121A76
:10428C009D8A148B15EA451570030243C2EEFCEFB0
:10429C00FD79001219DDAE12AF13750B008034E8F6
:1042AC00FEE9FF85160C85170D780C1222A8750CEB
:1042BC0004750D00780C1222A8EEFCEFFD7A007943
:1042CC00001204297404122037A811EE28FEE43FD2
:1042DC00FF050BE50BC395105066751104E50B75C6
:1042EC00F007A4F8A9F0E51428F516E51539F5172B
:1042FC008E828F83A3A882A9838E828F83E0FA603B
:10430C009E74042AF511E8FEE9FF85110C750D0069
:10431C00AC0CAD0DEEFAEFFB1219898A0E8B0FEA7D
:10432C00450F7005750A1380428516128517137890
:10433C00121222A8780C1222A8AC0EAD0F0242C9A0
:10434C00E510650B702512457E1222AC750A0178BA
:10435C000A1222ACA910AC14AD15AA08AB091207AD
:10436C00537402122037E9F50A6034750B00802172
:10437C00E50B75F007A4F8A9F0E51428F582E5150E
:10438C0039F583A3A3125CEFEA4B6003121A4F05B5
:10439C000BE50BC3951040D8AA14AB15121AA3E564
:1043AC000E450F6007AA0EAB0F121A4FA90A12196D
:1043BC00837416026081750A1380F1750A0280EC11
:1043CC00740112207F8A0E8B0F780E1222A8E9122C
:1043DC003D7C1222A8AC0CAD0D7A0079001203C3FF
:1043EC007404122037E970C4124587122087AA087A
:1043FC00AB09120759E9F50A80B2740112207F8AC1
:10440C000E8B0F780E1222A8E9123D7C1222A8AC5A
:10441C000CAD0D7A0079001203ED7404122037E90B
:10442C00708A124587122087AA08AB0912075F8091
:10443C00C4E9123D831219898A0E8B0FEA450F705D
:10444C00030243B87401122077880C890D780C1282
:10445C0022A812459E1222A8AC0EAD0F7A0079004C
:10446C001203D57404122037E960030243B11245DC
:10447C0087122087AA08AB09120765E9F50A6003C1
:10448C000243B1740412206D12459770030243ABC2
:10449C000243B812455E1219898A0E8B0FEA450F3A
:1044AC0070030243B87401122077881289137812B2
:1044BC001222A812456B1222A8AC0EAD0F7A00790D
:1044CC00001204537404122037E960030243B185CF
:1044DC000C82850D8312458A122087AA08AB09121B
:1044EC000837E9F50A60030243B174040242411231
:1044FC00455E1219898A0E8B0FEA450F7003024331
:10450C00B874011220778812891378121222A8121B
:10451C00456B1222A8AC0EAD0F7A00790012045331
:10452C007404122037E960030243B112457E122253
:10453C00AC850C82850D83E0F97402122087AA08E1
:10454C00AB0912083174011220378096750A0102EA
:10455C0043B8E924FDFCE434FFFDAA12AB13228519
:10456C001082851183E024FDF510E434FFF51178F9
:10457C001022900D61E0F50A780A22900D61E0F9A5
:10458C00740122A3A3A3A3A3A3A3A31233BEF9E88C
:10459C004922851082851183E024FEF50CE434FF5A
:1045AC00F50D780C22A3A3A3A3A3A3A3A3E0FCA3C0
:1045BC00E0FDAA08AB092274EA12209174A512201E
:1045CC00218C0C8D0D8A828B83A3A3A3A3E0FEA365
:1045DC00E0FF750E00EE2402F50AE43FF50B8E8227
:1045EC008F83A3858208858309E970030246902492
:1045FC00FD70030247971470030247E01470030226
:10460C00481F14700302487E1470030248E21470B1
:10461C00030248F914700302482A14700302490477
:10462C0014700302496B147003024CD11470030212
:10463C004D6B147003024C52147003024BD4147063
:10464C0003024BCB14700302491D24E17003024C8E
:10465C00F3147003024D26147003024CE214700321
:10466C00024D74147003024DE5147003024DF714DF
:10467C007003024E0A147003024DFF147003024EB5
:10468C000A024E0F8E828F83E0F5147C107900AAFB
:10469C000AAB0B121A43E9701B750C10750D0078E0
:1046AC000C1222A8AC0AAD0B7ACA7B0D1219C57478
:1046BC0002122037EE2412F50AE43FF50B7C107938
:1046CC0000AA0AFB121A43E9701B750C10750D0039
:1046DC00780C1222A8AC0AAD0B7ADA7B0D1219C534
:1046EC007402122037EE24221258B2F50CE4F50DA8
:1046FC00F50FEE2423F582E43FF583123304121DEB
:10470C00FA780C7910121E19EE2424F582E43FF588
:10471C00831232F8121DFA780C7910121E19EE243D
:10472C0025F582E43FF583124E32121DFA780C798E
:10473C0010121E19E50C450D450E450F6008900D25
:10474C0062780C121EE8750A62750B0D780A12223B
:10475C00A8750ADA750B0D780A1222A87CCA7D0D91
:10476C00850882850983E0FBAA14900D61E0F9129B
:10477C00181B7404122037E9F50E900D61E0FC7DD6
:10478C00007A267B001204DD024E12750A00750BAE
:10479C00009090EA740A1220877406121F34750C6C
:1047AC0006F50D780C1222A8740C122087AA08ABFF
:1047BC00091219D77402122037E9640160068508C2
:1047CC000A85090BAA0AAB0B8E828F83E0F91204BF
:1047DC00F5024DFA900D61E0C0E0741012206DD01E
:1047EC00E0124EBFE0C0E0741112206DD0E0124E0A
:1047FC00DAC0E0741212206DD0E0124EB2E0C0E0CC
:10480C00741312206DD0E0F0741012207F12047D0E
:10481C00024DFA900D61E0F9120483024DFA900DED
:10482C0061E0851882851983124EBFE0C0E07401E7
:10483C0012206DD0E0124EDAC0E0740212206DD05E
:10484C00E0124EFBC0E0740312206DD0E0124EE576
:10485C001222A8EEFCEFFD740612206DAA82AB8327
:10486C001219C57402122037AA18AB191204BF0210
:10487C004DFA8E828F83E0851882851983124EDA69
:10488C00C0E0740112206DD0E0124EE51222A8EEA9
:10489C00FCEFFD740412206DAA82AB831219C5744F
:1048AC0002122037EE2406FE50010F8E828F83E019
:1048BC00C0E0740812206DD0E0124EB2E0C0E0747B
:1048CC000912206DD0E0F0AA18AB19900D61E0F937
:1048DC00120603024DFAAC0AAD0BE0FB8E828F83FD
:1048EC00E0FA900D61E0F9120609024DFA900D61A3
:1048FC00E0F912060F024DFA850A82850B83E0FC63
:10490C00124E4FE439FB900D61E0F9120567024D30
:10491C00FA124E3D851882851983124ECCFAA3E00B
:10492C00F9EAF8740212206D124EF150010F124E7A
:10493C0043740412206D124EF150010F124E437449
:10494C000612206D124EF150010F124E43740812D4
:10495C00206D124EACAA18AB1912056D024DFA75EA
:10496C000C00750D007C187D007900741412207FEA
:10497C001219DD124E3DF8741412206DE8124ECC53
:10498C00C0E0741612206DD0E0124EB2AE82AF832E
:10499C00E0C0E0741712206DD0E0124EB20EAF835F
:1049AC0075081075090078081222A8EEFCEFFD744A
:1049BC001A12206DAA82AB831219C5740212203709
:1049CC00EE2410FE50010F8E828F83E0C0E074281D
:1049DC0012206DD0E0124EFBC0E0742B12206DD073
:1049EC00E0124EC5A30E0EAF83A2E0E433F510E542
:1049FC000EA2E15004D2F08002C2F0A2F0E433F82F
:104A0C00E50EA2E25004D2F08002C2F0A2F0E43330
:104A1C00F50A750B00E50EA2E35004D2F08002C239
:104A2C00F0A2F0E433FCE50EA2E45004D2F08002D4
:104A3C00C2F0A2F0E433FAE50EA2E55004D2F08005
:104A4C0002C2F0A2F0E433F508E50EA2E65004D25F
:104A5C00F08002C2F0751100E828F8E51048F51056
:104A6C007402780A12200EE510450AF50A8C1074AF
:104A7C0003781012200EE50A4510F8EAFBE8FA74E8
:104A8C0009780812200EEB4509FBA2F0E433F50877
:104A9C00750900740A780812200E124E1E12200E90
:104AAC00EAF8EB4509F9742912206D124EAC8E828E
:104ABC008F83E0F50EA30EAF837003024BBCE0C0F6
:104ACC00E0740A12206DD0E0124EFBC0E0740B12A1
:104ADC00206DD0E0124EFBC0E0740C12206DD0E0C3
:104AEC00124EFBC0E0740D12206DD0E0124EC5A228
:104AFC00E0E433FCE50EA2E15004D2F08002C2F0F7
:104B0C00A2F0E433F8E50EA2E25004D2F08002C227
:104B1C00F0A2F0E433F508750900E50EA2E35004A9
:104B2C00D2F08002C2F0A2F0E433F50AE50EA2E462
:104B3C005004D2F08002C2F0A2F0E433FAE50EA2E7
:104B4C00E55004D2F08002C2F0A2F0E433F50CE59B
:104B5C000EA2E65004D2F08002C2F0E828F8EC482D
:104B6C00FC7402780812200EEC4508FC7403780AD9
:104B7C0012200EEC450AF8EAFBE8FA7409780C12DC
:104B8C00200EEB450DFBA2F0E433F508740A78080F
:104B9C0012200E124E1E12200EEAF8EB4509F97483
:104BAC000E12206D124EAC740A122077880C890DEF
:104BBC00AC0CAD0D741412207F120579024DFA1253
:104BCC004E6B12057F024DFA124E841222A8EEFC97
:104BDC00EFFD744212207F1219C57402122037EEB9
:104BEC002410FE50010F124E43745012206D124EC1
:104BFC00F150010F750C08780C1222A8EEFCEFFD99
:104C0C00745412206DAA82AB831219C5740212203F
:104C1C00378E828F83A3A3A3A3A3A3A3A3E0C0E097
:104C2C00745A12206DD0E0F0750B01780B1222AC87
:104C3C007441122087A90AAA08AB091205917401C4
:104C4C00122037024DFA124E841222A8EEFCEFFD10
:104C5C00742E12207F1219C57402122037EE241004
:104C6C00FE50010F8E828F83E0F50CE4F50F1233AA
:104C7C0003121DFA780C7910121E198E828F831272
:104C8C0032F6121DFA780C7910121E198E828F834F
:104C9C00A3A3A3124E32121DFA780C7910121E190E
:104CAC00743C12206DE50CF0A3E50DF0A3E50EF0BD
:104CBC00A3E50FF0742C122087A90AAA08AB0912DD
:104CCC000573024DFA124E4FFCE439FDAA0AAB0BE8
:104CDC00120585024DFAEE2410FCE43FFDEEFAEFCE
:104CEC00FB120549024DFA8E828F83E0FA7B008518
:104CFC000882850983E0FC850A82850B83E0F9EC48
:104D0C002BE439FDEA64267003024E0AEA9427402C
:104D1C0003024E0A1204DD024DFA78FF79FF8E82EF
:104D2C008F83E0FA7B00F46020EA6426601BEAC300
:104D3C00942750151204E38A088B09A808A9097452
:104D4C00FF68700374FF697003750E02850C828511
:104D5C000D837402F0E8900D98F0E9A3024E07124F
:104D6C004E6B120681024DFAE0F50CF50E750F0034
:104D7C002404FAE43400FB121A9D8A088B09EA45D4
:104D8C000960518E828F83E08A828B83F0A3E50CBD
:104D9C00F0EA2402E435090A0AFBE5082404F8E4E5
:104DAC003509F98A828B83124EAC780E1222A8AC8C
:104DBC000AAD0B8A828B83125CF21219C574021233
:104DCC002037AA08AB09120615E9F50E6038AA08B7
:104DDC00AB098012750E13802D8E828F83E0F91231
:104DEC00061BEA4B6018121AA3801B120621E9F568
:104DFC000E8013750E028C828D83E4F08008750E84
:104E0C00028003750E01A90E745B1220377F0E020F
:104E1C002163EB4509FBE50EA2E7E433F5087509C0
:104E2C0000740B780822E0F510E4F5127418781071
:104E3C0022124E5DF9EA228E828F83E0FAA3E0F90A
:104E4C00EAF822124E5322124E5DF8E4C8F9EA2811
:104E5C00228E828F83E0FA850882850983E0228581
:104E6C000A82850B83E0F98E828F83E0FC850882B1
:104E7C00850983E0FBECFA22124E53F508E439F570
:104E8C00090E0EAF0B8E828F83E0F50AA3AE82AFB4
:104E9C0083750C10880D780C22F98518828519837E
:104EAC00E8F0A3E9F022124EB622124EBA22124EAC
:104EBC00BFA322F08E828F8322124EB6E0F50E2213
:104ECC00F0A3E9F00E0EAF0B8E828F83E022F0AED2
:104EDC0008AF098E828F83E022124F007508067589
:104EEC000900780822E8F0A3E9F0EE2402FE221271
:104EFC004F00E022124EBA0EAF832274F4122091AE
:104F0C0074FD122021EAFEEBFF851882851983E4DB
:104F1C00F0F508F5090412206DE4F0740212206D0E
:104F2C007401F07C2C7D0079007A667B0D1219DD02
:104F3C008E828F83E02460606F24FE605124F270B7
:104F4C0003024FDD14700302500B24E16003025086
:104F5C002C74021220778808890978081222A87408
:104F6C00031220778808890978081222A874041281
:104F7C0020778808890978081222A87C667D0DEEB6
:104F8C00FAEFFB12195F7406122037025028A8188A
:104F9C00A9198808890978081222A87C667D0DEE6B
:104FAC00FAEFFB121965806F74011220778808895B
:104FBC000978081222A874021220778808890978C7
:104FCC00081222A87C667D0DEEFAEFFB12196B809D
:104FDC002774011220778808890978081222A8748E
:104FEC00021220778808890978081222A87C667D2D
:104FFC000DEEFAEFFB1219717404122037801DA804
:10500C0018A9198808890978081222A87C667D0DD0
:10501C00EEFAEFFB12197774021220378A088B090B
:10502C00740212206DE06007EEFAEFFB1219EF85A7
:10503C001882851983E0600AAC08AD09FA79FF1271
:10504C000B6DE50845096011740112206DE06401D7
:10505C007007AA08AB09121AA3790074031220373F
:10506C007F0402216374E812209174FE122021EA5D
:10507C00FEEBFF8C088D09751000750A00750B008E
:10508C00741E12206D12607AEC2406F8E43509F9CE
:10509C00EC240BF50CE43509F50DEC2405FAE4359C
:1050AC0009FB8C828D83A3858214858315EE2403E2
:1050BC00F50EE43FF50F8E828F83A38582128583D4
:1050CC00138E828F83A3A3E0605D1470030251C31F
:1050DC001470030252C11470030252D914700302EB
:1050EC0052E41470030252FE1470030253B814708D
:1050FC00030253DE14700302543A14700302545A20
:10510C0014700302550A1470030254D31470030272
:10511C0057B91470030257EE1470030256F9147049
:10512C000302570C0258758C828D83E4125A22129A
:10513C0022A8AC0EAD0FE5082403FAE43509FB12E6
:10514C0019C57402122037125A7F750A10780A1288
:10515C0022A87CCA7D0DE508240CFAE43509FB1263
:10516C0019C57402122037780A1222A87CDA7D0D38
:10517C00E508241CFAE43509FB1219C57402122047
:10518C0037851282851383E070217CCA7D0D7A10DD
:10519C007902121B037CDA7D0D7A107903121B0342
:1051AC007C627D0D7A047904121B0385080A85093B
:1051BC000B75102C025875851282851383E06003E1
:1051CC00025293850E82850F83E070030252A8333E
:1051DC00333354F82404F510FA7B00121A9D8A0A12
:1051EC008B0BEA450B700302528A8A828B83740103
:1051FC00F0A374061259FF8512828513831259F895
:10520C00850E82850F831259F88E828F831233BAE2
:10521C00124EA57E00804E125CF81259F8125CF802
:10522C00A31259F875160675170078161222A87471
:10523C000212206DE02402FCA3E03400FDAA0CABAA
:10524C000D1219C57402122037E50C2406F50C500A
:10525C0002050D0E851882851983E02408F8A3E059
:10526C003400124EA5850E82850F83E0F8EEC398AC
:10527C0040A5741C12206D125CFE7401800885120E
:10528C00828513837413F0851282851383E0700C6E
:10529C00850E82850F83E060030258758508828530
:1052AC000983740112598F1258CB12613EA3A3E4E7
:1052BC001259F080128C828D837402125934740648
:1052CC00125A308C0A8D0B7510040258758C828D15
:1052DC0083740312598F800E8C828D83740412593F
:1052EC003C8E828F83A31258DE12591D7510030257
:1052FC0058758C828D83740512593404125AC3125A
:10530C0022A81258BA1219C574021220378E828F35
:10531C0083A3125A6EA31259B4850C82850D83F0A7
:10532C001258AFC0E01258A3D0E0125925E0C0E0EB
:10533C00125897D0E0125925A3E0C0E0E508240EDE
:10534C0012589BD0E0F0EE240FF8E43FF9888289E4
:10535C0083E0C0E0E508240F12589BD0E0125D0BEF
:10536C00C0E0E508241012589BD0E0F0EE2411F8B0
:10537C00E43FF988828983E0C0E0E50824111258E3
:10538C009BD0E0125D0BC0E0E508241212589BD0B4
:10539C00E0F0EE24131258B2C0E0E50824131258C2
:1053AC009BD0E01259F07510140258758C828D83C5
:1053BC007406125934125A30850E82850F83125896
:1053CC00DDA31259418A828B8312591F7510060274
:1053DC0058758C828D8374071259341412599A1291
:1053EC0058DEA3A3124EB2A3A31258DD1259418C5E
:1053FC00828D83A3A3A3A31259658A828B8312592E
:10540C007688828983125A081259898C828D83A3DB
:10541C00A3A3A3A3A3A3A31259851258DE1259B4B4
:10542C008C828D83A312591675100B0258758C82C1
:10543C008D837408125AC01222A81258BA1219C5B8
:10544C00740212203785080A85090B0257B38C8227
:10545C008D837409125AC01222A81258BA1219C597
:10546C0074021220378E828F83A3A3A3A3A3A3A3BA
:10547C00A3A3A37810121ED9850882850983A3A340
:10548C00A3A3A3A3A3A3A3A3E51012598578101279
:10549C001ED9E511850C82850D831259AE121ED9C9
:1054AC007410780C121DE11258A3E50C1259AE12AF
:1054BC001ED97418780C121DE1125897E50C12596C
:1054CC00F075100E0258758C828D83740B125A2253
:1054DC001222A8AC0EAD0FE5082403FAE43509FB43
:1054EC001219C57402122037125A7F1258AFC0E03D
:1054FC001258A3D0E01259F075100D0258757510A2
:10550C006A7A6A7B00121A9D8A0A8B0BEA450B7029
:10551C00030256D2741C12206D12607A7C6A7D00D4
:10552C0079001219DD850A82850B83740A125AA63A
:10553C00850E82850F83A31259A21259E6F9E84908
:10554C00604712594D125A521222A88E828F831222
:10555C0045B31219C57402122037E5082410F5085A
:10556C00500205098E828F831258FA1259E612598D
:10557C006A1222A88E828F831258E41219C5740203
:10558C00122037E50824088004E508241CF508508F
:10559C000205098E828F83A3A312458F6056125980
:1055AC004DA3A3A3A3125A521222A88E828F83A3B7
:1055BC00A31245B11219C57402122037E508241044
:1055CC00F508500205098E828F83A3A31258F81296
:1055DC0059A21233B912596A1222A88E828F83A350
:1055EC00A3A3A31258E41219C57402122037E508BC
:1055FC0024088004E508241CF508500205091258FB
:10560C008912459760448508828509837401125A72
:10561C00621222A81258891245B91219C5740212C5
:10562C002037E5082410F50850020509750C06789A
:10563C000C1222A81258AF24101258ED1219C5746E
:10564C0002122037E50824068004E5082417F50823
:10565C00500205098E828F8312458F700302587594
:10566C008508828509837401125A621222A88E82DF
:10567C008F831245B11219C57402122037E5082424
:10568C0010F508500205098E828F831258F8780C99
:10569C00121ED9125ADA121ED9E50D850882850917
:1056AC0083125AE2121ED97410780C121DE1125A90
:1056BC00DA121ED97418780C121DE185088285093E
:1056CC0083E50C025874850882850983740A125983
:1056DC003C850882850983A3A37413125A4A125875
:1056EC00CB125A49A3125CD71259F0800D8C828DC3
:1056FC0083740E125AF58C0A8D0B751005025875B1
:10570C008C828D83740F125AF58E828F83A3A3A380
:10571C00A3A3E08A828B83125965888289831259EC
:10572C00768C828D83A3A3A3A3A3A3A3125A08A34D
:10573C00125989F8A3E0F9E8A2E0E433F50AE85439
:10574C000260047A0280027A00EA420AE854046099
:10575C00047A0480027A00EA420AE8540860047A67
:10576C000880027A00EA420AE9540160047A108047
:10577C00027A00EA420AE9540260047A2080027A32
:10578C0000EA420AE9540460047A4080027A00EA92
:10579C00420AE954086004788080027800E8450ADF
:1057AC008C828D8312591675100A0258758C828D55
:1057BC0083740C125AF5750A06780A1222A8EE2484
:1057CC0005FCE43FFD1219C57402122037EE240BC0
:1057DC001258B2850C82850D831259F075100C028B
:1057EC0058751258AF240DF510FA7B00121A9D8AC9
:1057FC000A8B0BEA450B60688A828B83740D125AF4
:10580C00A68E828F83A3A3A31259D1750C06750D96
:10581C0000780C1222A8EE2405FCE43FFDAA08AB8C
:10582C00091219C57402122037E5082406F5085030
:10583C00020509EE240B1258B21259C91259C9F5B6
:10584C000C780C1222A812592A1245B91219C574D7
:10585C0002122037741C12206D125CFE7401800839
:10586C008512828513837413F0741A12206D125CE6
:10587C00FEE510F0AA0AAB0B740202608112588D7F
:10588C0022EE240CF582E43FF58322E508240DF585
:10589C0082E43509F58322E508240CF582E4350908
:1058AC00F58322EE240CF582E43FF583E022EE240E
:1058BC0004FCE43FFDE50824041AE43509FB22123C
:1058CC0058CF221258D322E0850882850983A3A3DE
:1058DC0022A3E08C828D8322A3A3A3A3A3A3E02401
:1058EC0012FCA3E03400FDAA08AB0922A3A3A3A3D6
:1058FC00A3A312590222A3A3E0F8A3E012590C228D
:10590C00C82410F582E438F58322A3A3A3A3A3A390
:10591C00A3A3A3F08C0A8D0B22F012592A22EE2499
:10592C000DF582E43FF58322F085148285158322E0
:10593C00125ACCF022A3A3A3124EB6A3A3A3A3E0A6
:10594C002285088285098374011259592212595DE6
:10595C00221259DD8E828F832212597CE022125939
:10596C000C1259D1750C08780C2212597CA3E02228
:10597C00124EBAA3A3A3A3A3221259C322125A12E2
:10598C00A3E02212599322125AD012599A22F0856E
:10599C00128285138322125A77125959A3A3A3A3F7
:1059AC00A3221259C3780C221259BAA3E022A3A342
:1059BC00A3A3A3A3A3A3A3125A16A3A3221259D33E
:1059CC0012588DE022A3E08508828509831259DDE7
:1059DC0022F0A385820885830922125A77125AEB8A
:1059EC001233BE22F085080A85090B22E0850C8251
:1059FC00850D83F0A385820C85830D22125A121219
:105A0C005B07A3A3A322125A1622124EBFA3A3A371
:105A1C00A3A3A3A3A322125993125A42A3F0750A6B
:105A2C0006780A22125A342212599A125A42125ADF
:105A3C0049125B0CF022E08C828D83A322A3F085AB
:105A4C000E82850F8322A31233B9C8241AF582E47F
:105A5C0038F583125A771259D9750C10750D0078D8
:105A6C000C22A3A3A3A3A3A3A3A3A3E085088285CD
:105A7C000983228E828F83125A6E1259BA125CE1FC
:105A8C00A3A3A3F0EE240BF582E43FF583125A9DF9
:105A9C0022E0850C82850D83F022F0A37406125946
:105AAC00D98512828513831259D2850E82850F8374
:105ABC001259D222125ACC125A34750A06780A227A
:105ACC00125AD022F085148285158374062285081B
:105ADC0082850983E50C125AEB125902780C2212BA
:105AEC00595DA3A3A3A3A3A322125ACC125A3485A3
:105AFC000E82850F83A3125B07F022125B0CA3228C
:105B0C00125A42A3A32274F1122091EAFEEBFF8CED
:105B1C00088D09EE2405F50CE43FF50D8E828F837C
:105B2C00A385820A85830B8E828F83A3A31222C343
:105B3C00850A82850B83E0F9850C82850D83E04410
:105B4C0080FC7D04AA08AB0912197D74021220375F
:105B5C00E9F50E850A82850B83E07035E50829FA94
:105B6C00E43509FBEE2406FCE43FFD850C82850D33
:105B7C0083E014600A24F6601024F8600780121287
:105B8C000C998008120CB18003120CC9EA250EF591
:105B9C000E740F12206D125CFEE50EF0AA08AB0914
:105BAC007F0702216374EA1220918A0E8B0F8C12EC
:105BBC008D138A828B83A3E0F50A741812206DE092
:105BCC00F510A3E0F511851082F583E4F0EA2408C2
:105BDC00F50CE4350FF50D850C82F583E02409FEF8
:105BEC00A3E03400FFC3EE942DEF94004032EEFAA4
:105BFC00EFFB121A9D8A088B09EA4509600B851088
:105C0C00828511837401F0801B8512088513098528
:105C1C000C82850D83E0F8C3EE98FE750A138004A0
:105C2C008C088D09850E82850F83A3A31222C3A92C
:105C3C000A7CF07D04AA08AB0912197D74021220AB
:105C4C0037E50E2404F8E4350FF988828983125C59
:105C5C00D7A3125D0B850882850983A3A3A3A3A3F5
:105C6C00A3F0850C82850D83125CDDF0850C82859A
:105C7C000D83A3125CDDA3F0E50E2406F50E500295
:105C8C00050FF582850F83E0FCA3E0FDEC4D602A47
:105C9C00E50A701A850C82850D831222C3E508244F
:105CAC0009FAE43509FB1219C57402122037850E66
:105CBC0082850F83125CF2121A4F741612206D1229
:105CCC005CFEEEF0AA08AB09024E191258CFA3A342
:105CDC0022125CE1221258D3A3A3A3A3A322FC8E0D
:105CEC00828F83A3A3A3E0FAA3E0FB22851882850D
:105CFC001983125D0222E0F8A3E0F5838882221258
:105D0C005D10E022F088828983A32274E81220912E
:105D1C008A168B178C148D157F007E008E0A8E0BC5
:105D2C008A828B83A3E0F510741A12206D125CFE2C
:105D3C00E4F0EC2406F50CE43515F50DE5106003E4
:105D4C00025F7BEC2407F8E43515F9EA2405FCE442
:105D5C003517FD8A828B83A3A3A3A3E014700302DF
:105D6C005E02147003025E0C147003025E16147053
:105D7C0003025E20147003025E2A147003025E3A62
:105D8C00147003025E57147003025ECD147003028C
:105D9C005E64147003025E73147003025E7D1470F3
:105DAC0003025E8A147003025E94147003025EA1F7
:105DBC00147003025EB7147003025ECD14700302FC
:105DCC005ED6147003025EEE24FC7003025F1F1497
:105DDC007003025F2E147003025F4924FD700302EE
:105DEC005F5424FE7003025F54249F7003025F6CA7
:105DFC0014600D025F7BAA0CAB0D120351025F50B5
:105E0C00AA0CAB0D12035D025F50AA0CAB0D120372
:105E1C0069025F50AA0CAB0D120375025F508C081F
:105E2C008D097E01AA0CAB0D120381025EE38C0876
:105E3C008D097E06AA0CAB0D12038DEA24FAFF85A0
:105E4C000882850983A3A3A3025F458C088D09AA48
:105E5C000CAB0D120399805E8C088D097E01AA0C87
:105E6C00AB0D1203B18070AA0CAB0D1203BD025F17
:105E7C00508C088D09AA0CAB0D1203C98038AA0CE2
:105E8C00AB0D1203E7025F508C088D09AA0CAB0D09
:105E9C001203F380218C088D09AA0CAB0D1203FFA1
:105EAC00EAFF850882850983025F678C088D09AA41
:105EBC000CAB0D12040BEAFF850882850983025F87
:105ECC0066AA0CAB0D1203A5807A8C088D097E0195
:105EDC00AA0CAB0D120417EA14FF850882850983FE
:105EEC0080778C088D098C828D83A3A3A3A3A31226
:105EFC006071A3A3A3A3A3E088828983F0E5142493
:105F0C0008FAE43515FB1203DB1260661232EB7EE5
:105F1C0004805C8C088D097E04AA0CAB0D12042342
:105F2C00800D8C088D097E04AA0CAB0D12042FEA8F
:105F3C0024FCFF850882850983A3A3801BAA0CABD4
:105F4C000D12043BEAFE80278C088D097E02AA0CF8
:105F5C00AB0D12044D126066A3A3A31232EE800F98
:105F6C008C828D83126071E088828983F07E028E30
:105F7C0008EFF8E50828F8E43400F9E82406FAE418
:105F8C0039FBEA942DEB9400A2D265D03340441235
:105F9C001A9D8A0E8B0FEA450F602B741A12206D16
:105FAC0012607AEE60338E1275130078121222A8EA
:105FBC00AC0CAD0DEA2406FAE4350FFB1219C574CE
:105FCC0002122037801385140E85150F7F00751073
:105FDC0013800685140E85150FE50A450B602FEF0F
:105FEC0060258F0C750D00780C1222A8AC0AAD0B35
:105FFC00E50E2EF8E4350FF9E82406FAE439FB1225
:10600C0019C57402122037AA0AAB0B121A4F851647
:10601C0082851783A3A31222C3A910851682851724
:10602C0083A3A3A3A3E0FC7D05AA0EAB0F12197DDD
:10603C007402122037EE2FF8850E82850F83A3A3EE
:10604C00A3A3A3F0740628C0E0741812206D125C90
:10605C00FED0E0F0AA0EAB0F801EEA24FEFF8508EE
:10606C008285098322125A9D8C828D83A322125D14
:10607C00027401F0221220377F1002216374F41293
:10608C002091ECFEEDFF750800EA2404F8E43BF9DE
:10609C00E8FCE9FD8A828B83A3A882A983E07022A5
:1060AC008C828D83E0701BEA240512611712612823
:1060BC00F0EA2407126117A3A3126128A3A3F075B9
:1060CC0008048A828B83A3A31222C388828983E06B
:1060DC00F98C828D83E04480FC7D05EEFAEFFB1297
:1060EC00197D74021220378E828F83A3A3A3A3A3DE
:1060FC00E508F074062508C0E0740C12206D125CE3
:10610C00FED0E0F0EEFAEFFB02506CF508E43BF544
:10611C0009850882F583E08E828F8322A3A3A3A333
:10612C00A3A312613EE08E828F83A3A3A3A3A3A398
:10613C00A322F0850882850983A32274F71220918B
:10614C00E9FEEC8A828B83F0EDA3F0EE8A828B83DE
:10615C00A3A3F0740912206D1233BEF9E88A828B66
:10616C0083A3A3A3F0E98A828B83A3A3A3A3F079CF
:10617C00057F01022163E924FB600A24F9600E24E7
:10618C00FD6006800A7941800679428002794302DB
:10619C00011F74F2122091EAFEEBFF8C0A8D0BECBE
:1061AC002401FAE4350BFB120D17EA4B60227CFF3D
:1061BC007DFF121A558A088B09780A1222A8EEFC68
:1061CC00EFFD1219C57402122037AA08AB0980041E
:1061DC007A007B007F06022163C082C083906190AD
:1061EC007404F0A37448F0A3E4F09061807440F060
:1061FC009061BC7407F09061877469F09061B6741B
:10620C0016F07900120FBD7902120FC3902F0CE417
:10621C0093F46006E493F9120F9979051213CB02EB
:10622C00690FC082C083E9540FF9906185E0696001
:10623C0012E5C654B84441F5C6E59E544764417016
:10624C00F8E9F053C6B8E59E544770FA02690F742A
:10625C00F7122091AEA853A87E120FA5C2BA539A7A
:10626C00FEC289759B00C2C2120FAB75A91175B91C
:10627C0005120FB1D2BA439A0174805E42A8026F24
:10628C00B3C082C083906181E4F0A3801D75E900E6
:10629C0075910075BF0002011FC082C0839061819F
:1062AC00E4F0A374C0F0A3E48002F0A3F002690F41
:1062BC00C082C08374F8122021900383127EFD707B
:1062CC000302638F900383E0544060177908AA1887
:1062DC00AB19121125AA18AB19120B2B900383E0E2
:1062EC0054BFF0E054806010790C7A8F7B07121148
:1062FC0025900383E0547FF0E0A2E0500F79001268
:10630C000FBD120B31900383E054FEF0E054026099
:10631C000F7901120FBD120B31900383E054FDF085
:10632C00E05404600F7900120FC3120B37900383F3
:10633C00E054FBF0E05408600F7901120FC3120B0C
:10634C0037900383E054F7F0E05410600F79021299
:10635C000FC3120B37900383E054EFF0E05420602E
:10636C000F7903120FC3120B37900383E054DFF045
:10637C00A3E05401600D120FD5120B43900384E07F
:10638C0054FEF0740812203702690FC082C083E9F2
:10639C00600514602A804F90619A7433F0A3745591
:1063AC00F09061A0743AF0900769E064017009C242
:1063BC00919003857467802D90038574618026907D
:1063CC00619A743FF0A3745AF09061A0747FF090BE
:1063DC000769E064017009D291900385747180059E
:1063EC00900385746AF002690FC082C083E9600B68
:1063FC0014600D14601714600C8020902F10801501
:10640C00902F118010900769E064017005902F1295
:10641C008003902F13E493906186F002690FC08281
:10642C00C083906186E0FB7A00EAF874101275C1A3
:10643C00342FF583E4936B700D74F01275C13490A6
:10644C00F583E0F980090AEAC3940440DC79800200
:10645C00690F74EE12209174F4122021909106AC05
:10646C0018AD197404121F34902F1093F4600302AA
:10647C006576907808E0C39402500302655A9090B8
:10648C00E274041220877408121F347F00750CFF0D
:10649C00750DFF750EFF7E00EFFC800F74086E60AB
:1064AC006D74096E6068740A6E60638E08750900FD
:1064BC007402780812200E126580121ED9A909E503
:1064CC000AC9F8881074187808121DE1E5104508FF
:1064DC00FAE9FBEC2CF8E433F9740412206DE58234
:1064EC0028F582E58339126FDFC3E89AE99B4008EF
:1064FC00E8C39AF8E99B8006EAC398F8EB99F9C3CC
:10650C00E8950CE9950D5006880C890D8E0E0EEE53
:10651C00C39413408774FF650C700474FF650D60A1
:10652C0023850E087402780812200E126580121E44
:10653C00D9851882851983E5822CF582E43583F59B
:10654C0083E508F00FEFC3940450030264997508B7
:10655C000175090078081222A874021220877AC4E7
:10656C007B0B1218757402122037740C1220377FB3
:10657C000A02216374482508F58274783509F5837D
:10658C00780822C082C083906186E0F8902F13E4D3
:10659C0093687009902F12E493906186F09061AE2D
:1065AC007468F0A3746AF090624574FBF0A304F075
:1065BC0053F4FD43FE029007697401F09061A0E072
:1065CC00643A7004790080027901120FBD02690FE0
:1065DC00C082C083900747E06401701390074DE0C0
:1065EC00F87401686027E87006A3E06401601E90EF
:1065FC00075EE064017008900764E06401600E902F
:10660C0006F1E06401700A9006F6E06004790C80F3
:10661C0002790002690FC082C08375E1F19006F423
:10662C00E0604C14600914605014604814704F12F0
:10663C000FE79006E3E0F97AE47B061213059091DC
:10664C000A121EF7121353909176121EF7121311A1
:10665C009006F5E0F912131D79011213BF9006E1B3
:10666C001268FE7417F0A37410F0790002690F120F
:10667C000FED80BE120FF380B9120FF980B47912AE
:10668C0080EA74F412209175D90D9006EAE0A2E02C
:10669C00E4331313F8126794484401F5D97A0012C5
:1066AC00679E40FB7A00EAF874EB1275C13406124F
:1066BC0067A840F275E1959006EAE0F97AEB7B0663
:1066CC0012130B901ABD746FF0A3740F1267AE12F5
:1066DC006A1F748DF0A3740F126A329006F4E06492
:1066EC00019006E1700B12672C121ED990910E804E
:1066FC000912672C121ED99091127808121E2C9038
:10670C0091727808121E8D1267D97808121EE890C3
:10671C0006E1126A0674131268B37402F00277CEA3
:10672C001278DD78082274F712209112678AFC8C9B
:10673C00D97A0012679E40FB7A00800612682612F6
:10674C006DDAEAC39B40F51268A112679E40FB7A92
:10675C000080081275BD3407126DDAEAC39B40F352
:10676C0075E195901ABD747BF0A3740F1267AE128D
:10677C0067B874121268B37401F0FF0221639006BB
:10678C00FAE0FB74072BF5D99006E3E0C4333354DD
:10679C00C022EAF874E428F582E43406126F1894E7
:1067AC000622126B947475F0A3740F22126A25F0F2
:1067BC00A3748DF0A3740F126A361267D974FFF0AC
:1067CC00A3F0A3F0A3F09006E1126A0A229006E16E
:1067DC00126A00240EF582E438F5832274F7122035
:1067EC009112678A4402F5D97A0012679E40FB7AAF
:1067FC00008006126826126DDAEAC39B40F575E13B
:10680C0095901ABD126831F0A31268311267BB74EF
:10681C00141268B37404F0026FB3EAF874FB28F531
:10682C0082E4340622748712683E12683EF0A37428
:10683C000F22F0A3740FF0A374872274F712209127
:10684C0012678AFC74064CF5D97A0012679E40FBDD
:10685C007A008006126826126DDAEAC39B40F512A4
:10686C0068A112679E40FB7A0080081275BD340740
:10687C00126DDAEAC39B40F375E195901ABD7481F1
:10688C00F0A3740F126B8D1267B874151268B37481
:10689C0003F0026FB390071AE0FB74072BF5D97461
:1068AC00044CF5D97A0022F090038122C082C08377
:1068BC009007517425F090074F7401F0A3E4F07A1F
:1068CC0001FB12132F90073D1268FE7423F0A37482
:1068DC0010F090074EE06401701690074DE07010B8
:1068EC0079011213A112135F12139B79001213ADCD
:1068FC008011126A00241AF582E438F58322E0F93B
:10690C00122E27D083D08202011FC082C08374FA5A
:10691C00122021900746E064017008120FFF9007C7
:10692C0046E4F075E1F190073D126A002415F582FA
:10693C00E438F5837401F0900748E06401704690E8
:10694C0090F4AC18AD197406121F3475D90D90075C
:10695C003F1267974403F5D97A00EAF87440127530
:10696C00C134071267A840F27A00EAF885188285CC
:10697C001983E5821275C135831267A840EC75E165
:10698C0095790180027900121335901ABD74CDF0FF
:10699C00A37411F0A374D3F0A37411126A16126AC3
:1069AC0016126A1F126A2BF0A374D9F0A374111279
:1069BC006A3290073FE0F97A407B07121305900783
:1069CC0051E0F9122E27790112133B90910A121EF5
:1069DC00F7121353909176121EF7121311790012BD
:1069EC0013BF90073D126A0674161268B37405F053
:1069FC0004026391E0F8A3E0C822126A0A22126A28
:106A0C00002414F582E438F58322F0A374CDF0A3AE
:106A1C00741122126A25F0A322126A2922F0A3749F
:106A2C0097F0A3741122126A3622F0901ACB126AD4
:106A3C002B126B98126A2B126A29F02274F712200F
:106A4C00918908A8081278C2900756E0F97A577B0A
:106A5C0007121305900764E070257900121383EE7A
:106A6C002405FAEF3401FBEE240BF582EF3401F52B
:106A7C0083E0700479008002790112130B80057990
:106A8C000112138375E1F175D9239007561267979C
:106A9C004405F5D97A00EAF874571275C134071217
:106AAC0067A840F275D90075D90075D90075D90061
:106ABC0075D90075D9007A00126B832422126F0EDF
:106ACC0040F67A00126B832426F582E439126DDAD3
:106ADC00EAC3940340EEEE242B126F03242C126FA6
:106AEC0003242D126F03242E126F03242F126F0315
:106AFC002430126F032431126F032432126F0324DB
:106B0C0033126EF7126B83245DF582E43912703DFB
:106B1C0040F2EE2437127102541FF8EE242A12713F
:106B2C0002C43354E048F5D975E195901ABD749DB3
:106B3C00F0A37411F0A374A3F0A37411126B8DF075
:106B4C00A374A9F0A37411126A32900763E0F912CE
:106B5C002E2790910A121EF7121353909176121E43
:106B6C00F712131190600DE4F079011213BF90032A
:106B7C00817406F0026FB3EAF8EE28F8E43FF9E806
:106B8C0022126B94126A2B22126B9822126BA57430
:106B9C0097F0A37411126BA522F0A37497F0A37451
:106BAC0011F0A32274EC1220919007541278D9782A
:106BBC0010121ED9900765E0FAF875F00CA4C8AC59
:106BCC00F02CF9127A6FEE2EFEEF33FF8E0CF50DD2
:106BDC00750E00750F0085100885110985120A8540
:106BEC00130B9091127808121E2C78081222A08593
:106BFC00100885110985120A85130B7808790C1277
:106C0C001E197810790C121D72E4F50EF50F780828
:106C1C00790C121E528A0C750D007403780C12201C
:106C2C000E7808790C121E199091727808121E8D2C
:106C3C00AA08AB09AC0AAD0B122C2D740412203728
:106C4C008A088B09A808A909C3EE98EF995006E8A1
:106C5C002EF8E93FF9E890600EF0E9A3F0EEA3F00E
:106C6C00EFA3F090600D74C1F07F0C022163C08221
:106C7C00C0839006E1126CF00262B674F712209198
:106C8C009003AF127A7F74B128F8740339F9E824B1
:106C9C0005FAE439127D9CA3A3A3A3A3A3A3A3A3E6
:106CAC00ECF0A3ED127856A3E024FFF8A3E034FF38
:106CBC00F98A828B83E8F0A3E9F0026FB3C082C03B
:106CCC008390073D126CE990075102690AC082C09B
:106CDC0083900754126CE990076302690A126CF0F6
:106CEC00F0A3F022126A002406F582E438F583E45E
:106CFC002202011F74F2122091126DC9FAEE248245
:106D0C00F50AE43FF50B850A82F583E0600478040C
:106D1C0080027800E8240EF8EAC3985003026DC490
:106D2C0075080C90076FE4F0EE2476127102900750
:106D3C0070F07902EE2477FCE43FFD7A717B071248
:106D4C0011137902EE2479FCE43FFD121113790240
:106D5C00EE247BFCE43FFD1211137902EE247DFC42
:106D6C00E43FFD121113EE2474126E6A1211138596
:106D7C000A82850B83E0601E75086F750907780819
:106D8C001222A87C0C7903EEFAEFFB12118B740221
:106D9C0012203775081074012508F5D975D9037AB6
:106DAC00008003126DD7EAC3950840F775E1957919
:106DBC00041213597901800279000272C9EAFEEBC0
:106DCC00FF9061D0E0F87480C39822126DE1F583D6
:106DDC00E0F5D90A22EAF8746F28F582E434072228
:106DEC0074F21220911272CE600478048002780042
:106DFC00E8240AF8EAC3984060750A0890076F7493
:106E0C0001F079057CD57D067A707B07121113EEA3
:106E1C002480126E6A121113850882850983E06042
:106E2C001E75086F75090778081222A87C0879036B
:106E3C00EEFAEFFB12118B7402122037750A0C124A
:106E4C00721C8003126DD7EAC3950A40F775E19561
:106E5C0079041213597901800279000272C9FCE499
:106E6C003FFD8E828F83A3A3A3A3A3127F0A8C82E0
:106E7C008D83E028F0A3E039F079022274F7122018
:106E8C0091EAFEEBFF9061D0E0705B75D91875D973
:106E9C000375D9037A00126B83249B126FA740F6FB
:106EAC00EE24A3126F0324A4126EF7126B832493A7
:106EBC00126FA740F67A00126B832487126F0E4074
:106ECC00F675E1957908EE2493FAE43FFB1211195B
:106EDC007904EE2487FAE43FFB121119790412139A
:106EEC005912710D80027900026FB3F582E43FF5FF
:106EFC0083E0F5D97A0022F582E43FF583E0F5D9F9
:106F0C00EE22126F14940422F582E439F583E0F535
:106F1C00D90AEAC32274F7122091EAFEEBFF9061C2
:106F2C00D0E0707375D90E75D90375D9047A001237
:106F3C006B83248B126FA740F67A00126B83248329
:106F4C00126F0E40F675E1957908EE248BFAE43F4A
:106F5C00FB1211197904EE2483FAE43FFB12111988
:106F6C007C00ECF8C3E498FA95E0FBEE2AFAEF3BD0
:106F7C00FBEA248AF582E43BF583E0C0E0126B85E2
:106F8C0024AAF582E439F583D0E0F00CECC3940824
:106F9C0040D012710D80027900800C126F1494088D
:106FAC0022A2E092AF79007F01022163C082C083EC
:106FBC0075D90275D90375D90575E195EA246FF574
:106FCC0082E43B126FDFEA2471F582E43B127120FC
:106FDC0002690FF583127F0A2274F6122091EAFEE1
:106FEC00EBFF90076F74061270801222A87C017957
:106FFC000312118B740212203775D90675D9037AD6
:10700C000012703A40FB75E195900381E0640870C2
:10701C0018EE246FF582E43F126FDFEE2471F582D7
:10702C00E43FF583E8F0A3E9F07901027374126D83
:10703C00E1126F1894052274F6122091EAFEEBFF10
:10704C009061D0E0702990076F740A127080122240
:10705C00A87C01790312118B740212203775D906A2
:10706C0075D9037A0012703A40FB12710A800279CA
:10707C0000027374F075086F75090778082274F6AE
:10708C00122091EAFEEBFF9061D0E0703C7A019007
:10709C00076F740B1268B3E06407701B75086F758B
:1070AC00090778081222A87C017903EEFA12118BD9
:1070BC0074021220377A051273798003127384EBF1
:1070CC00C39A40F812710A8002790002737474F743
:1070DC00122091EAFEEBFF75D90375D90375D90D12
:1070EC00EE24DD127102F5D975E19579041213596C
:1070FC0012710D026FB3F582E43FF583E02275E166
:10710C0095EE246FF582E43FF583127F0AEE24712D
:10711C00F582E43FF583E8F0A3E9F079012274F5F8
:10712C001220911272346004780480027800E824F2
:10713C000BF8EAC3984052750A0990076F7408F06F
:10714C00F9127210121113850882850983E0601EF2
:10715C0075086F75090778081222A87C097903EE67
:10716C00FAEFFB12118B7402122037750A0D127292
:10717C001C8003126DD7EAC3950A40F775E1957927
:10718C000412135912710D800279007F03022163DE
:10719C0074F5122091127234600478048002780025
:1071AC00E8240BF8EAC3984057750A0990076F74E6
:1071BC0009F079081272101211138508828509835F
:1071CC00E0601E75086F75090778081222A87C0903
:1071DC007903EEFAEFFB12118B7402122037750A49
:1071EC000D12721C8003126DD7EAC3950A40F77515
:1071FC00E1957904121359127228A3F079018002D7
:10720C0079008087EE24E4FCE43FFD7A707B072252
:10721C007401250AF5D975D9037A0022EE241DF5DF
:10722C0082E43FF583E4F0221272DEF8E43FF98841
:10723C000889098882F583E02274F2122091127277
:10724C00CE6004780480027800E82408F8EAC39839
:10725C004069750A0690076F740CF090039EE090DD
:10726C000770F079027C9F7D037A717B07121113F2
:10727C0079027CA17D03121113850882850983E0B4
:10728C00601E75086F75090778081222A87C0679AC
:10729C0003EEFAEFFB12118B7402122037750A0AF7
:1072AC0012721C8003126DD7EAC3950A40F775E180
:1072BC0095790412135912710D800279007F060220
:1072CC0021631272DEF508E43FF509850882F58327
:1072DC00E022EAFEEBFF9061D0E0F87480C398FAEC
:1072EC00EE24822274F6122091126DC9FCEE2482D7
:1072FC00F8E43FF988828983E060047A0480027A9A
:10730C0000EA2404FAECC39A405C7A0290076FEA14
:10731C00F0EE24F6F582E43F127400601B75086FE2
:10732C0075090778081222A87C027903EEFA12116B
:10733C008B74021220377A061273798003127384CD
:10734C00EBC39A40F875E195EE247312722BEE2480
:10735C007F12722B127228A3F07904121359EE24A7
:10736C000D127110800279007F0202216374012AD0
:10737C00F5D975D9037B0022EB126DE2F583E0F5AC
:10738C00D90B2274F6122091126DCDFEEA2482F8EC
:10739C00E43BF988828983E060047C0480027C00F1
:1073AC00EC2404FCEEC39C40467C0290076F7407EF
:1073BC00F0EA24F7F582E43B127400601775086F4D
:1073CC0075090778081222A8790312118B7402121E
:1073DC0020377C0674012CF5D975D9037A0080030B
:1073EC00126DD7EAC39C40F875E19579018002795A
:1073FC0000027374F583E0900770F088828983E053
:10740C002274F71220918908A2AFE433FFC2AF7E39
:10741C000012749F80010E8C828D83E0F8EEC3986D
:10742C00500CEEF812744DE0650870EA800B127483
:10743C004DE508127F10E004F0EFA2E092AF026F6E
:10744C00B31274B0127B842274F7122091A2AFE4B1
:10745C0033FFC2AF12749F8C828D83E014F07E00D8
:10746C008016EE1274AB246BF582E439F583E0C020
:10747C00E0127B7FD0E0F00E8C828D83E0F8EEC3BF
:10748C009840DFEA246DF582E43BF58374FF1274B7
:10749C00D680A6EA246EF8E43BF9E8FCE9FD22F874
:1074AC001274B022EA28F8E43BF9E822C082C083C7
:1074BC00A8A8C2AFEA12778DE91274D6E8A2E7E465
:1074CC0033FAE8A2E792AF02690FF0EA246912746A
:1074DC00DE22F582E43BF583E4F02274F212209173
:1074EC008C828D83A3A3A3A3E0541FF0EA2436124D
:1074FC007C468E828F83E4F0750C00A80CEC28F58A
:10750C0008E43DF509850882F583E0C0E01277A612
:10751C00D0E0F0750D00850882850983E0F50A75C9
:10752C000B00E50D780A121FEFE50AA2E05025E5E5
:10753C000C33333354F8250DC0E08E828F83E01268
:10754C0074AB2438F582E439F583D0E0F08E828F69
:10755C0083E004F0050DE50DC3940840B9050CE576
:10756C000CC3940540950272C974F71220917E00E9
:10757C007D008A828B83A3A3A3A3E0541FF07C001D
:10758C00ECF8EA1275C13BF583E0F860010DEDC330
:10759C0094025014E86001FE0CECC3940540E1ED3C
:1075AC00600A74FF2E5E6004790180027900026F1C
:1075BC00B3EAF8741B28F582E42274F4122091903B
:1075CC0003ADE0640370030277877C00ECF875F080
:1075DC000CA4C8AAF02A127848E0600302777DE870
:1075EC002404FAE439FB8A828B83A3A37401127EF0
:1075FC00A9A3A3A3E4F0EA2404127C46EC8E828FA8
:10760C0083F0127E487401F0EA2467F582E43BF5BE
:10761C008374011277B2E4F0A31277B2A3A31277AA
:10762C00C4240FF582E43BF5837401F0EA2435128F
:10763C0074DEF508F509F50AF50BEA2418F582E471
:10764C003BF5837808121EE8EA241C127796241D59
:10765C001277BD247F12779624731277962468F5DF
:10766C0082E43BF58374801274D6EA246E1277960A
:10767C0024EC12779624ED12779624EE127796244A
:10768C00EF12779624F01277BD24F21277BD24F511
:10769C001274DE127E52E4F0EA24D212779624D3CE
:1076AC0012779624D4F582E43BF5837808121EE811
:1076BC00EA24D8F582E43BF5837808121EE8EA2424
:1076CC00DE12779624E012779624DC12779624E16A
:1076DC0012779624E212779624F81277BD24FA12C8
:1076EC0077BD24FC1277BD24FE1277BD240B1277D4
:1076FC009B240512779B240612779B240712779BF9
:10770C00240812779B240912779B240A12779B1268
:10771C00778D74FF7804F0A3D8FC7C00ECF874D55A
:10772C001275C13406F583E0C0E01277A6D0E0F004
:10773C000CECC3940540E57C00ECF874951275C113
:10774C003403F583E0C0E01274AC24E4F582E43930
:10775C00F583D0E0F00CECC3940840DD9003ADE071
:10776C0004F0640170198E828F83E09003AFF08077
:10777C000E0CECC3940350030275D87A007B008086
:10778C0041246AF582E43BF583221274DEEA22F589
:10779C0082EB3401F583E4F0EA221274B0245DF537
:1077AC0082E439F58322F08A828B83A3A3A3A3A35B
:1077BC0022F582E43BF583E4F0A3F0EA2274041290
:1077CC0020377F04022163C082C083EA2403F58240
:1077DC00E43BF583E06008E4F09003AEE014F09035
:1077EC0003ADE014F070069003AF74FFF08A828B47
:1077FC0083A3A3E4F09006DAE0700D9003AEE0648E
:10780C00017005790012132302690FC082C0837ABC
:10781C0000EAF875F00CA4C8ABF02B127848A3E47E
:10782C00127856F00AEAC3940340E69003ADE4F0F4
:10783C00A3F0A374FFF075E1F102690FF974AD28A0
:10784C00F87403127B75A3A3A322F088828983A307
:10785C00A3A3A3A3A32274F51220917508007509A4
:10786C0000750A00A80A1278C28E828F83A3A3A384
:10787C00E0602BE5084509601D85088285098312A7
:10788C0078D91222BB1278D5121EF7122BD17404A0
:10789C00122037E97008EEF8EFF988088909050A13
:1078AC00E50AC3940340BD850882850983A3A3A37D
:1078BC00A3E0F9027197E875F00CA4C8AAF02AF9B4
:1078CC0074B128FE740339FF228E828F831278DD07
:1078DC0022E0F8A3E0F5838882A3A32274F7122098
:1078EC009178FF79FF7E00EEFC75F00CA4CCAFF024
:1078FC002FFD74B12CFC74033DFD8C828D83A3A3EE
:10790C00A3E06040EC2473F582E43DF583E0FF7462
:10791C00FF68700374FF69700774016F701C800D31
:10792C0074016F700DEC24791279655017EC247981
:10793C00800BEC242E127965500AEC242EF582E48F
:10794C003D126FDF0EEEC39403409CC3EA98EB9993
:10795C004004E8FAE9FB026FB3F582E43DF583C31A
:10796C00E098A3E0992274F01220918C088D09897B
:10797C000EEA2AF50AEB33850A0CF50D9003AEE0FE
:10798C00F8E9C39850117AFF7BFF1210BF8A0A8B5B
:10799C000BAE0AAF0B8010E96009A3127A7F127A42
:1079AC006F8004AE0CAF0D9003AEE0F50F8E0A8F16
:1079BC000B7403780A121FFFA80FC3E50A98E50B96
:1079CC0094005003027A5B850C0A850D0BE50825A3
:1079DC00E0F508E50933F509AC0AAD0B8007EC249A
:1079EC0002FCE43DFDC3E5089CE5099D404FC3EC5A
:1079FC009EED9F402FECF8EDF9EEFAEFFB121F967F
:107A0C008A0C8B0DA80CA90DE8496006EEFAEFFB69
:107A1C0080047A007B00EC98F8ED99F9E82AFCE9EF
:107A2C003BFD8019E50EC3950F5012EEF8EFF9EC03
:107A3C00FAEDFB121F968B0DEA450D70A1C3EC9568
:107A4C000AED950B4009C3E5089CE5099D50067AA3
:107A5C00FF7BFF8009ECFAEDC313FBEA13FA7F08F6
:107A6C0002216374DF28F582740339F583E0FEA3E9
:107A7C00E0FF22E0F875F00CA4C8AAF02AF92274F1
:107A8C00F412209174FC122021EAFEEBFFEE246329
:107A9C00F508E43FF5098016AA08AB091211071284
:107AAC001A4F9006DBE004F09006DCE004F0850849
:107ABC0082850983127EFD70DF9006DCE060358ED6
:107ACC00828F83A3A3A3A3E0851882851983F0A3D7
:107ADC00E4F09006DCE0F8740212206DE8F0A3E408
:107AEC00F07402122087AA18AB197901120BB59009
:107AFC0006DCE4F0EEFAEFFB1210ADEEFAEFFB123F
:107B0C0012150277C974F7122091EAFEEBFF8E82F0
:107B1C008F83A3A3A3A3E0FA7B00120B7FEEFAEFF3
:107B2C00FB1210CB1211F7026FB3C082C0837A0024
:107B3C00EAF875F00CA4C8ABF02BF974B128F87402
:107B4C0003127B75E06016E8246EF582E439F58348
:107B5C00E0600A127B7FE07004790180090AEAC3B5
:107B6C00940340CC790002690F39F988828983A388
:107B7C00A3A322E8127B8422246AF582E439F583DC
:107B8C0022C082C083E49003957808F0A3D8FC90BF
:107B9C000395040262B874F712209174FC12202130
:107BAC00851882851983E4F0A3F0A3F0A3F01211D9
:107BBC001FE9851882851983F012111F7401122098
:107BCC006DE9F012111F740212206DE9F085188214
:107BDC00851983121EF77404122037026FB374F6E2
:107BEC00122091EA240D127C46EC2403F8E43DF9B2
:107BFC0088088909EC2407F8E43DF9E8FCE9FD8CD8
:107C0C00828D83126FE1850882850983E0FAA3E0F7
:107C1C00FB121F968E828F83E8F0A3E9127F0385F7
:107C2C000882850983E0FAA3E0FB121F968B09EA10
:107C3C0045096003127C4F027374F8E43BF9E8FECB
:107C4C00E9FF228E828F83E02401F0A3E03400F060
:107C5C002274F6122091EA242EF582E43BF583E09F
:107C6C00FCA3E0FDEA246F127C46780079FAECFA6A
:107C7C00EDFB121F968E828F83E8F0A3E9F078005B
:107C8C0079FAECFAEDFB121F968B09EA45096003B1
:107C9C00127C4F02737474F4122091EAFEEBFF1203
:107CAC0012D58A088B098C0A8D0B909116780812C4
:107CBC001E2C9091727808121E8D78081222A01238
:107CCC0078D5121EF7122BD17404122037E96003F9
:107CDC00027D8E8E828F83E02402F8A3E03400F9BB
:107CEC00E8FAE9FB740C12206D7808121ED98A820E
:107CFC008B837808121E3F9091727808121ED98AD5
:107D0C00828B837808121EA0EE240BF582E43FF5DB
:107D1C0083C082C0838E828F83A3A3A3A3A3E024FA
:107D2C0001F8A3E03400F9D083D082E0687003A39B
:107D3C00E06970047901804CEE2407F8E43FF9887F
:107D4C00828983127C53EE247312710264017014C5
:107D5C00EE2474127D937003A3E06D70078A828BFE
:107D6C0083127C53EE247F12710264017014EE2492
:107D7C0080127D937003A3E06D70078A828B83124F
:107D8C007C5379000277CEFAE43F127D9CE06C22A2
:107D9C00FB8A828B83E0FCA3E0FD888289832274BA
:107DAC00F4122091E9FEECFF127E48E064016003BE
:107DBC00027E439061D0E0F8127E52E0F508600537
:107DCC00750A048003750A007480C398FC95E0FD65
:107DDC00EF250AF8E43400F9E82402F8500109C34D
:107DEC00EC98ED99A2D265D0334048740C12206DFA
:107DFC00E0F50AA3E0F50BE5086015780A1222A855
:107E0C00EFFCEEF912118B740212203774042FFF61
:107E1C0074012FF5D98ED97A00800CEAF8E50A1294
:107E2C0075C1350B126DDAEAC39F40EF75E1957998
:107E3C000080067907800279FF0277CEEA2462F58A
:107E4C0082E43BF58322EA2482F582E43BF583222B
:107E5C0074F7122091A2AFE433F508C2AFEA240202
:107E6C00F8E43BF98A828B83E0FEA3E0FFEE4F60DF
:107E7C000E88828983E0FAA3E0F5838A8280048AE3
:107E8C00828B83ECF0A3EDF088828983127EAFF0B5
:107E9C00E508026FAD8C828D83E8F0A3E9F08A824D
:107EAC008B8322ECF0A3ED127F10E4F0A32274F785
:107EBC00122091EAFCEBFD7A007B00A2AFE433FECA
:107ECC00C2AF8C828D83127EFD6022E8FAE9FB8AB8
:107EDC00828B83126FE1127EA1E4F0A3127F03E880
:107EEC0049700A8C828D83A3A3E4F0A3F0EE027494
:107EFC0046127F0AE84922127F10127F0A22E0F80C
:107F0C00A3E0F922F08C828D8322C082C08380038F
:107F1C00127F44E9F874FF28F90470F4ECFAEDFBD5
:107F2C0002690FC082C0838003127F44E9F874FF9A
:107F3C0028F90470F402690F8C828D83E08A828B9D
:107F4C0083127F10A3AC82AD838A828B83A3AA8217
:107F5C00AB8322C082C08374E312202185188285F2
:107F6C0019837401F012206D7404F0740212206DE8
:107F7C007401F0740312206D7430F0A3E4F0740AF1
:107F8C0012206D7480F0A3E4F0741212206D7480D2
:107F9C00F0A3E4F0740512206D7406F07416122030
:107FAC006D7401F0741B12206DEAF0A3EBF0AA18AB
:107FBC00AB197900121905741D1220378014C08278
:107FCC00C083790012190B8009C082C0837900121A
:107FDC001911D083D08202011FC082C08379001294
:107FEC00191D80EE7A807B0002011F02011F020125
:017FFC001F65
:10800000033F0000030004280D9808900790019496
:10801000011B0195111B08F00939821F0EA4FECD2A
:1080200082210622FB381818162118F0EF3818F2B2
:10803000ED3828F2EB3868F003392A1FE73F08F0E3
:108040000428C33868F0393C08F1053C88F1173C36
:10805000A8F10E3CE09F2C1F0128104A291FD63F93
:1080600015D0033827D0093800900428A83F0128EC
:10807000154101980128014A25D01F38041F831F8C
:108080000EA4FECD042205381421202807A0083FA5
:108090000628711527D0E939202807D0F238832126
:1080A00078F10238042188F1083D0628A14001F04A
:1080B00004288D38042807A00528561528F1163CF9
:1080C00068F1143D77CF1240599202D80F3912D07F
:1080D0000739699222D00439799242D004380528B0
:1080E000F8151E3FC09F0428753F08F1233C88F116
:1080F000203D094028F1103D4540F7C759F2083DA1
:108100009303131183E1B9F00F3C23E00D3F09D82D
:10811000EA38F9C30B3F68F1033D59F2F23C09D844
:10812000F9390528C6150528F91501900128214AB5
:10813000051F48F00C3C08F10A3868F1033C98F13F
:1081400006390C96062802150228843F47A00C9693
:108150000528FC15531F0528EC1507288CED05286C
:10816000F51501280195711B01280CE40528EE1571
:10817000511F88F10B3808F1073868F109390128D7
:10818000214201F00B3947D009383521063F28F14B
:10819000033838F10339351F341F04280CE047D069
:1081A000033903280CE80528D115571F28F0063895
:1081B000561F811F021F38F0063930215B900528B9
:1081C0004415FD3F88F1033D0528001505288A1553
:1081D00047D0133808F10F392C470CF00C38C40382
:1081E000B4125C110C3E04F00A38C103802801A0CF
:1081F000411B063F3021043F07284CED4C1B5B9090
:1082000047D0173827D00328F1390EA4FECD02221B
:108210000D39002208381021002914E00328E63C1B
:108220004C1BF13F0528A715EE3F46181221033FCE
:1082300005280B1588F1303905281A150128FB414E
:10824000302100291BE00A3D0428FF1505281015E0
:10825000F6C35192166A3B906B080428F615052860
:1082600007150BF0FB3917D004382D1F0128C43F28
:108270000328214701F008390328314701F0043968
:10828000A2958090033FC29500920328BF15201B42
:1082900054900128B33F08F10539052111900128B8
:1082A000214A38F103390021023F302110216A03AD
:1082B0000428CB156B033141224128F1093D02F01E
:1082C0000239F29101F00B39FF28F191083F02F0D9
:1082D0000239529201F00339FF28F193F7CB1B06C4
:1082E000023907A4B20C073D47D003287738249001
:1082F00003287E3F1690B6080428BA15A603042862
:10830000B7153BE0F7CE28F1703C012807A0F090AC
:10831000A00668F1323D149030F0053938F1032899
:108320006738073F50F00328633958F10328603855
:1083300038F104380328B415033F032892150328A5
:108340007E15012807D0033907A1563F424130F07E
:108350000C3907A112D0033807D84E3887A0C14086
:1083600041D04A38F7CE483F38F1033822D044385C
:1083700007D8423907A1403F78F1123847D02D384D
:1083800000F0033860F00639C14011D0073887A0EB
:10839000113F10F0033820F0AB3977CF0B3F00F0DE
:1083A000033810F0A539414181D00439032859150B
:1083B000093F0328751568F10539414141D002395B
:1083C00007B810F0063903283A15012807D00338FA
:1083D00007D8123907A1103F40F0032805390328B8
:1083E0001D1507D8F838083FA10383403112310525
:1083F00011D0023907A14BF0063C042826150428A9
:108400003715FA3F042821151BF0FD3D38F10338DC
:108410000328AA15F7CD0328214701F005390328C1
:10842000314701F0033807A2F7CE224082D00A3844
:10843000060304281D1506937606261196040428C3
:10844000171571034112002871C021070438E7CFC6
:108450004198043F17D0043951980728214817D074
:108460000538F295202800901D3F07D20438C295A8
:108470000092183F07D10438D2950094133F07D4D7
:108480000438E29500980E3F809028F10A3D319023
:10849000A10631F0063903A4B2950228B31500A154
:1084A000A2950228AF15201B28F1633D08F10A3977
:1084B000012807D00739072851411128C14A01284E
:1084C00007A017D20539E3CF8AD0023813A007D20C
:1084D0000539B3CF4AD0023843A083D01E393103C7
:1084E0001112310521D00739319907282148002977
:1084F00015E0133F529502288515454003D10D39EB
:10850000429502287F15281F21990728214803D268
:10851000043862950228761573CF834808F109392B
:1085200077CF17D0063907D203390AD1023887A08E
:10853000349007D2073807D803383090543F07A843
:10854000023FF7C718F15A3927D04C39314011D0C2
:10855000493987D0073917D0453907D203390AD1AD
:10856000413805F04B39414001F0483850903B3FCD
:1085700068F1153878F13938149017D03D3907D2A1
:108580003D3987D003383490393F07D137391190BE
:108590000128214A409003287715253F47D01C38F1
:1085A000249007D30C3911900128214A87D008382C
:1085B0005144002911E0043A514C023877CF17D0CA
:1085C0001B3987D003383490193F07D31739C1407E
:1085D00021D01438073F17D00F3907D30338309014
:1085E000023F009044900A3F249017D0053907D3EA
:1085F00005393490033FA09F44900221C190511B44
:108600008121342124F0083927D004390C9CFD2B1A
:10861000AE3F10904490B7CF34F00E395321032869
:10862000E195711B541F0F28CC9506282141F1C0FC
:1086300081111C09143F0190511B0728F19F711BE8
:10864000802114F001288F3854F0FD2B0A380128BE
:10865000B63F541F03286D151028CCED032876155E
:1086600076217821501F0128A29A217001B2218021
:1086700001B221802CE30328691574210128ACE4A0
:1086800008F1073C88F1033D0228A01503282A15AC
:10869000011F0128349D03285915201F002168F06F
:1086A000093D069058F003390728364102289C15E9
:1086B000FA3F0728504078F10439331F321F042154
:1086C000500000DC0128853828F1103D8340F7CBAD
:1086D00031031112310521D0033903D1033900D8F8
:1086E000103807A41B901A90163F00D80128713942
:1086F00098F107394B700128E2412B0800288E3F82
:10870000102807A04B701BF0FC2BED3C4A70224157
:1087100028F1303D02F00239F29112E0B20CFC2B4C
:10872000E23C419031061111FF2BE29F32045200CE
:1087300022111A042A043240002862C018F10339B9
:1087400027D00D3922F0093907280141B109002944
:1087500021E0093A0AA1073F42F00339FACE033F6C
:1087600062F0F93818F1253977CF0AD1223887A07D
:10877000203F02F00239529212E0B20CFC2BB33CC3
:1087800068F1123D38F1153887D01339012831428C
:1087900001F00F38402807A00728914231C0C1A03E
:1087A0000728914A063F02280190710621121A04F7
:1087B000FF2BF29FB2084BE0A603022815152603F3
:1087C0000228121568F1293CFBF0273C62904670A4
:1087D00002280A15D2370428609662904670062D4A
:1087E00002280215C23778F11839D04000D8153860
:1087F000DBF0133C829046700128F615D2377644A0
:1088000000D40338060E023F060D41700128EC1516
:10881000417086120128E8153290B20C053D467071
:108820000128E215FB3F08F1063941721128C14ABF
:10883000012807A0EF28F7CF28F11E3D8340309094
:10884000A00631031112310521D003398295043F6E
:1088500030F0043972950028D51553C843D002383A
:1088600023A007D4023803A130F0023903A28348C1
:1088700092950028C71506900BF005380128B4150D
:10888000591FFB3F0EA4FECD0122043902287315A7
:10889000FA3F551F1121031F249008F10F390AD107
:1088A000033987D02438314011D0213905F02139DE
:1088B000414001F01E3850901B3F48F1073828F125
:1088C000033858F1063987D0143877CF1490113F08
:1088D00078F1053911900128214A093F98F10939A9
:1088E000829500289315281F5490033F00904490D0
:1088F0000EA4FECD0322043902283D15FA3F1321B0
:108900002C1801210321741FD1900000F13724F0AD
:10891000093800000190511B0728F19F711B80212D
:10892000063F4190511B0328E195711B3221072816
:10893000914231C00728914ABF28F7CF28F1063C61
:1089400088F1043D92955E15281F44F0383814F0E4
:108950000A3854F0FB2B853801280CE40128F61561
:10896000FB2BF93F01289015009027D0283902D819
:10897000083838F12439329001289215E237193F2E
:1089800019E089F2043C38F11A39599238F1033967
:108990000128861512409103002951E2120E12D0CF
:1089A000F038012886150128B915124001289115C3
:1089B0003199072821482C18FE2B4C3F0128104ADA
:1089C0000028A915FB2B223FF09F043FD09F023FB8
:1089D000B09F0028D0152C1FF23F28F1053C68F10C
:1089E000033D1490053F2090023F10904490419821
:1089F0000728214838F1FE2B01380028B515FD2B3A
:108A0000FD3F217011E0218002000128214107284B
:108A10002148217811E021880200F7C776157103FB
:108A20003112A10501D4023907A804286496311532
:108A30000238F7C70428C4F6FB3C0200FE28F7CF33
:108A4000641551417111A10501D80339012807A00E
:108A500064911F150338FE28F7CFC4F1FB3C0200D8
:108A6000F7C753155141022807A00AD40339FD283E
:108A7000F7CF5111A10501D4023907A8C4910428E8
:108A8000659607150238F7C7563124F2FB3C020001
:108A90000028DB150028EC15412D160C0200F7C745
:108AA0003415D032D332234268F109394141904024
:108AB00041D0043850000306023F0303314202282C
:108AC00007A00AD404395100FD28F7CF13064492B9
:108AD000042865960028B9150028CA155631FF28C4
:108AE000E19F4070060C023813068EA0810064E0FE
:108AF00044F5F83C0029F4E2A4F2ED3C03F002381E
:108B000007A8D32FD02F02009BF0023C020007A140
:108B10002DE0020098F10938102807D0033908F138
:108B2000043831990728214808F10C39012807D069
:108B30000938072851411128C042010C0338072881
:108B400050491190082807D005380628B148F72861
:108B5000F7CF042807D005380628A148FB28F7CF0F
:108B60003021291F0200311FFF28F19F411B301FB8
:108B70003121020002210121032153230938062853
:108B8000D14001D112384198072821480B3F542386
:108B90000C385021F1910000F137741FF190000062
:108BA000F13768F0023C2B1F0190511B81210728EF
:108BB000F19F711B80210728914231C00728914AFB
:108BC000BF28F7CF322134210200082807D0073907
:108BD0000628B14001F00438082807A00200042844
:108BE0000D98FE2BF43F402807D00D390EA4FECD82
:108BF000012204390028BF15FA3F661B1121002904
:108C00001BE002000728A64A0EA4FECD012204396B
:108C10000028B115FA3F01283142B10941E0053A77
:108C200008384BF00C38EA3D0728A142611BE73FAA
:108C30000728914271CF0728914AF73F07289142B0
:108C400081A20728914ADA3F0EA4FECD0222043900
:108C500000289115FA3F4618122100291BE01BF04D
:108C60000639581F0628E0400128004A020017D0A4
:108C70000A393122063817A0419807282148033FB6
:108C80000728A6480200124038F1093802D80739EF
:108C90009103002941E2120E120D1248020047A072
:108CA0007B280C9C10215215FF2B5E15B7CF0200BC
:108CB00059F203396391083F69F20339E392043FA3
:108CC00079F203394396020004280D98FA2B0B3FE2
:108CD00002D407389103002901E211700628614887
:108CE000020088F10A3C012831410728814AB14637
:108CF0000328314FA1460F3F0728894A28F1063D36
:108D000031440328314F5140053F552851950328E0
:108D1000314F81110328214F0200E3F3033CF1900E
:108D2000033F23E051920628614A06284348020087
:108D30007B21772141900000F137702175217A2144
:108D40008CEE0415521F801F02004C1B001F47D0E1
:108D5000033827D009390EA4FECD002203390B15A4
:108D6000F73F1021020004280D9838F1FE2B273818
:108D7000FE2B3C3FD23202180119210601D41A38C9
:108D80001218162162F003392A1F2D3F12F21538EE
:108D900022F22838FE2BEF1568F0063C619001287E
:108DA000114AFE2BB8153021280304280D98F92B01
:108DB0002E3F01D114381421202807D00D3878F126
:108DC000123904231038714401F00239814400291A
:108DD00011E0714C083F202807A0053F01D205385B
:108DE000152127A0D22F020011D006381021042807
:108DF0000D98FD2BF33FF2CE5200121BF43F0604F8
:108E00004D161D045316010C5916630C5F16030C06
:108E100065162D0C6B16310C7116330C7716350C4C
:108E20007D167B0C83167C0C891601108F160210A0
:108E3000951603109B160910EB170514A1160120B7
:108E4000A7160220AD160320B3160520B91606207A
:108E5000BF160820C5160920CB160A20D1160720F8
:108E6000D7160B20DD160C20E3160D20E9160E2078
:108E7000EF160F20F5161020FB16112001171220F7
:108E8000071713200D171420131715201917162074
:108E90001F171720251718202B17192031171A20F4
:108EA00037171B203D171C2043171D2049171E2074
:108EB0004F171F20551720205B172120611700FC3A
:108EC000671701FC6D1716FC731719FC791702FC64
:108ED000A91703FCAF1704FCB51705FCBB1706FC6C
:108EE000C11707FCC7171AFCCD1708FCF11709FCBE
:108EF000F7170AFCFD170BFC03180CFC09180DFCF6
:108F0000D31711FC7F1712FC85170FFC0F1810FCEC
:108F1000151813FC8B1714FC91171EFC97171FFCD8
:108F20009D1720FCA3171BFCD9171CFCDF171DFC89
:108F3000E517FFFF0000002000800000C0000000D7
:108F400000E40000002822000000000000040000EF
:108F5000F7FFFF7F0000000000000000000000009D
:108F60000000000000000000000000000000000001
:108F700000000000000000630349087B034F0893D2
:108F8000035508AB035B08C3036108ED03610805E3
:108F9000046708AB036D08D50373080000000029BF
:108FA00004730841047908FFC1FBE84C90728BE719
:108FB000B3518963AB232302841872AA612F3B51FA
:108FC000A8E53749FBC9CA0C18532CFD24035400EB
:108FD00049002000430043003200350034003000D7
:108FE000200055005300420020004300440043008D
:108FF00024035400650078006100730020004900DC
:109000006E0073007400720075006D0065006E00E4
:109010007400730000000000000000000000000069
:109020000000000000000000000000000000000040
:10903000000000000101020102010102010203031C
:1090400004010301010101010303020103710D6326
:10905000181716671A510CA5067B15C108090929AE
:1090600019546578617320496E737472756D656EFD
:10907000747300FB349B5F800000800010000000D0
:10908000000000F401FA00960064004B0032001E5C
:1090900000140000000000000000000000000000BC
:1090A0000000872020486F7374546573744170709A
:1090B000002020544920424C4576312E3400202097
:1090C00020202020416C6C00000000000000000007
:1090D00000000000000000000000052A0000000061
:1090E000001B7869E0AB50C3F0D200000000000024
:1090F000E9FA0004000000000000E106E7060000B5
:109100000000810900000595D5F5D6BE898E0008BE
:109110000000040000000200000000FFFFFF2941E2
:10912000767150000000F1FFFFFFF8FFFFFF0B001A
:1091300000000300000007000000F6FFFFFF01C869
:10914000000060EA0000A00000007102000030751D
:1091500000001000000004030904E803000040427E
:109160000F000000100001000000FFFFFFFF1A00C9
:109170000000FFFFFF00555555000500000064008A
:1091800000000A000000E7FFFFFF029E9102A2918B
:10919000012A002A0229042A02280128002801188D
:1091A000032A00180328022A0A74F4122091E99075
:1091B0000380F01212E7907800E0C4540F54076463
:1091C000037004793F8002797F750806750900787D
:1091D000081222A87C6E7D037AEA7B0712186F744E
:1091E0000212203790036EE0F47049A3E0F470445B
:1091F000A3E0F4703FA3E0F4703AA3E0F47035A369
:10920000E0F4703090780EE090036EF090780FE00C
:1092100090036FF0907810E0900370F0907811E078
:10922000900371F0907812E0900372F0907813E060
:10923000900373F090037412939012B8B090039E51
:109240007406F0A3740D12A10B7441F0A37401F025
:109250009006E41293909006E3E4F09006F1F0A3F8
:1092600074A012A10B7403F0A3740712A10B74284D
:1092700012A10B04F0A3E4F090071AF0900740123B
:10928000939090073FE4F09007460412A10B1293CD
:109290007EE4F0A304F0A312A10B12A109F0900741
:1092A00057129390900756E4F090075D04F0A3E402
:1092B00012937E12A109F0A37405F090076774FF62
:1092C000F0A3E4F0900769F090076B04F090076C4E
:1092D0007490F0A37401F0120FCF120D8312128D4F
:1092E00079017A6E7B0712112590076EE075F014F4
:1092F00084E5F004F0790C7A8F7B071211251211A6
:10930000497A00900380E0F9121AB5907803E0647E
:1093100042705690076EE014F0704EC2AF12932068
:10932000007831D0E0F618D0E0F6E59F5407F870E9
:10933000057509FF800375097FC4C0E07830E6F544
:109340000808E65509F509740B7808121FFFD0E0EC
:109350002508F8906270E0A2E740F8E8C333906215
:1093600072F0906270E0D2E0F09003ABE4F0A3F012
:109370007A80FB900380E0F9121A1F0299881293F9
:1093800087129387F0A322F0A37480F0A3740222C3
:10939000129397F0A3F02274FFF0A3F0A3F0A3F0D0
:1093A000A32274F4122091EAFEEBFFEEA2E05040FB
:1093B000900382E0C39480E0500F25E0F8E433F995
:1093C00074BD28F582741A800EF425E0F8E433F9B0
:1093D00074CB28F582741A39F58312A88212208F73
:1093E0007A00900380E0F9121AB5EE640102962F1C
:1093F0005408605690076512967675080078081232
:1094000022AC12964F121FFF78081222A81296481B
:109410003BF5831222C31296601222A812963B12C9
:1094200022A8EA240BF582EB12BEA4FD7C008A82FE
:109430008B83A3A3A3A3E0FA7B007900120B7974BA
:1094400009122037EE640802962FEE54106037752B
:10945000080078081222ACE4F50978081222A878EE
:10946000081222A878081222A878081222A87D00E3
:109470007C007A007B007902120B79740912203784
:10948000EE641002962FEE540260377508007808DB
:109490001222ACE4F50978081222A878081222A852
:1094A00078081222A878081222A87D007C017A0090
:1094B0007B00793C120B797409122037EE640202AA
:1094C000962FEE5404605E9003AF129676EA242A3B
:1094D000129B2FF50878081222AC12964F121FFF2C
:1094E00078081222A8EA2420F582E43BF5831222B0
:1094F000C31296601222A812963B1222A8EA240BED
:10950000F582EB12BEA4FD7C018A828B83A3A3A308
:10951000A3E0FA7B007900120B797409122037EE70
:10952000640402962FEE54406037750800780812E4
:1095300022ACE4F50978081222A878081222A8784B
:10954000081222A878081222A87D007C017A007BEC
:1095500000793B120B797409122037EE64400296B1
:109560002FEE5480603090076C129F7E4960217905
:1095700000121AAF90076C12A88A78081222A07AFB
:10958000007B01900380E0F9121B2774041220373E
:10959000EE648002962FEF5401600D7901121AAF2C
:1095A000EEFAEF6401029631EF5402600AC2AF7521
:1095B000C9AB75C95B80FEEF5404600A122E5BEEE6
:1095C000FAEF6404806B900387E064017066EE54E8
:1095D000206061900381E014601514601214600F24
:1095E00014600C14601524FE6027146024803D79FB
:1095F00000120E197901120E19803190074EE0FA0F
:109600007900120E3190074EE0FA7901120E318086
:109610001B793F9003AFE0FA75F00CA4CAA8F028BC
:10962000FB74B12AFA74033BFB1210D1EE6420FAEA
:10963000EFFB80047A007B00029988EA2405F50894
:10964000EB3401F509780822EA2430F582E422EAB5
:109650002432F582E43BF58312AE047404780822C8
:10966000EA242E129B2FF508A3E0C313F509E508A1
:1096700013F508780822E0F875F00CA4C8AAF012D7
:109680009683222AF974B128FA740339FB2274F6FE
:10969000122091EA540F6004780180027800E8F902
:1096A0008A088B0974047808121FFFE50829F50859
:1096B0007509007404780812200EE5082408FAE4FD
:1096C0003509FB121A498A088B09A808A909E84933
:1096D0006009E82404FAE439FB80047A007B000284
:1096E000A3EA74F6122091EA2405FA50010B121A2B
:1096F000498A088B09A808A909E8496009E82405EE
:10970000FAE439FB80047A007B0002A3EAC082C03D
:1097100083C2AF1212C3E5E170FC75E101120F9F25
:1097200075E1F11212FF120F9379071213B9790143
:109730001213BF790212132912135F12139B7900BF
:109740001213AD79011213AD909176121EF7121318
:10975000119006F1E4F0A3F0A3F09006F57407F081
:109760009006F47403F09006FAE4F09006F9F09095
:10977000071AF0900747F090075EF01210B312112D
:10978000F11210DD79001213C59006D5129397746B
:109790001FF0906012E4F0A3F0906063F075210078
:1097A000900381F09006DAF09006DB740CF09006DE
:1097B000DCE4F09006DD04F09006DEE4F09006DFD5
:1097C00004F09006E0E4F0900383F0A3F0900386A9
:1097D000F090038704F090039D7403F090076AE40F
:1097E000F0D2AFF902AF05C082C08390036E129A27
:1097F0007812A6BF8A828B83A312A6B98A828B8332
:10980000A3A312A6B38A828B83A3A3A312A6AD8AB5
:10981000828B83A3A3A3A3F0900373129A78A3A3CC
:10982000A3A3A302AF02C082C0838A828B83E0908D
:10983000037412985CE090037512985CA3E09003A7
:109840007612985CA3A3E0900377129863E09003EC
:1098500078129863A3E090037902AF02F08A828BBA
:1098600083A322F08A828B83A3A3A3A322C082C0F6
:1098700083120FDBE9F9700512135F790002AF055F
:1098800074F7122091EAFEEBFF8908120FDBE9F969
:10989000702CE508600A74016508600A7912801E60
:1098A0007C00790080047C007901EEFAEFFB121352
:1098B0006BE9F8740368700479078002790002A5E7
:1098C0008774F7122091EAFEEBFF8908120FDBE99B
:1098D000F9702DE508600A74016508600879128046
:1098E0001F790080027901EEFAEFFB121371E9F89B
:1098F00074046860057405687004791F800279003B
:1099000002A58774F7122091EAFEEBFF121365029D
:10991000A57F74F6122091EA4B600EEC4D600A743C
:109920000A12206D12B5EB70047912800F780812BC
:1099300022A812113D7402122037790002A3EA74A2
:10994000F4122091EAFEEBFF8908900381E064099C
:109950006014E0640A600FE0640B600AE0640C606D
:1099600005E0640D7004790C801E12121B8B0BEA4B
:10997000450B700BA908EEFAEFFB12112580099038
:109980000383E04440F0790D7F0402216374F612F2
:109990002091EAFEEBFF8909EE4F6003E97004793C
:1099A00012801675080012111F1299BCE9F0050803
:1099B000E508C3950940EF790002A3EAA808EE1272
:1099C000B3353FF5832274F71220918A828B83E0AE
:1099D0004433F0A3A882A983E0443312A3A4D2E6BF
:1099E000F0EA2403FCE43BFD8C828D83E0D2E4F0BA
:1099F000EA2402FEE43BFF8E828F83E044C012B86B
:109A0000AB440312B8A6440F12A3A4448C12B8AB03
:109A1000D2E512A3ABE044CC12B8AB44CC12B8A64A
:109A2000443002A584C082C0837C00EC12B364C0C1
:109A3000E0EA12B3353BF583D0E0F00CECC39408B8
:109A400040E902AF03C082C08390039E129A78F06F
:109A500090039F12A3688C828D8312AE719003A134
:109A600012A368851882851983E0FAA3E0F5838A3A
:109A700082E8F0A3E902AF02E08A828B8322C082EF
:109A8000C083E9F8740168700B90076A7401F0797B
:109A90000002AF05E8700690076AE480F179128051
:109AA000F074F7122091EAFEEBFF120E4FE9F97005
:109AB0005BEEF8EFF9E875F00CA4C8AAF02AFA7585
:109AC000F00CE9A41296838A828B83A3A3A3E0708F
:109AD0000479028037EA24EC129C987032EA24F26E
:109AE000F582E43BF5831222C3EA24F0F582E43BDD
:109AF000F5831222C3EA24EF129B2FFCEEFAEFFB50
:109B00007900120B857404122037790002A587EAC8
:109B100024EDFEE43BFF8E828F83E0700E790C1201
:109B200010898E828F837401F080DF793A80DDF5B1
:109B300082E43BF583E02274F7122091ECFEEDFF06
:109B4000EE4F6027EA6005146015801F120FC9E907
:109B5000F88E828F83F0748068700B793080098E64
:109B6000828F837404F0790002A587791280F974DA
:109B7000F71220918908EAFEEBFFAA087B00120E7B
:109B80004FE9F9702D12BEAAE812AE0CE08E828F5A
:109B900083F0E8245E129BB5F0E8245F129BB5A326
:109BA000F0E82460129BC6F0E82461129BC6A3F083
:109BB000790002A587129BB922F582E439F583E08A
:109BC0008E828F83A322129BB9A3A32274F6122044
:109BD00091EAFEEBFF8C088D09900381E0640C7024
:109BE0000590618E8014120E4FE9F9702F12BBF8A8
:109BF00074192EF58274043FF583E0F87480687060
:109C00000A850882850983747F800E900385E0F9B8
:109C1000E8C399850882850983F0790002A3EA7474
:109C2000F7122091EAFEEBFF8908740565086028A9
:109C300074136508602274146508601C7415650847
:109C40006016741A6508601074296508600A743B10
:109C5000650860047912803D120E4FE9F9703612E2
:109C6000A957241DF8E43BF9EA24F6FCE43BFDEA9D
:109C70002469129C987016EA246A129B2F64027061
:109C800004793A8010129C9E1210958006129C9EB8
:109C9000121089790002A587129B2F6401228C8201
:109CA0008D83E50812A3ABE4F0A3F079022274E8F7
:109CB00012209174FF122021E9851882851983F002
:109CC0008A088B098C0A8D0BEC450B6016E0C39457
:109CD0001C5010741912206DE0F50C600B740165B6
:109CE0000C60057912029F74120E4FE9F9600302AD
:109CF0009F74A808E875F00CA4C8AAF02AFA75F0B9
:109D00000CE509A42AF974B128FE740339FF900602
:109D1000DBE070057907029F74E50A24FEF50AE589
:109D20000B34FFF50B851882851983E0850A82853F
:109D30000B83F0E50C7004740280027401A3F0E55B
:109D40000A24FEFCE50B34FFFDEE2463FAE43FFB3E
:109D5000121101A9A8C2AF9006DBE014F0E9A2E756
:109D6000E433F8E9A2E792AF900381E06408600869
:109D7000E064076003029F729003AFE06508450945
:109D80006003029F727900EEFAEFFB1227AF906139
:109D9000D0E07003029F729006DFE064016003026E
:109DA0009F72EE241DF582E43FF583129F7E497079
:109DB00003029F72A2AFE433851882851983F0C233
:109DC000AF1212DB8A088B091212DBEA65087003F6
:109DD000EB65097003029F6612121B8A148B151221
:109DE00012D58A0C8B0D8C0E8D0FE5142402F516FE
:109DF000E43515F5178A088B098C0A8D0B9091664E
:109E00007808121E2C78081222A0851682851783E6
:109E1000121EF7122BD17404122037E9640160037B
:109E2000029F66EE242EF508E43FF509850882F5C9
:109E300083E0240612B0BD780C7910121E19780C3C
:109E40001222A0851682851783121EF7122BD17459
:109E500004122037E964016003029F66E5142408B8
:109E6000F50AE43515F50B850A82F5831222BBAAA3
:109E70000CAB0DAC0EAD0F122C2D740412203785D7
:109E800008828509831222C3122B807402122037A4
:109E90008A0C8B0D8C0E8D0F7410780C121DE18DB9
:109EA000118E828F83A3A3A3A3A3A3A3A3A312A30F
:109EB000688E828F83A3A3A3A3A312AE71E82CF8AC
:109EC000E93511F98E828F83A3A3A3A3A3A3A312C1
:109ED000AE71850882850983E0F50CA3E0F50DE4F9
:109EE000850A82850B838C088D09F50AF50B7808A5
:109EF000790C121CF27808121E2C909172780812BC
:109F00001E8D8516828517837808121EE8780879D9
:109F10000C121E1990912A7808121E2C90917278BA
:109F200008121E8DE514241612B0A17808121EE83E
:109F3000851482851583A3A3A3A3A3A3E4F0A3F0B0
:109F4000EE2435F582E43FF583E0C0E0EE2434F5FD
:109F500082E43FF583D0E0F0EEFAEFFB122523AA6E
:109F600014AB151211FD851882851983E0F8A2E063
:109F700092AF790074011220377F1002216312A87A
:109F8000A4F9E82274F7122091E9FEEAFF8B08EEAB
:109F9000C39428400302A088EFC39426400302A084
:109FA00088EB602D740165086027740265086021E4
:109FB00074036508601B7404650860157405650802
:109FC000600F74066508600974076508600302A0E5
:109FD00088900381E06005792102A0AE1212C312BD
:109FE0000FA575E1F17A0179011213E990911E1222
:109FF0001EF71213537A00EEF912140179001213AE
:10A00000CB90039DE0F9120FC374022FF5D9850898
:10A01000D98FD9E508601714602014602A14606C89
:10A0200014603114603B14604514604F805A7A000C
:10A03000EAC39F505712B73E80F67800E8C39F509E
:10A040004B75D90F0880F57800E8C39F503E75D94D
:10A05000550880F57800E8C39F503175D9FF088016
:10A06000F57800E8C39F502475D9000880F5780082
:10A07000E8C39F501775D9F00880F57800E8C39FB2
:10A08000500A75D9AA0880F57912802275E195EEFB
:10A090009003A3F0EFA3F0E508A312A11174091235
:10A0A000B74E1213B37A007B001212A5790002A5F5
:10A0B0008774F7122091E9FEC39428400479128036
:10A0C00045900381E060047921803B1212C3120F96
:10A0D000A575E1F17A0179001213EF90911E121E1D
:10A0E000F71213537A00EEF912140179001213CB10
:10A0F000EE9003A312A10B74FF12A111740AF07960
:10A10000181213B3790002A5877425F0A3E4F0A315
:10A1100022F0A3E41293997480F09003812274F6E4
:10A12000122091900381E064096009E0640A6004F0
:10A130007921805FE5E170FC75E101E0640970144C
:10A140007AA67B031213F579051213CB79007A00F6
:10A150007B00802DE0640A702B7508AA75090378CE
:10A16000081222A87CA87D037AA67B031213FB7435
:10A170000212203779051213CB79019003A612AE93
:10A180001D120B9D120F9F120F9375E1F190038129
:10A19000E4F0F902A3EA74EE122091EAFEEBFF89E3
:10A1A00008741312206DE0F509741412206D12A3C7
:10A1B00068E508604B740165086015740365086004
:10A1C0002974026508602374046508600302A252C2
:10A1D000E849607EE50960067401650970747403DE
:10A1E0006508600674026508702AEE2460FAEF12B2
:10A1F000A35D505EEC2460FAED12A35D4016805220
:10A20000EE24E0FAEF12A3525048EC24E0FAED12EB
:10A21000A352503EC3EC9EED9F4037741212206D46
:10A22000E0FB600574016B7029741712206DE0F576
:10A230000E60127401650E600C7402650E60067487
:10A2400003650E700D741612206DE0FA74075AFA49
:10A250007005791202A34D9006F1E0640170057952
:10A260000C02A34DEA9006F5F0E5089006F4F0E53F
:10A270000E9006F6F0EB9006E37027E4F090036E84
:10A28000E09006E412A6BF9006E512A6B99006E695
:10A2900012A6B39006E712A6AD9006E8F0900373FD
:10A2A000802E7401F0900374E09006E4F090037542
:10A2B000E09006E5F0900376E09006E6F0900377F4
:10A2C000E09006E7F0900378E09006E8F0900379DC
:10A2D000E09006E9F0E82405FAE439FBE82404FC00
:10A2E000E439FDE82403F50AE439F50BE82402F526
:10A2F0000CE439F50D88828983A38582108583114A
:10A3000074016508700B12A36D9006F2E4F0A3804F
:10A310003974046508700512A36D8027E50E70047A
:10A320007900801C7401650E70047901801274023A
:10A33000650E7004790280087403650E7005790358
:10A340001213779006F2EEF0A3EFF079007F0A0285
:10A35000216334FFFBC3EA94E1EB943F2234FFFB1B
:10A36000C3EA9461EB943F2212A8A4F922E5099074
:10A3700006EA12A3ABE09006EBF08510828511830C
:10A38000E09006ECF0850C82850D83E09006ED12DE
:10A39000B89D9006EE12BD10E09006EF12A3A490B7
:10A3A00006F0F022F08A828B83E022F08882898393
:10A3B0002274F6122091E9FEC39420500BEE900611
:10A3C000FAF0601EEA4B70047912801E12A5C812C2
:10A3D00022A8EAFCEBFD7AFB7B061219C574021277
:10A3E00020379006F97401F079007F02022163742E
:10A3F000F4122091E9FF900381E06409700302A444
:10A40000F6E0640A700302A4F6E0640B700302A491
:10A41000F6E0640C700302A4F6E0640D700302A47D
:10A42000F69006F4E0F9601774016960127403692C
:10A43000600D7402696008740469600302A55B9092
:10A4400006E3E0F86008740168600302A55B74032A
:10A4500069600574026970109006F2C3E094A0A3CD
:10A46000E09400500302A55BEF700302A4F01460B7
:10A470000302A55B9006F1E06401607AE9600A746A
:10A48000016960057404697008121227E954FD70AF
:10A4900065790112120F9006E112AE5E9006F1741A
:10A4A00001F0900381E070431212D58A088B098C69
:10A4B0000A8D0B9091327808121E2C9091727808B8
:10A4C000121E8D9006E112A87C7808121EE89006F4
:10A4D000E112A893120FE1E9600E7AE17B061212F5
:10A4E000159006F1E4F0800E1211F77900029988B8
:10A4F0009006F1E07004792180F3A2AFE433FEC24C
:10A50000AF7AE17B061212159006F1E4F0121233D5
:10A51000E970411212C3906182E0C2E6F0E5E17099
:10A52000FC75E1017591BF75E1F1900387E064016D
:10A5300070187A207B00900380E0F9121B337A2098
:10A540007B00900380E0F9121A257A00900380E0E6
:10A55000F9121AB5EEA2E092AF80907912808E7453
:10A56000F7122091EAFEEBFF120FC9E9F88E828FF5
:10A5700083F074806870047930800279008008E983
:10A580008E828F83F079007F0102216374F612209E
:10A5900091E9FEC39420500BEE90071AF0601EEA7A
:10A5A0004B70047912801E12A5C81222A8EAFCEB97
:10A5B000FD7A1B7B071219C574021220379006F929
:10A5C0007401F0790002A3EAE0F508750900780843
:10A5D0002274F7122091E9FF600574016F703274E4
:10A5E0000912206DE0FE600574016E702412A873DC
:10A5F000501FEC24FCF8ED12A8785015C3EA9CEB30
:10A600009D400E740A12206DE0F8600A74016860C3
:10A6100005791202A6AA900747E064017005790C3B
:10A6200002A6AAEFA3F0E890074DF0EE90073F7066
:10A6300027E4F090036EE090074012A6BF90074118
:10A6400012A6B990074212A6B390074312A6AD9086
:10A650000744F0900373802E7401F0900374E0902F
:10A660000740F0900375E0900741F0900376E0908A
:10A670000742F0900377E0900743F0900378E09072
:10A680000744F0900379E0900745F090074912AE37
:10A690005EA3ECF0A3EDF0E870047900800774018C
:10A6A000687005790112137D790002A587F0900387
:10A6B00072E022F0900371E022F0900370E022F04B
:10A6C00090036FE02274F0122091E9FEEAFF9003FC
:10A6D00081E06409700302A7D7E0640A700302A74F
:10A6E000D7E0640B700302A7D7E0640C700302A7E5
:10A6F000D7E0640D700302A7D7900748E0F8600820
:10A70000740168600302A86E90073FE0F860087467
:10A710000168600302A86E90074912AE1D12A8736B
:10A72000400302A86EA3129F7E24FCFCE934FFFDC7
:10A73000C3EC94FDED943F400302A86EC3EA98EB8E
:10A7400099500302A86EEF600874016F600302A8BD
:10A750006EEE607D14600302A86E900747E064010E
:10A760006075790212120F90073D12AE5E90074796
:10A770007401F0900746F0EF90074EF0900381E0EF
:10A78000704A1210051212D58A0C8B0D8C0E8D0F8B
:10A79000909152780C121E2C909172780C121E8D92
:10A7A00090073D12A87C780C121EE890073D12A875
:10A7B0009390074B12A88A780C7908121E199007FB
:10A7C0003D12AE23780C121EE81211F7790002B583
:10A7D0003B900747E07004792180F3A2AFE433F5A2
:10A7E00008C2AF7A3D7B07121215900747E4F012BA
:10A7F0001233E970461212C3906182E0C2E6F0E5BE
:10A80000E170FC75E1017591BF79011213BF75E12B
:10A81000F1900387E0640170187A207B0090038038
:10A82000E0F9121B337A207B00900380E0F9121AC2
:10A83000257A00900380E0F9121AB5E508A2E092AB
:10A84000AF90074DE0F8740168700612139B02A7E1
:10A85000CCA3E06401600302A7CCE8600302A7CCAC
:10A8600012135F12139B79011213A702A7CC79125E
:10A8700002A7CEEA24FCF8EB12AE3A2212A882A379
:10A88000A32212A8A4F58388822212AE04E4F50A5A
:10A89000F50B2212A8A4C82406F582E438F583E457
:10A8A000F0A3F022E0F8A3E02274F6122091EAFE71
:10A8B000EBFF8C088D09900381E064076004790C3C
:10A8C0008046EC450970047912803D120E4FE9F97B
:10A8D000703612B3A37E00EE12B358C0E0C3E49802
:10A8E000FC95E0FDEA2CF8EB12B33AD0E0F00EEE66
:10A8F000C3941040E2EA24D3F582E43BF58374016B
:10A90000F07905121089790002A3EA74F7122091F8
:10A91000EAFEEBFF900381E064076004790C803469
:10A92000120E4FE9F9702D12A95724DC129C987071
:10A9300010EA24F6F582E43BF5837406F079028090
:10A940000EEA24DDF582E43BF5837406F0790D12FE
:10A950001089790002A58712B3A7EA2274E81220B1
:10A960009174FB122021740312206D12AE5E7401EB
:10A9700012206DECF0A3EDF0E9851882851983F0C3
:10A9800090075EE06401700302AADD7904121221CF
:10A99000E96401700302AADD900381E06409700399
:10A9A00002AADDE0640A700302AADDE0640B700312
:10A9B00002AADDE0640C700302AADDE0640D7003FE
:10A9C00002AADD740312206D12AE30400302AB6D9B
:10A9D000740112206D12AE30400302AB6D7403128D
:10A9E000206DC082C083740112206D12A368D083D1
:10A9F000D082C3E098A3E099500302AB6D741E129D
:10AA0000206D12AE04851882851983E06009640107
:10AA1000600302AB6D8009E5084509700302AB6D68
:10AA2000741D12206DE060076401600302AB6D7459
:10AA30002012206DE060076401600302AB6D742B8F
:10AA400012206DC082C083742912206D12A368D0B9
:10AA500083D082C3E098A3E099500302AB6D7421C8
:10AA600012206D12B0CB400302AB6D742312206D27
:10AA700012B0B624FAF8EF12B0B2400302AB6D7414
:10AA80002112206D12A368C3EE98EF99500302AB18
:10AA90006D742512206DC3E094F4A3E0940140038B
:10AAA00002AB6D742712206D12B37024F6F8E50B1B
:10AAB00012B0A9400302AB6D7901121221E96401C1
:10AAC00070119006F4E0F86014740168600F74046B
:10AAD00068600A7940121221E96401700579210247
:10AAE000ADFF850A0C850B0D7403780C12200EF552
:10AAF0000EF50F742512206DE02401F514A3E03447
:10AB000000F515E4F516F517EEF8EFF9E82EF8E97B
:10AB100033F988108911E4F512F5137814791012BD
:10AB20001CF2780C7914121C8350421210D7E9647D
:10AB3000017005793A02ADFF7900EEFCEFFD74215A
:10AB400012206D12AE1D1210C58A0C8B0D74FF659C
:10AB50000C700474FF650D7005793B02ADFF85181C
:10AB600082851983E0700BE50845097005791202AA
:10AB7000ADFF1210A78A0E8B0FAE0EAF0FEE4F7007
:10AB800005790902ADFFEE2404F50EE43FF50F85CB
:10AB90000E82F583E0900765F0740312206D12A316
:10ABA0006890075F12AE71740112206D12A3689055
:10ABB000076112AE71851882851983E0900764F0F1
:10ABC0007A00EAF812B1A0E0C0E012B35012AE0C65
:10ABD000D0E0F00AEAC3940540E8EE245DFCE43FCF
:10ABE000FDEEFA12109BEE2436F582E43FF583E089
:10ABF000C39402500AEEFAEFFB1210AD02AB6D8562
:10AC00000882850983E0C0E0EE240512AE15D0E08D
:10AC100012AE55E0C0E0EE240612AE15D0E012AE42
:10AC20004CE0C0E0EE240712AE15D0E012AE4CA30B
:10AC3000E0C0E0EE240812AE15D0E012AE64E0C031
:10AC4000E0EE240912AE15D0E012AE64A3E0C0E03D
:10AC5000EE240A12AE15D0E0F0742012206DE090C0
:10AC60000756F0742012206DE0702590036EE0907E
:10AC7000075712A6BF90075812A6B990075912A6F7
:10AC8000B390075A12A6AD90075BF0900373802B28
:10AC9000900374E0900757F0900375E0900758F028
:10ACA000900376E0900759F0900377E090075AF010
:10ACB000900378E090075BF0900379E090075CF0F8
:10ACC000741D12206DE0C0E0EE240B12AE15D0E032
:10ACD000F01210E3EAF8EBF9ECFAEDFBEE2426F5BE
:10ACE00082E43FF583121F1B120F3FEE2422F582F0
:10ACF000E43FF583121F03EE242EF582E43FF58333
:10AD0000E50CF0A3E50DF0EE2432F582E43FF58387
:10AD1000E50AF0A3E50BF0742512206D12A368EE8E
:10AD20001296493F12AE6F900766E0C0E0EE242A0B
:10AD3000F582E43FF583D0E0F0EE242BF582E43F8A
:10AD4000F5837402F012111FE975F00C84E5F0240C
:10AD500005C0E0EE2437F582E43FF583D0E0F090C3
:10AD600007637425F09003AEE0C3940240057901B7
:10AD7000121323790412120F90075412AE5E90073B
:10AD80005E740112AE43241AF582E438F583742907
:10AD9000F0A3741012AE432414F582E438F58374E2
:10ADA00017F0900381E070551212D58A108B118C28
:10ADB000128D139091467810121E2C90917278107B
:10ADC000121E8D90075412A87C7810121EE890076E
:10ADD0005412A89390076112A88A78107908121E5D
:10ADE0001990075412AE237810121EE8850E828542
:10ADF0000F83E0F912100B1210111211F779007481
:10AE000005029F76E0F508A3E0F50922245DF582AE
:10AE1000E439F58322F582EF3401F58322E0FAA3C9
:10AE2000E0FB2212A8A4C8240EF582E438F58322A0
:10AE3000E024FCF8A3E012AE3A2212B99694FDE9A0
:10AE4000943F22F090075412A8A4C82212AE5022B8
:10AE500012AE55A322F0850882850983A322EAF069
:10AE6000A3EBF02212AE50A3A322F582E43515F530
:10AE700083E8F0A3E9F022C082C08390075EE0601F
:10AE8000087904121221E97004790C803790075E6A
:10AE9000E4F0121233E9702A900387E0640170181D
:10AEA0007A207B00900380E0F9121B337A207B002C
:10AEB000900380E0F9121A257A00900380E0F912DD
:10AEC0001AB57900803FC082C083C3EB940F50094C
:10AED000C3EA9403EB9400400479128023EA75F0EE
:10AEE0000CA4CAA8F028F875F00CEBA428FB74B4E5
:10AEF0002AF5827403129B32700479028002790071
:10AF00008003F07900D083D08202011F74E8122000
:10AF10009174FE122021851882851983ECF0A3ED2F
:10AF2000F08A088B09900381E064086005790C02BF
:10AF3000B09C85188285198312B0CB400302B022E1
:10AF4000741A12206DE0F516A3E0F517E51624FA41
:10AF5000F8E51712B0B2400302B0228518828519B5
:10AF60008312A368C3E51698E51799500302B0222F
:10AF7000741C12206DC3E094F4A3E094014003021A
:10AF8000B022741E12206D12B0B624F6F8EF12B083
:10AF9000A9400302B022120E4FE9F9600302B09CEF
:10AFA000E50875F00CA4C508A8F028F875F00CE5C4
:10AFB00009A428F50974B12508F51474033509F5B9
:10AFC00015E514246E12B0A1E0600AE514246A129B
:10AFD000B0A1E0600CE514247312B0A1E06401702C
:10AFE00005793A02B09C8E088F0974037808122004
:10AFF0000EF50AF50B741C12206DE0240112B0BD91
:10B00000A816E828F8E51733F9880C890DE4F50E41
:10B01000F50F7810790C121CF278087910121C8345
:10B020004004791280767901AC16AD1785188285B7
:10B03000198312AE1D1210C574FF6A700374FF6B82
:10B040007004793B8056E514247612B0A17402F0A6
:10B05000E514247712B0A1E4F0A3F0E514129649A8
:10B06000351512B1CDE514247412AE6AE5142479B5
:10B0700012B0A112AE5E741C12206D12A368E5140A
:10B08000247B12AE6AE514247D12B0A1EEF0A3EF8A
:10B09000F07900AA14AB1512108979007402029F8E
:10B0A00076F582E43515F5832212B9969477E99402
:10B0B0000C2212B0D522E0FEA3E0FFEE22F510A391
:10B0C000E03400F511E4F512F51322E024FAF8A3B8
:10B0D000E012B0D52212B996947BE9940C2274F751
:10B0E000122091EAFEEBFF900381E064086005798D
:10B0F0000C02B19DEE4F60158E828F83A3A3A3A394
:10B10000E054E070081210A1E964016005791202B0
:10B11000B19D75080012B1AA7032E82404F85001FC
:10B1200009246EF582E439F583E0600EE8246AF5BF
:10B1300082E439F583E06401600EE8247FF582E45F
:10B1400039F583E064017004793A80510508E50817
:10B15000C3940340C07508001299BCE0C0E012B16E
:10B16000A0D0E0F00508E508C3940540EB750800A1
:10B1700012B1AA701DE82404FAE439FB1296483B88
:10B1800012B1CDEA2480F582E43B12AE6F79011250
:10B1900010890508E508C3940340D5790002A58706
:10B1A00074D512B3353406F58322A808E875F00C7F
:10B1B000A4C8AAF02AF974AD28F8740339F9888272
:10B1C0008983A3A3A3A3A3A3A3E0640122F583E03F
:10B1D0002407F8A3E03400F92274F2122091EAFE69
:10B1E000EBFF8C088D09900381E064086005790C01
:10B1F00002B330EC4509601E740E12206DE0F50CB0
:10B20000A3E0F50DE50C450D600C741012206D12D5
:10B21000B370450B7005791202B330120E4FE9F985
:10B22000600302B33012BBE9FE74033FFFEE24E378
:10B23000F582E43FF583E0701D7A00EA12B364C042
:10B24000E012B35024E4F582E439F583D0E0F00A4B
:10B25000EAC3940840E5EE24E4F582E43FF583E098
:10B26000A2E04005791102B3307A00EA12B358C067
:10B27000E012B350249BF582E439F583D0E0F00A64
:10B28000EAC3940840E5850C82850D83E0C0E0EEBA
:10B2900024A3F582E43FF583D0E0F0850C82850D90
:10B2A00083A3E0C0E0EE24A4F582E43FF583D0E080
:10B2B000F07A00EAF8E50A12B335350BF583E0C001
:10B2C000E0C3E498FC95E0FDEE2CF8EF12B33AD021
:10B2D000E0F00AEAC3941040DAEE2493FAE43FFB6C
:10B2E00012112BEE2487FAE43FFB121131900383F5
:10B2F000E04480F0EE246212B34624D212B3462416
:10B30000D312B34624DCF8E43FF9EE2482F582E45C
:10B310003FF583E064018882898370077401F079C6
:10B320000A8004E4F07903EEFAEFFB121089790049
:10B330007F0602216328F582E4223DF9E824D1F555
:10B3400082E439F58322F582E43FF583E4F0EE22CE
:10B35000EE28F8E43FF9E822F8E50812B33535099C
:10B36000F583E022F8749512B3353403F583E022B7
:10B37000E0F50AA3E0F50BE50A2274F7122091EA42
:10B38000FEEBFF900381E064086004790C801112E9
:10B390000E4FE9F9700A790812B3A31210897900E7
:10B3A00002A58712B3A72212BBF1FA74033FFB2256
:10B3B00080028000790C02011F80F974F012209144
:10B3C000890AEAFEEBFF12121B8A088B091212D5BA
:10B3D0008A0C8B0D8C0E8D0F8E828F837401F0E59D
:10B3E0000A600A7401650A600479128076E50845EE
:10B3F000096053E5082402F50850020509780C128B
:10B4000022A0850882850983121EF7122BD17404AD
:10B41000122037E9603790912EC082C083780C12D9
:10B4200022A0850882850983121EF7122C2D740430
:10B430001220378A0C8B0D8C0E8D0FD083D0827822
:10B440000C121CA35007A90A120FBD8014E50A9024
:10B4500003837005E044018003E0440212BBE3E48F
:10B46000F0790002B53B74F0122091890AEAFEEBF4
:10B47000FF12121B8A088B091212D58A0C8B0D8CB5
:10B480000E8D0F8E828F837401F0E50A60177401B0
:10B49000650A60117402650A600B7403650A600531
:10B4A000791202B53BE50845096053E5082402F529
:10B4B0000850020509780C1222A0850882850983AC
:10B4C000121EF7122BD17404122037E960379091C5
:10B4D0002EC082C083780C1222A085088285098341
:10B4E000121EF7122C2D74041220378A0C8B0D8C2F
:10B4F0000E8D0FD083D082780C121CA35007A90A9E
:10B50000120FC38034E50A600B1460101460151428
:10B51000601A801F900383E044048016900383E048
:10B520004408800E900383E044108006900383E07B
:10B530004420F08E828F83E4F079007F080221633B
:10B54000C082C083E9FA9006DAE0F8EA600E14706F
:10B550000E7401F0E068700B79FF8009E480F479E3
:10B56000128002790002AF05C082C083E9F890071B
:10B570006BE07004790C800EE8600E14701190037B
:10B58000867401F0790002AF05900386E480F479B7
:10B590001280F3C082C083E9F8900381E0701AE85A
:10B5A000600D1470109003877401F07900800C9086
:10B5B0000387E480F579128002790C02AF0574F6F6
:10B5C000122091EA4B600EEC4D600A740A12206D55
:10B5D00012B5EB70047912800F78081222A81211AC
:10B5E000437402122037790002A3EA12AE04E50880
:10B5F000450922C082C083EA4B7004791280168A02
:10B60000828B83E0A2E0900395E05004D2E08002B8
:10B61000C2E0F0790002AF05C082C083E9600E1479
:10B6200070119006DF7401F0790002AF059006DF1B
:10B63000E480F4791280F3C082C083E9F89003813A
:10B64000E064076004790C800EE8600E14701190BD
:10B6500006E07401F0790002AF059006E0E480F4A2
:10B66000791280F374F7122091E9FFEAFEC394285F
:10B670005008EF600974016F6004791280599003DB
:10B6800081E060047921804F1212C3120FA575E189
:10B69000F190911E121EF712135374016F70137AFA
:10B6A00001EEF912140179001213CB906190742409
:10B6B00080177A00EEF912140179071213CB90610A
:10B6C000907404F09061E874FFF0900381740BF0C3
:10B6D00079041213B3790002A587C082C083900356
:10B6E00081E06004792180531212C3120FA575E125
:10B6F000F17A0179011213E990911E121EF71213CB
:10B70000539003A3E4F0FAF912140179001213CB59
:10B7100075D92775D90075D9257A0012B73EEAC3C5
:10B72000942540F775E195900381740D12B74E1280
:10B7300013B37A007B001212A5790002AF05EAF874
:10B7400074A712B335348FF583E0F5D90A22F0904F
:10B750006182E0D2E5F079192274F7122091E9FEB6
:10B76000C39428400479128035900381E060047905
:10B7700021802B1212C3120FA575E1F190911E12B8
:10B780001EF71213537A00EEF91214017900121306
:10B79000CB900381740CF079031213B3790002A5E6
:10B7A00087C082C083900381E0640B600EE0640C6C
:10B7B0006009E0640D600479218005120D83790031
:10B7C00002AF0574F3122091EA4B7005791202B8AA
:10B7D00098900381E06005790C02B898EA2405F896
:10B7E000E43BF9EA2404FCE43BFDEA2403FEE43BE9
:10B7F000FFEA2402F508E43BF5098A828B83A385DE
:10B80000820A85830B8A828B83E0F47059850A82D1
:10B81000850B83E0F4704F850882850983E0F4701E
:10B82000458E828F83E0F4703D8C828D83E0F470CE
:10B830003588828983E0F4702D90037AE090036E5E
:10B84000F090037BE090036FF090037CE090037036
:10B85000F090037DE0900371F090037EE09003721E
:10B86000F090037F802B12B8B08A828B83E0900324
:10B870006E12B89D90036FF0850882850983E09071
:10B88000037012B8A690037112B8AB90037212A3A2
:10B89000ABE0900373F079007F05022163F0850A25
:10B8A00082850B83E02212BBE3E02212BD10E0226E
:10B8B00090036EE090037AF090036FE090037BF0CA
:10B8C000900370E090037CF0900371E090037DF0B2
:10B8D000900372E090037EF0900373E090037FF09A
:10B8E00022C082C083C3EA94F5EB9401400579122B
:10B8F00002B98D900381E064086005E0640770057B
:10B90000790C02B98DC3EA9415EB940050079007A7
:10B91000667407806FEA24EB12B990940AE99400E8
:10B9200050079007667406805BEA24E112B9909490
:10B9300014E99400500790076674058047EA24CD07
:10B9400012B99C500790076674048038EA24B41238
:10B95000B99C500790076674038029EA249B12B9AA
:10B96000909432E99400500790076674028015EABB
:10B97000246912B9909464E99400900766500474A5
:10B98000018001E4F09006F712AE5E790002AF0587
:10B9900012B99422F8EB34FFF9C3E82212B9949457
:10B9A00019E994002274F7122091E9FE906185E074
:10B9B000F874016E7011E8C3940F5007740128F9F0
:10B9C000120F997900800CEE7007E860F674FF8022
:10B9D000ED791202A58774F412209174FC122021D3
:10B9E000902F0CE493F46004790C8041906185E021
:10B9F000851882851983F07808121ED990911A78DB
:10BA000008121EB38518828519837808121EE875FE
:10BA1000080175090078081222A874021220877A9A
:10BA2000C37B0B121875740212203779007404124C
:10BA30002037029988C082C083E9F86013740168D6
:10BA4000600E7402686009740368600479128007EC
:10BA5000E890039DF0790002AF0574F6122091E999
:10BA6000FB74FF6B700C90076774FFF0A3E4F0F9B0
:10BA70008049750801750900EA780812200EE5086A
:10BA8000F9F4F8EB600914603514607F02BB41EAF9
:10BA9000C39408400302BB41E5AEC4540F54076A87
:10BAA000700353AE7FE852F252F3E942FDE852AB25
:10BAB000EBF9EA90076712AE72790002A3EAEA6036
:10BAC0001714601914601B14601D14601F1460218A
:10BAD0001460231460208069906243801790624450
:10BAE0008012906245800D90624680089062478087
:10BAF00003906248E4F0E5AE54076A700353AEF772
:10BB0000E852F4E942FEE8528D80A5E5C6A2E7407E
:10BB10000E74036A600574046A7004790C809CEAF0
:10BB2000600924FD600A14600C801653F5FE80083D
:10BB300053F5F7800353F5EFE942FFE852AC02BA40
:10BB4000B0791202BABB74F7122091EAFEEBFF1231
:10BB50000E4FE9F9700A791612B3A31210D17900C9
:10BB600002A58774F6122091EAFEEBFF8908120EF7
:10BB70004FE9F9703F12BCC524F8FAE439FBE82418
:10BB8000FAFCE439FDE824FCFEE439FFE824FEF881
:10BB9000500109E508600514601D80438A828B838B
:10BBA000E4F012BD0FF0A312BBE3F0A312A3ABF0BD
:10BBB000A3F0790002A3EA888289831222C38E82CD
:10BBC0008F831222C38C828D83E0FCA3E0FD8A82E6
:10BBD0008B8312AE1D120B3D740412203780D37973
:10BBE0001280D1F08E828F832212BBED2212BBF124
:10BBF0002212BBF874B12E22EE75F00CA4CEA8F080
:10BC000028F875F00CEFA428FF2274F0122091EAB6
:10BC1000FEEBFF12121B8A088B091212D58A0C8BBD
:10BC20000D8C0E8D0F8E828F837401F0E50845090F
:10BC30006053E5082402F50850020509780C122229
:10BC4000A0850882850983121EF7122BD174041275
:10BC50002037E9603590912EC082C083780C122283
:10BC6000A0850882850983121EF7122C2D740412F8
:10BC700020378A088B098C0A8D0BD083D0827808F4
:10BC8000121CA35005120FD5800B900384E04401D1
:10BC900012BBE3E4F0790002B53BC082C083E9F84F
:10BCA0009003ADE06004790C800EE8600E14701112
:10BCB00090076B7401F0790002AF0590076BE48088
:10BCC000F4791280F312BBEDF874033FF9E82274A3
:10BCD000F7122091E9600514600F802F9003ABEA02
:10BCE000F0A3EBF0790002A5879003ABE08C828D86
:10BCF00083F09003ACE08C828D8312BD0FA3A374FC
:10BD00005012BD10A3A3A374AB80D8791280D7A31F
:10BD1000F08C828D832274F7122091E96005146003
:10BD20001E802890917E1222BB7A007B02900380B5
:10BD3000E0F9121B277404122037790002A58790BE
:10BD4000917E1222BB7A007B0480E2791280EDC0E2
:10BD500082C083E9600F147014906182E04421F086
:10BD6000790002AF05906182E054DE80F2791280A2
:10BD7000F1C082C083E9F86021C3940D501CEA60D1
:10BD8000131470169006DE7401F0E89006DDF07969
:10BD90000002AF059006DEE480EF791280F374F6BE
:10BDA00012209174FF122021EA4B60078A828B8354
:10BDB0007403F0EC4D60099003AEE08C828D83F04B
:10BDC000740B12206D12B0B64F700302BE97750946
:10BDD00000750800807A7401F0E0C0E012BEC0D0A7
:10BDE000E0F0E8240512BEA1C0E012BEBFD0E01210
:10BDF000BEC9240612BEA1C0E012BEBFD0E012BE72
:10BE0000C9240712BEA1C0E012BEBFD0E012BEC955
:10BE1000240812BEA1C0E012BEBFD0E012BEC924E9
:10BE20000912BEA1C0E012BEBFD0E012BEC9240AF2
:10BE300012BEA1C0E012BEBFD0E012BEC9240B12D8
:10BE4000BEA1C0E0A8091299BED0E0F0050905081E
:10BE50009003AEE0F8E508C398503CAA087B0012B6
:10BE60000E4FE970E912BEAAAA0912BEC0E508F099
:10BE700074012AFA74012AF50988828983E0FBA3F8
:10BE8000E0F5838B82E064808518828519836003E6
:10BE900002BDD6E402BDD87900740112203702A396
:10BEA000EAF582E93401F583E022A808E875F00C90
:10BEB000A4C8AAF02AF974B128F8740339F9220A3F
:10BEC000EE2AF582E43FF58322F00509E822C082DC
:10BED000C083EA4B60079003AE129A78F002AF037A
:10BEE00074F612209179011210C58A088B0974FF2B
:10BEF0006508700474FF6509700479128002790086
:10BF000002A3EAC082C083E9901A99F0D083D0825C
:10BF100002011F74F6122091E99002F3F09003538E
:10BF2000E0F5087509007402780812200EAA08AB23
:10BF300009121A9D9002F412C8C69002F412CCB3F2
:10BF4000606F900353E075F003A4FAABF0121A9DF2
:10BF500090031112C8C690031112CCB3700B90025B
:10BF6000F412CC84121AA3804890031112DC187AC0
:10BF7000FF7BFF1218217A0080198A087509007466
:10BF800002780812200E12D6C074FF12C0C6E4F068
:10BF9000A3F00A900353E0F8EAC39840DD79051254
:10BFA00009159002F3E0F91208017A937B09120D4A
:10BFB0002302D76374F41220918A088B09EB548012
:10BFC00060479002F3E0F9121A078A0A8B0BAE0A57
:10BFD000AF0BEE4F602A8E828F83E064B0701A122E
:10BFE0000927E960148E828F83A3A3A3A3E0F9EE4F
:10BFF0002405FAE43FFB1208F7EEFAEFFB1219EF03
:10C00000AA08E5096480FB80047A007B0002C2165E
:10C0100074F212209174FB122021EAFEEBFFEE4F26
:10C020006045740312206DEEF0A3EFF08518828551
:10C030001983ECF0A3EDF0740212206DE9F0AA1858
:10C04000AB191207FBE9F5087075741312206DE047
:10C05000F50AA3E0F50BE50A450B60638E828F833A
:10C0600012C64FEE4F700575080280537A067B00AA
:10C07000121A9D8A0C8B0DA80CA90DE84970057544
:10C080000813803B88828983E412C0C6EEF0A3EFD8
:10C0900012C1E2E50AF0A3E50BF09002F712C1DB52
:10C0A0009002F76017E0FCA3E08003EAFCEBFD8C54
:10C0B000828D8312C1DB70F38C828D8312D2DBA957
:10C0C00008740502DE1AF0A312DBFAA32274F2123E
:10C0D00020918908890C750D007403780C12200ECC
:10C0E000850C0A850D0B9002F6F09002F412D0E652
:10C0F00012C1D9602E121AA37900801D890C750D0A
:10C10000007402780C12200E9002F412D57F8882FF
:10C11000F583A3A3E4F0A3F009900353E0F8E9C387
:10C120009840D9900353E0FA850AF0A4CAA8F08594
:10C130000BF0A428FB121A9D8A0C8B0DAE0CAF0DD0
:10C14000EE4F700302C1CF900353E0FC850AF0A4C8
:10C15000CCA8F0850BF0A428FD79001219DD7C0035
:10C1600080318D0C750D007403780C12200E8A82BC
:10C170008B8312C1D488828983E4F012C1E1A3A326
:10C18000F0A3F00DEDC3950840D8EE250AFEEF357B
:10C190000BFF0C900353E0F8ECC39850288C0C75FF
:10C1A0000D007402780C12200E9002F412C1D4E833
:10C1B0002402500109FAE9FB8A828B83EEF0A3EF97
:10C1C000F07D0080BFE5089002F6F07900800279EA
:10C1D0001302DE1D12D583F922A3A312CC88EA4BE9
:10C1E00022A312DBFAA3A3A32274F41220917900F4
:10C1F000EAA2E0501F75080075099178081222A87C
:10C2000079107C047D007A9B7B1A12090F7402124C
:10C210002037E9F980007F04022163C082C0839047
:10C2200002F712CCB3601C88828983A3A3E06A70F2
:10C2300003A3E06B8882898370E8A3A3A3A312CC35
:10C240008480047A007B0002BF0C74F21220917487
:10C25000FD122021EAFEEBFF851882851983E4F0A8
:10C26000A3F0740212206D7401F012CCB07014129D
:10C270000C45121A9D9002FA12C8C612CCB0700377
:10C2800002C3DC12C9C6EE2404F50AE43FF50B85AF
:10C290000A82F583E024FE603C24FC607424FE6086
:10C2A0007E24FE700302C32C24FE700302C33924D3
:10C2B000FE700302C34624FE700302C35324FE70C3
:10C2C0000302C36024FC700302C38124FE700302D6
:10C2D000C39902C3D5120C459002FCEAF0A3EB12FD
:10C2E000C3E81202F7E9600302C3D59002FC1222F0
:10C2F000C38E828F83A3A3A3A3A312DC1885088215
:10C3000085098312CC841208DF740212203702C31D
:10C31000D5AC18AD19EEFAEFFB12092D02C3A4AC8F
:10C3200018AD19EEFAEFFB1209338078AC18AD198D
:10C33000EEFAEFFB120939806BAC18AD19EEFAEF8B
:10C34000FB12093F805EAC18AD19EEFAEFFB120943
:10C35000458051AC18AD19EEFAEFFB12094B804441
:10C360007402122077880C890D780C1222A87402AE
:10C37000122087EEFAEFFB12095174021220378067
:10C3800023AC18AD19EEFAEFFB120957E9F8701655
:10C39000740212206DE4F0803CAC18AD19EEFAEF97
:10C3A000FB12095DE9F8E8602C8E828F83A3E064BC
:10C3B000146022850A82850B83E09002FCF08518C8
:10C3C0008285198312CC849002FD12C8C6E8A3129C
:10C3D000C3E81202F1EEFAEFFB1208B57402122064
:10C3E0006DE0F9740302DE1AF07CFC7D02850882A0
:10C3F00085098312CC882274E812209174FA1220E5
:10C4000021740412206DECF0A3EDF08A128B13EA74
:10C410002405F50EE43513F50FEA2402F510E43592
:10C4200013F511851082F58312CC841204778A0AE1
:10C430008B0B7508007C037D0079007AFC7B02126F
:10C4400019DDE50E2402F516E4350FF51774021216
:10C450002077880C890D780C1222A8850E82850F12
:10C4600083A3A3A3A3E0F50C750D00780C1222A8FA
:10C47000E50E2405F50CE4350FF50D780C1222A815
:10C4800085168285178312CF8B120813740612202B
:10C49000378A0C8B0DE50C450D700302C618802001
:10C4A000851882851983E088828983F005088518BC
:10C4B00082851983A3E0C0E012C659D0E0F00508D8
:10C4C000E50A24FBFAE50B34FFFBC3E5089AE49B7D
:10C4D000400302C6187E007F00851282851383A365
:10C4E000A3A3A3E0F50978091222ACE4F514F5152D
:10C4F00078141222A87514F975150278141222A85E
:10C500009002FA1222C3740912206D1222C3E50AA6
:10C5100024F9F9AC0CAD0D85108285118312CC8401
:10C520001209877409122037E9600302C5B9850E24
:10C5300082850F83A3A3A3A3A3A3A3E0F89002F98A
:10C54000E0687075E0F5148E1578141222A812DCDC
:10C5500015850E82850F83A3A3A3A3A3A3A3A31270
:10C56000CC841219D77402122037E9604C9002FD76
:10C5700012CCB3703BE4F51478141222A87CFF7D32
:10C58000FF790785108285118312CC841208F1741B
:10C590000212203712CCB97017850E82850F8312D4
:10C5A000DD5F740412206D12D67312CFBC02C64C2C
:10C5B000850C82850D8312C64FA818A91988148985
:10C5C0001578141222A8740412206D1222C3851645
:10C5D0008285178312C8BC12081F74041220378A80
:10C5E0000C8B0DEE4F700302C49512C659EE12C6A5
:10C5F0006412CF72EF12C664F8A3E03400F9E50CC0
:10C60000450D600302C4A08882898374FFF0050889
:10C6100012C65974FFF00508E508601A1313543F59
:10C6200012C8CC120303E960099002FD12CC8412F7
:10C630001A4F79008016850E82850F8312DD5F7494
:10C640000412206D12D67312D2DB790A02CF45A3F1
:10C65000A3A3A3E0FEA3E0FF22A8089002FDE02828
:10C6600012CF7222F00508089002FDE0282274E83B
:10C6700012209174FA122021740212206D12C8C681
:10C68000740412206DECF0A3EDF0740212206DE042
:10C69000240512CF5BE0F50CA3E0F50D7402122027
:10C6A0006DE02402F510A3E03400F511851082F549
:10C6B0008312CC84120477750800750900EA24FC03
:10C6C000FEEB34FFFF8008050CE50C7002050DA899
:10C6D00008C3EE98EF9400500302C878A818A9196F
:10C6E000880E890F780E1222A8851482851583A3DF
:10C6F000A3A3A312DC1C1222A8E5142405F50EE462
:10C700003515F50F780E1222A8851482851583122F
:10C71000C8BA12081374061220378A0E8B0FEA4526
:10C720000F700302C878EA2404F516E4350FF517F4
:10C73000851682F583E0F50CA3E0F50D851882855A
:10C74000198312DC188A828B83A3A3A3E0F98510D6
:10C750008285118312CC84120807E9F5096003026F
:10C76000C878740212206D12CF82F509780912225E
:10C77000ACE4F512F51378121222A87512F97513AC
:10C780000278121222A89002FA1222C37407122011
:10C790006D1222C3EEF9AC0EAD0F851082851183A8
:10C7A00012CC841209877409122037E9F509600355
:10C7B00002C878E508703FE4F50EF50F780E1222F6
:10C7C000A87CFF7DFF790985108285118312CC84B6
:10C7D0001208F1740212203712CFA8700D740412DF
:10C7E000206D12C8AF791102C8AC9002F9E02402A2
:10C7F0009002FDF080149002FDE0FA9002F9E079D9
:10C800000024025001096A497072A8089002F9E0F8
:10C81000FAE82AFAE43400FBEE9AEF9B405A8516B8
:10C8200082851783E0C0E09002FE12C65ED0E0F081
:10C830000508851682851783A3E0C0E0089002FEF4
:10C8400012C65ED0E0F005089002F912DC1C12223C
:10C85000A812DC15A80812CF4F1219C574021220B5
:10C86000379002F9E02508F50874FF650C70047430
:10C87000FF650D600302C6C7E508601F9002FDE07A
:10C88000F5F0E5088412C8CC120309E960099002AA
:10C89000FE12CC84121A4F79008011E509700375DD
:10C8A000090A740412206D12C8AFA90902CF4512FB
:10C8B000D0EAE50CF0A3E50DF022A3A312DE29AA2D
:10C8C0000CAB0D22A3A3EAF0A3EBF0229002FCF044
:10C8D0007CFC7D0285108285118312CC882274EC49
:10C8E00012209174FC12202112D3EB7402122087C3
:10C8F00012CC7E1208198A0C8B0DEA450D700302CA
:10C90000C9B612C9C6A818A91988108911781012B9
:10C9100022A87CFF7DFF790B85088285098312CCD4
:10C92000841208F1740212203712CABC700C850AF6
:10C9300082850B8312CFB902C9C38E828F83A3A3D2
:10C94000A3A3E0F51278121222ACE4F512F51378E5
:10C95000121222A87512FC75130278121222A878FE
:10C96000101222A8740912206D1222C37409122019
:10C970006DE0F9AC0CAD0D85088285098312CC847D
:10C980001209877409122037E9FE70157CFC7D02BC
:10C9900085088285098312CC8412030FE97009800F
:10C9A0002074166E70027E009002FD12CC84121A62
:10C9B0004FEE7004800B7E01850A82850B8312D2B4
:10C9C000D8EEF902D2EDEE2402F508E43FF5092293
:10C9D00074EC12209174FC122021EAFEEBFF8C0E05
:10C9E0008D0FEE2405F508E43FF509740212208747
:10C9F00085088285098312CC841208198A0C8B0D54
:10CA0000EA450D700302CAACEE2402F50AE43FF5D4
:10CA10000BA818A9198810891178101222A87CFF78
:10CA20007DFF790D12CC7E1208F1740212203712AC
:10CA3000CABC700B85088285098312CFB9807A8EB3
:10CA4000828F83A3A3A3A3E0F51278121222AC85F0
:10CA50000882850983A3A31222C37512FC751302F1
:10CA600078121222A878101222A8740912206D12CE
:10CA700022C3740912206DE0F912CC7A120987746E
:10CA800009122037E9FE700F7CFC7D0212CC7E1269
:10CA90000315E97009802074166E70027E00900202
:10CAA000FD12CC84121A4FEE7004800B7E018508B3
:10CAB0008285098312D2D8EEF902D2ED12CCC3F5E9
:10CAC00010A3E0F511EA45112274E812209174FEDA
:10CAD0001220218A168B178C148D15EA2405F50C6B
:10CAE000E43517F50DEA2402F50EE43517F50F8548
:10CAF0000E82F58312CC841204778A088B09750B99
:10CB0000007C037D0079007AFC7B021219DD750A36
:10CB100000E50814F5100424FFF508E50934FFF5D5
:10CB20000980549002FCE0FA9002F9E0F8EA28F853
:10CB3000E43400F9E50898E50999500D9002FCE00D
:10CB4000F8E510C3989002F9F0E0F512751300783B
:10CB5000121222A812DC159002FDE02AFAA3E0349A
:10CB600000FB1219C574021220379002F9E0F89008
:10CB700002FCE028F0050A850C82850D83A3A31230
:10CB8000D58F400302CC5F9002FCE0C39508E4958A
:10CB900009400302CC5FAE0AEE2EFEE433FF12CC56
:10CBA0009EAC18AD1912DC30E439FB1208198A1258
:10CBB0008B13AC12AD13EC4D701B750B0112CC8EA8
:10CBC00012D2DC9002FD12C1DB6003121A4FA90BD6
:10CBD000740202CF47851682851783A3A3A3A3E01F
:10CBE000F50B780B1222ACE4F512F5137812122231
:10CBF000A87512F975130278121222A89002FA127F
:10CC000022C3740712206D1222C3A910850E8285DB
:10CC10000F8312CC841209877409122037E9F50BAF
:10CC2000709B9002FD12CCB3600302CB23E4F5129B
:10CC3000F51378121222A87CFF7DFF790F850E82F2
:10CC4000850F8312CC841208F1740212203712CCA3
:10CC5000B9600302CB2312CC8E12CFBD02CBD07CA5
:10CC6000FC7D02850E82850F8312CC8412031BE9A2
:10CC7000600302CBC3790002CBD0AC0CAD0D850AAA
:10CC800082850B8312CC8822E0FAA3E0FB2212CC2F
:10CC90009EE0FAA3E0F9EA85148285158322850CCB
:10CCA00082850D83E02EF8A3E03FF98882898322F4
:10CCB0009002FA12DD63E8492212CCC3F8A3E0F92E
:10CCC000E849229002FDEAF0A3EBF09002FDE02299
:10CCD00074E812209174FA122021740412206D124B
:10CCE000C8C68C168D17740412206DE02405F50E4D
:10CCF000A3E03400F50F740412206DE0240212CF7B
:10CD00005B12CC841204778A0A8B0B7F007E00A80A
:10CD100018A9198808890978081222A8850E828521
:10CD20000F83A3A3A3A3E0F5088E0978081222A815
:10CD3000E50E2405F508E4350FF50978081222A858
:10CD4000850E82850F83A3A312CF8B12081374065E
:10CD50001220378A0C8B0D802912CF7CF00F12CF56
:10CD60007CF00F9002F912D2C71222A812DC15EF44
:10CD7000F812CF4F1219C574021220379002F9E051
:10CD80002FFFE50C450D700302CE0B851882851927
:10CD90008312D3FDA3A3A3E0F98514828515831222
:10CDA000CC84120807E9FEE50C2404F510E4350DE7
:10CDB000F511EE7050740412206D12CF82F50878D0
:10CDC000081222ACE4F508F50978081222A87508C3
:10CDD000F975090278081222A89002FA1222C37487
:10CDE0000712206D1222C3E50A24FAF9AC0CAD0D2E
:10CDF00085148285158312CC841209877409122048
:10CE000037E9FE603912CF9812D2DBEF700302CF00
:10CE1000329002FDE0F5F0EF849002FCF07CFC7DA6
:10CE20000285148285158312CC84120321E96009DE
:10CE30009002FE12CC84121A4F790002CF458F085F
:10CE4000EF703BE4F512F51378121222A87CFF7DF7
:10CE5000FF791185148285158312CC841208F17430
:10CE60000212203712CFA8700912CF9812CFBC023D
:10CE7000CF459002F9E024049002FDF08035900245
:10CE8000F9E0F89002FDE0FAE82404FCE43400FD47
:10CE9000EC6A4D600302CE11E50A24FAFAE50B3480
:10CEA000FFFBE50828F8E43400F9EA98EB99500311
:10CEB00002CE11851082851183E0C0E09002FEE071
:10CEC0002FF8A3E034008882F583D0E0F00F8510BE
:10CED00082851183A3E0C0E012CF69D0E0F00F7427
:10CEE000021220778808890978081222A874021291
:10CEF000206D1222C3850E82850F8312C8BA1208D4
:10CF00001F74041220378A0C8B0DEA450D70030242
:10CF1000CD59740212206DE0C0E012CF69D0E0F06C
:10CF20000F740212206DA3E0C0E012CF69D0E002BE
:10CF3000CD61EE70027E0A850E82850F8312CF9E30
:10CF400012D2DBEEF974061220377F1002216390B3
:10CF500002FEE028FAA3E03400FB22F514A3E0343B
:10CF600000F515851482F5832212CF6D229002FE02
:10CF7000E02FFAA3E034008A82F5832212CF6D7489
:10CF8000FF2212D0EAA3A3A3A3E02212DE29850E7A
:10CF900082850F8312CC882285108285118312DD51
:10CFA00063851682851783229002FEEAF0A3EBF0D8
:10CFB0009002FE12DD63E8492212D2E1E8F0A3E913
:10CFC000F079112274EA12209174FE1220218A084D
:10CFD0008B098C128D13EA2405FEE43509FFAC1889
:10CFE000AD198E828F8312CC841208198A0C8B0D96
:10CFF000EE2406F50EE43FF50FEA450D700302D06E
:10D00000BCE5082402F50AE43509F50B8A828B8316
:10D01000A3A3A3E0A2E5502885188285198312CC2A
:10D020008412097B8A108B11EA4511602079121253
:10D03000CC7A85108285118312208FE9F50C707FE0
:10D04000850E82850F83E0600979528011750C0E80
:10D05000806D850882850983A3A3A3A3E0F9E4F585
:10D0600008F50978081222A88E828F83A3A3E0F521
:10D070000878081222A88E828F83A3A3A31222C34A
:10D080008E828F8312DC1812CC7E12098D740612E8
:10D090002037E9F50C7011850E82850F83E0702D25
:10D0A00012CC7E12032780257416650C7011750C46
:10D0B00000741812206D12D0E6E48010750C011275
:10D0C000DD5B851282851383E8F0A3E9F0850E828B
:10D0D000850F83E0600479008002A90C740212209D
:10D0E000377F0E02216312D0EA22E0F8A3E0F58335
:10D0F00088822274EC12209174F71220218A0A8B04
:10D100000B8C108D11EA2405FEE4350BFF750C0025
:10D11000AC18AD198E828F8312CC841208198A083C
:10D120008B09EA4509700302D2B2E50A2402F50A26
:10D130005002050B8A828B83A3A3A3E0A2E5502FA4
:10D1400085188285198312CC8412097B8A0C8B0D79
:10D15000EA450D604F7912AC08AD0912CC7E850C02
:10D1600082850D8312208FE9F50C600302D2B5850C
:10D170000A82850B83E0F508A3E0F509AA08FB12F3
:10D18000096FEA4B70197AFF7BFF12096FEA4B7047
:10D190000302D2A88A828B83E508F0A3E509F07523
:10D1A00008008008750C0E02D2B505089002F6E062
:10D1B000F8E508C398400302D2A885080E750F0051
:10D1C0007403780E12200E8A828B83A3A3E0250EAF
:10D1D000F8A3E0350F12D67C70D08E828F8312D2E6
:10D1E000D012C8C68E828F83A3A312D2D012C8C415
:10D1F000EE2404F508E43FF509850882F583E0880C
:10D20000828983A3A3A3A3F0A3E4F0EE2405F50E83
:10D21000E43FF50F850E82F58312D2D0A3A3A3A31A
:10D2200012C8C475120775130078121222A8EEFCFA
:10D23000EFFD740412207F1219C57402122037E426
:10D24000F51278121222A8850882850983E0FC7DF8
:10D2500000791712CC7E1208F1740212203774077D
:10D2600012206D12C8C6740712206DE0FA4B603DA3
:10D2700085088285098312D2C71222A8850E82856D
:10D280000F8312DC181219C57402122037740212AF
:10D29000208712CC7E12032DE96026740712206DC0
:10D2A00012CC84121A4F8019750C098008750C1164
:10D2B0008003750C0112DD5B85108285118312D20B
:10D2C000DBA90C74098028E0F508750900780822AC
:10D2D00012CC88888289832212D2E1E8F0A3E9F097
:10D2E00022E0F8A3E0F9850E82850F8322740412F0
:10D2F00020377F0C02216374EC12209112D3EB755E
:10D300001000EE2402F50CE43FF50D850C82F58348
:10D3100012CC8412096F8A088B09EA45097003024E
:10D32000D3CF850A82850B83E06401600302D3C4F6
:10D33000AC08AD09AA0AAB0B120963E9606E850857
:10D340008285098312C651EE2406F50AE43FF50BE7
:10D350008E828F83A3A31222C38E828F83A3A3A363
:10D36000A31222C3850A82850B831222C379188EE9
:10D37000828F8312D3FD12CC8412098D7406122081
:10D3800037E9F8741668700B850A82850B83E4F020
:10D39000A38014E860128E828F8312CC84850E8263
:10D3A000850F83EAF0A3EBF088108018780E122224
:10D3B000A8AC08AD09EEFAEFFB120969740212205D
:10D3C00037E9F510AA08AB09120975E510700E854A
:10D3D0000C82850D8312CC84120333800974166588
:10D3E000107003751000A91002D2F2EAFEEBFF8C58
:10D3F0000E8D0FEE2405F50AE43FF50B2212DE290F
:10D40000850C82850D832274EA12209175080075BF
:10D4100009007E007F00750A00EC2402F510E43D4F
:10D42000F5118035EC65087003ED6509600302D4E1
:10D43000BC88828983A3A3E06A7003A3E06B707C3D
:10D4400088828983A3A3A3A312DD5FEE28FEEF39B0
:10D45000FFEA28FAEB39FB050A12D58C503A850A07
:10D460000C750D007403780C12200E851082851146
:10D470008312D57F12D67C601FE508450970A58C04
:10D48000088D098882898312C64F88828983A3A365
:10D49000E02EFAA3E03F80BEE50AC39402500302E7
:10D4A000D57A750800750900EE4F6010EEFAEFFBB3
:10D4B000121A498A0E8B0FEA450F7005790002D5C2
:10D4C0007C750B0002D54F850B0C750D007403782D
:10D4D0000C12200E851082851183E0250CF50CA31B
:10D4E000E0350DF50DE50C2406F514E4350DF515C4
:10D4F000851482F58312D6816042E50C2404F5126E
:10D50000E4350DF513851282F5831222C3E50E254D
:10D5100008FAE50F3509FB1219C574021220378588
:10D520001282851383E02508F508A3E03509F50983
:10D5300085148285158312CC84121A4FE50B600D79
:10D540007C087D007900AA0CAB0D1219DD050BE5F6
:10D550000BC3950A500302D4C7851082851183122C
:10D56000DD5F88828983A3A3A3A3A3A3E50EF0A311
:10D57000E50F12C1E2EEF0A3EFF0790102D0E11263
:10D58000D58322E0250CF8A3E0350D229002F6E0C9
:10D59000F8E50AC3982274F01220918A0E8B0F8C42
:10D5A0000A8D0B750D00750C0080507916EE24065F
:10D5B000F508E43FF5098E828F83A3A31222C38E60
:10D5C000828F83A3A3A3A31222C385088285098324
:10D5D0001222C3850E82850F83A3A312CC84120965
:10D5E0008D7406122037E9F50D7416650D706C8583
:10D5F0000882850983E4F0A3F0050C9002F6E0F8B8
:10D60000E50CC3985066AA0C8A0875090074037863
:10D610000812200E850A82850B83A3A312D6CBE8BD
:10D62000FEE9FF8E828F8312D6816040EA2401F5E5
:10D6300008E43400F5099002F6E065087002E50997
:10D64000601488828983A3A3A3A3A3A3A3A312CC5A
:10D65000B3600302D5AB791802D5ADE9609B12DD4A
:10D660005B741012206D12D67312D2DBA90D7F08E5
:10D67000022163E0FAA3E0F5838A8222F988828995
:10D680008312DE29EC4D2274F61220917C00800179
:10D690000C900353E0F8ECC398501E8C08750900F9
:10D6A0007402780812200E12D6C0E06A7003A3E05C
:10D6B0006B70DDE8FAE9FB80047A007B0002D76337
:10D6C0009002F412D6CB8882898322E02508F8A341
:10D6D000E03509F92274F21220918A088B09750A43
:10D6E0000080278E828F83A3A3A3A312C1D96003D6
:10D6F000121A4F7C087D007900EEFAEFFB1219DD5B
:10D700008E828F83E4F0A3F0050A12D58C50278512
:10D710000A0C750D007403780C12200E85088285A2
:10D720000983A3A3E0250CFEA3E0350DFF8E828FB5
:10D730008312CCB370AD85088285098374FFF0A392
:10D74000F002DE1D74F61220911209218A828B8369
:10D75000E582458370067A007B008007A3A3A3A31C
:10D7600012CC847F0202216374F412209189088C08
:10D77000828D83E06402703C12DD51FEA3E0F9EE7D
:10D78000F874026870037429697029750A02750BB0
:10D7900000780A1222A8741012206D1222C374108D
:10D7A00012206D1222C3A9081218277406122037FE
:10D7B000E9F98002790102C21674E812209174FB23
:10D7C000122021E9851882851983F08A168B17ECBF
:10D7D000FEEDFF7510008E828F83A3A3A3E0A2E469
:10D7E000502D741D12206D12CC8412097B8A828BFD
:10D7F00083E5824583700302DBF0790AEEFCEFFDDE
:10D80000AA16AB1712208FE9F510600302DBF37440
:10D810001F12206DE0F508A3E0F509742112206DB8
:10D82000E0F50AA3E0F50B742312206DE0F50EA3DA
:10D83000E0F50F8E828F83E06402600302DB91A328
:10D8400012DD5F850882850983A385821285831393
:10D85000EE2406F50CE43FF50D8882898312DC3056
:10D86000F514E439F51578141223CB0100002801D2
:10D870002893D80700022858D90328C6D80029873A
:10D88000DA0129B2DA022953DA032987DA04292BCB
:10D89000DB91DBE50E450F600302DB8C850C828596
:10D8A0000D8312DD5FE8FAE9FB8A828B83E0850A4B
:10D8B00082850B8312DC3B1222A88A828B83A3E031
:10D8C000FCA3E002DB15E50E450F600302DB8C854F
:10D8D0000A82850B837401F012DC25850882850994
:10D8E00083F07C007D008E828F83A3A3A3A3E0241A
:10D8F00001FAA3E03400FB120819EA4B60408A8267
:10D900008B83E02402F8850A82850B83E028F0EA05
:10D910002404F8E43BF988828983E0851282851328
:10D920008312DC4912DC3B1222A88A828B83A31269
:10D93000DC18E5082403FAE43509FB02DB1A850A42
:10D9400082850B83E02404F07C047D007900AA1218
:10D95000AB131219DD02DBF3E50E450F600302DBAA
:10D960008C12DC25FEA3E0FF850A82850B837404FC
:10D97000F0EE850882850983F0EF85128285138396
:10D98000F07403122087EEFAEFFB1208198A0C8B51
:10D990000DEA450D700302DA368A828B83A3A31247
:10D9A000C64F7401122077880E890F780E1222A8B4
:10D9B000740512206D1222C37CFF7DFF12081F74B4
:10D9C000041220378B0FEA450F7033850C82850DCA
:10D9D0008312DC1C1222A8850C82850D83A31222DF
:10D9E000C37C027D007A9A7B911204657404122034
:10D9F00037E9700A740112206D74FFF0A3F08E8273
:10DA00008F83E064027039750C02750D00780C127A
:10DA100022A88E828F83A312DC18E5082404FAE47E
:10DA20003509FB1219C57402122037850A82850B4D
:10DA300083E024028009740112206DEEF0A3EFF060
:10DA4000740112206D12DC0A740112206D12DC01C7
:10DA500002DB86E50E450F600302DB8C850C8285B8
:10DA60000D8312DE22AA16AB1712182D850A8285A5
:10DA70000B837402F0850882850983EAF08512829F
:10DA8000851383EB02DB89E50E450F600302DB8C17
:10DA900012DC25F8A3E0F9850A82850B837402F075
:10DAA000E8850882850983F0E9851282851383025F
:10DAB000DB89850C82850D8312CC841219BFEAFAAA
:10DAC000F8C3950EE4950F405CE8650E450F7004B1
:10DAD0007A008021851882851983E0FCE50E2CFCF4
:10DAE000E4350FFDC3EC98ED94005003E08005E5AC
:10DAF0000ECAC39AFAEA850A82850B83F08A0A75F0
:10DB00000B00780A1222A8850C82850D83E0250E71
:10DB1000FCA3E0350FFDAA08AB091219C574021267
:10DB2000203702DBF375100702DBF3E50E450F70BB
:10DB30005B850C82850D8312DD5F850A82850B83F0
:10DB40007407F08882898312DC0212DBFAE0851206
:10DB500082851383F0E82402FAE439FB8A828B83FE
:10DB600012DC0A8A828B8312DC01A3A312C1E112A8
:10DB7000DC0FF0E82405F85001098882898312DC63
:10DB80000FA312DC49A3A3A3A3F0806775100B8039
:10DB900062741D12206D12CC841209218A828B833B
:10DBA000E5824583604A12DD5F880C890DE8450DEA
:10DBB000603E742512206DE0F51078101222AC78CA
:10DBC0000E1222A8780A1222A878081222A8740736
:10DBD00012206DE0F9EEFCEFFDAA16AB17850C8262
:10DBE000850D8312208F7407122037E9F51080030A
:10DBF00075100EA910740502CF47F088828983A39F
:10DC000022A3E08508828509832212DC50F02212CB
:10DC1000DC50A3A3229002FA12DE2922E0F50E7551
:10DC20000F00780E22850C82850D8312D0EAE02247
:10DC3000E0FAA3E0F8E4C8F9EA2822F08A828B83AC
:10DC4000E0F50A750B00780A2212DBFA12DC50228A
:10DC5000E0850882850983A3A32274EE12209174C3
:10DC6000FE1220218A088B09ECFEEDFF890AAC1810
:10DC7000AD19EEFAEFFB1208198A0C8B0DEA450D6F
:10DC8000700302DD4285188285198312CC84120943
:10DC9000218A828B83E5824583700302DD3DA3A345
:10DCA00012DD5F880E890FE8450F700302DD3D74B9
:10DCB0001412206DE0F510A3E0F511E50AF50B78DC
:10DCC0000B1222AC741912206D1222C3781012228A
:10DCD000A8741B12206DE0F9AC0CAD0DAA08AB09BD
:10DCE000850E82850F8312208F7405122037E9F587
:10DCF0000B705274FE650A604C850C82850D83E0C2
:10DD00006402704112DD51FAA3E0F9EAF874026886
:10DD10007003742969702E85108285118312DC309E
:10DD2000F50CE439F50D780C1222A8EEFCEFFDAAF3
:10DD300008AB0912099974021220378008750B0E7E
:10DD40008003750B01A90B74021220377F0A022190
:10DD500063A312DD6388828983E0228E828F83121F
:10DD6000DD6322E0F8A3E0F92274F212209174FE40
:10DD7000122021EAFEEBFF890A7401650A6014741F
:10DD800002650A600302DE187901120D41E96003A1
:10DD900002DE18EEFAEFFB12096FEA4B600312097C
:10DDA00075A818A9198808890978081222A8750881
:10DDB0000275090078081222A875089475099178EF
:10DDC000081222A87CFF7DFF7A017B0012081374E1
:10DDD000061220378038850882850983A3A3A3A370
:10DDE000A3A312DE22EEFAEFFB121821E4F50CF5E4
:10DDF0000D780C1222A8740212206D1222C37CFF2F
:10DE00007DFFAA08AB0912081F74041220378A0884
:10DE10008B09E508450970BE74021220377F06029F
:10DE2000216312D0EA12DE2922E0FCA3E0FD227475
:10DE3000F41220918A088B09ECFEEDFF901A99E00C
:10DE4000F4604B7A097B001219E9EA4B60408A8240
:10DE50008B8374B1F0A3E412DE91F08A828B83A3EA
:10DE6000A3E508F0A3E50912DE91A3EEF0A3EFF01D
:10DE7000740C12206D12DD5F8A828B83A3A3A3A38F
:10DE8000A3A3A312D2DB901A99E0F91219F502C2EA
:10DE900016F08A828B83A3A3A3A32274F712209186
:10DEA0009002EDE075F01FA4FAABF0121A9D9002FB
:10DEB000E712E93C9002E712E94270047913807995
:10DEC0007E00803474FFF0A3F08A828B83A3A3E4E6
:10DED00012DF3C74FF12DF4112DF3CA3E4F0EA24BE
:10DEE0001EF582E43BF583E4F07C16FDF9EA240894
:10DEF000FA50010B1219DD0E9002EDE0F8EEC39816
:10DF00005020EE75F01FA4F8A9F09002E7E028FA7F
:10DF1000A3E039FBEE8A828B8370A974FEF0A30420
:10DF200080A67A9B7B071208AF7AE37B0712029DDB
:10DF30007AEF7B07120D23790002E25412DF41A32E
:10DF400022F08A828B83A3A3A3A3A322C082C083CF
:10DF5000E9901A95F0D083D08202011F74F4122048
:10DF60009174FE1220218A088B09ECFEEDFF890BCB
:10DF7000AC18AD191207D1E9F50A7039EEFCEFFDC6
:10DF8000AA08AB091202A3E9F50A7029E50BF50806
:10DF900078081222AC75086F75090378081222A858
:10DFA0007903EEFCEFFDE912206D12E88D1207CB2C
:10DFB000740312203702E04274F412209174E912C3
:10DFC0002021EAFEEBFF8909740212206D7401F032
:10DFD000A3E4F0740412206D74FFF0A3F074061231
:10DFE000206D7402F0740712206DE4F074081220A2
:10DFF0006D7428F0AC18AD191207D1E9F508703C22
:10E000007402122087EEFAEFFB1202CDE9F50870D8
:10E010002BE509F50A780A1222AC750A1D750B0466
:10E02000780A1222A879117405122087740312202D
:10E030006D12E88D1207CB7403122037A9087417EC
:10E040008004A90A74021220377F0402216374F24B
:10E0500012209174E91220218A088B09ECFEEDFF51
:10E06000890B7402650B60097410650B600302E193
:10E0700005EE4F700302E105AC18AD191207D1E9A6
:10E08000F50A600302E108740212206D7401F0A326
:10E09000E4F0740412206D74FFF0A3F074061220F3
:10E0A0006DE50BF0F50C750D00780C1222A8EEFC56
:10E0B000EFFD740912206DAA82AB831219C5740298
:10E0C0001220377402122087AA08AB09120771E9DF
:10E0D000F50A7034742512206DE0F50878081222D4
:10E0E000AC75089F75090378081222A87907740592
:10E0F000122087740312206D12E88D1207CB74036F
:10E100001220378003750A02A90A741702E64674C2
:10E11000F712209174EB122021E9FE8518828519EF
:10E1200083ECF0A3EDF0741E12206D12E56B12204B
:10E130006D12E56312206D7402F0740512206D7487
:10E140000202E22F74F712209174EB122021E9FEF3
:10E15000851882851983ECF0A3EDF0741E12206DF2
:10E1600012E56B12206D12E56312206D7402F074DB
:10E170000512206D740302E22F74F7122091E9F565
:10E180000878081222AC7901120777740102E25173
:10E1900074F412209174FA122021EAFEEBFF89092F
:10E1A000740212206DECF0A3EDF0741212206D12C7
:10E1B000F2FB740412206DE812F727AC18AD1912A7
:10E1C00007D1E9F508703B7402122087EEFAEFFBE5
:10E1D0001202A9E9F508702AE509F50A780A12225F
:10E1E000AC750A87750B03780A1222A87905E91223
:10E1F0002087740312206D12E88D1207CB7403126E
:10E200002037A908740602E04674F712209112071D
:10E210007D804174F7122091E9F50878081222AC4C
:10E22000790002E18874F71220911207838025F0AB
:10E23000740612206D7428F0EEF50878081222ACEE
:10E240007900740112208712077774011220377445
:10E25000151220377F0102216374F412209174FE9D
:10E26000122021EAFEEBFF8C088D09890BAC18AD5A
:10E27000191207D1E9F50A703AAC08AD09EEFAEFC8
:10E28000FB1202C7E9F50A702AE50BF508780812B7
:10E2900022AC75081175090478081222A8790F7C40
:10E2A000007D00740312206D12E88D1207CB7403F9
:10E2B00012203702E04274F612209174FE122021DF
:10E2C000EAFEEBFF8C088D09AC18AD191207D1E9F5
:10E2D000F97417696030850882850983A3A3A3A315
:10E2E000A3E07020850882850983A3A3A3A3A3A329
:10E2F000E06401700FAC08AD09EEFAEFFB1202D337
:10E30000E9F98002790202F77D74F612209174FE19
:10E31000122021EAFEEBFF8C088D09AC18AD191212
:10E3200007D1E9F97417696032850882850983A3EA
:10E33000A3A3A3A3E064017020850882850983A3B9
:10E34000A3A3A3A3A3E06401700FAC08AD09EEFA88
:10E35000EFFB1202D3E9F98002790202F77D74F72C
:10E3600012209112078902E25474F71220911207C9
:10E370008F02E25474F412209174F8122021EAFE04
:10E38000EBFF8C088D09890AEC4509700302E485CE
:10E39000E9700302E485120477EAFD7C00ED24FBBA
:10E3A000FAE434FFFBEC75F007A4F885F00BA90B39
:10E3B000E50828F582E50939F583A3A3A3A3E0F8CE
:10E3C000C3EA98EB9400A2D265D0335005791B02C2
:10E3D000E48A0CECC3950A40C4AC18AD19EEFAEF10
:10E3E000FB1207D1E9F50B600302E48885088285FA
:10E3F0000983A3A3A3A3A31222C38508828509834B
:10E40000A3A31222C3850882850983A3A3A3A3E043
:10E41000F912E8761207957404122037E9F50B70AB
:10E4200067740512206DE50AF0740312206DE5088B
:10E43000F0A3E509F0740612206DE4F074141220C4
:10E440006DE0C0E0740712206DD0E0F0740212207D
:10E450006D7401F0741512206DE0F5087808122231
:10E46000AC75083575090478081222A87917740567
:10E47000122087740312206D12E88D1207CB7403EB
:10E480001220378003750B02A90B740802E04602C4
:10E49000E20902E22502E35E02E36974F2122091CE
:10E4A00074F61220218A0A8B0BECFEEDFFEE240499
:10E4B00012F94C1222A8850882850983E0FC7D00B0
:10E4C00079061208F17402122037740812206D12B6
:10E4D000E93C740812206D12E942607E8E828F83BF
:10E4E00012F2FB851882851983E8F0A3E912F72C54
:10E4F00012E56B12206D12E56312206D7402F07448
:10E500000512206DE4F0740612206D7428F0850861
:10E5100082850983E0F508740712206DE508F0751F
:10E52000090078081222A8EE2405FCE43FFD740AD5
:10E5300012206D12E88D1219C57402122037AC1822
:10E54000AD19AA0AAB0B1202AFE9FE600F740812F4
:10E55000206D12E88D121A4F80027E13EEF9740AB4
:10E5600002E646E8F0A3E9F074042212F2FF740216
:10E570002274F212209174D3122021EAFEEBFF8C58
:10E58000088D09890BAC18AD191207D1E9F50A609D
:10E590000302E642E50B604185088285098312E5A6
:10E5A0006B12206DE812F72785088285098312F225
:10E5B000F9740412206DE812F727740612206D74A6
:10E5C00002F0740712206D7403F0740812206D7449
:10E5D00028F074021220878004AC08AD09EEFAEF2F
:10E5E000FB1202B5E9F50AE50A7057750C15750DB1
:10E5F00000780C1222A8AC08AD09741A12206DAA7A
:10E6000082AB831219C57402122037741712206D61
:10E61000E50BF0743B12206DE0F50878081222AC8F
:10E620007508B775090378081222A87909741A12B7
:10E630002087740312206D12E88D1207CB74031229
:10E640002037A90A742D1220377F0602216374F443
:10E6500012209174FE122021EAFEEBFF8C088D0936
:10E66000890BAC18AD191207D1E9F50A703AAC085C
:10E67000AD09EEFAEFFB1202BBE9F50A702AE50BD1
:10E68000F50878081222AC7508CF750903780812CE
:10E6900022A8790B7C007D00740312206D12E88D96
:10E6A0001207CB740312203702E04274F412209157
:10E6B00074FE1220218A088B09ECFEEDFF890BAC59
:10E6C00018AD191207D1E9F50A703AEEFCEFFDAA70
:10E6D00008AB091202C1E9F50A702AE50BF50878C2
:10E6E000081222AC7508F975090378081222A87976
:10E6F0000DEEFCEFFD740312206D12E88D1207CBB6
:10E70000740312203702E04274F412209174FE1256
:10E710002021EAFEEBFF8C088D09890B8C828D830A
:10E72000A3A3A3A3A3E070558C828D83A3A3A3A36B
:10E73000A3A3E07048AC18AD191207D1E9F50A702F
:10E740003FAC08AD09EEFAEFFB1202D3E9F50A700F
:10E750002FE50BF50878081222AC7508E17509035E
:10E7600078081222A879137C007D00740312206DB2
:10E7700012E88D1207CB74031220378003750A024A
:10E7800002E04274EE12209174F4122021EAFEEBB2
:10E79000FF8C088D09890BAC18AD191207D1E9F56A
:10E7A0000E600302E86AEEFAEFFB12047785088236
:10E7B000850983A3A3A3A3E0FCF8EA24FBFA12EEE5
:10E7C0003150048C0A800CEEFAEFFB120477EA2435
:10E7D000FBF50AE5082402F50CE43509F50D85087A
:10E7E00082850983A3A3A3A3A31222C3850C8285D8
:10E7F0000D831222C3A90A12E87612079574041237
:10E800002037E9F50E7063740212206DE4F0751084
:10E8100007F51178101222A8AC08AD097405122072
:10E820006DAA82AB831219C57402122037850C823F
:10E83000850D8312F2FB740A12206DE812F727E5AA
:10E840000BF50878081222AC7508357509047808AC
:10E850001222A879177405122087740312206D12F2
:10E86000E88D1207CB7403122037A90E740C122006
:10E87000377F0A02216385088285098312EC37EE0F
:10E88000FAEFFB22F0AC18AD198E828F8312EC5098
:10E890002274F012209174F9122021EAFEEBFF8C11
:10E8A000088D09890C890A750B00E4F50EF50F78BF
:10E8B0000E1222A8AC0AAD0B79161208F1740212DE
:10E8C0002037740512206D12E93C740512206D1278
:10E8D000E942605A851882851983E508F0A3E509A5
:10E8E000F0741712206D12E56B12206D12E56312A1
:10E8F000206DE50CF0780A1222A8741B12206D120C
:10E90000EC33740712206D12E88D1219C5740212CF
:10E910002037AC18AD19EEFAEFFB1202D9E9FE6010
:10E920000F740512206D12E88D121A4F80027E13AB
:10E93000EEF974071220377F08022163EAF0A3EB97
:10E94000F02212F2FFE8492274E812209174EA12D0
:10E9500020218A088B098C0A8D0B7E007F008C8217
:10E960008D83E07051A3858212858313E06401607A
:10E9700045EC2402F514E4350BF515851482F58376
:10E98000E0F8EC2405F510E4350BF511EC2403F563
:10E990000CE4350BF50D742E12206DE0F516A3E096
:10E9A000F517741B686008741D68600302EA9F9085
:10E9B0001A95E0F47005790602EC15741D68704430
:10E9C0001207D78A0E8B0FAE0EAF0FEE4F6035EEEB
:10E9D0002407F50EE43FF50F850E82F583E0FC6019
:10E9E00023A2E7500302EAAE851482851583E0F97D
:10E9F000AA08AB091208E5850E82850F83E0D2E7ED
:10EA0000F002EAAEA818A919880E890F780E122212
:10EA1000A8850C82850D831222C3851082851183FF
:10EA200012EC33851282851383E0FA850A82850B06
:10EA300083E0F91204537404122037E9F50A6003E5
:10EA400002EC13A818A919880A890B780A1222A8BF
:10EA500012EC1F901A95E0F91208CD7402122037BB
:10EA6000E9F50A600302EC13740312206D12E94207
:10EA70006008851682851783E4F0851482851583E6
:10EA8000E0641D600302EC13EE4F700302EC138E82
:10EA9000828F83A3A3A3A3A3A3A3741D02EB52128B
:10EAA00007D78A0A8B0BAE0AAF0BEE4F70057900C1
:10EAB00002EC15EE2402F50EE43FF50F8514828575
:10EAC0001583E0F8740168600302EB56A818A919D1
:10EAD000880A890B780A1222A812EC3D1203577497
:10EAE00002122037E9F50AE50A600302EC13850EED
:10EAF00082850F83E0F8740568602B7407686026D0
:10EB00007409686021740D68601C74116860177462
:10EB10001768707C8E828F83A3A3A3A3A3A3A3A350
:10EB2000A312E942606AA818A919880C890D780C0B
:10EB30001222A8851482851583E0F9EEFCEFFDAA68
:10EB400008AB091207A17402122037E985168285E5
:10EB50001783F002EC13850E82850F83E068702A1C
:10EB60008E828F83A3A3A312EE3B450B601CA818D3
:10EB7000A9198812891378121222A812EC3D850A6D
:10EB800082850B8312208F02EADF750A0402EC13E0
:10EB90008E828F83A3A3A3A3A3A3E0F50B9002EE21
:10EBA000E0650B603DA818A919880C890D780C1236
:10EBB00022A812EC1FA90B1208CD7402122037E90B
:10EBC000F50A701E851482851583E0F9AA18AB1921
:10EBD0001208EB8B0DEA450D6008851682851783B8
:10EBE000E4F0850E82850F83E06403701F85188230
:10EBF0008519831222C38E828F83A3A3A312EC2EC6
:10EC0000AA08AB091208DF7402122037EEFAEFFBF4
:10EC10001207DDA90A74161220377F1002216385BE
:10EC20001482851583E0FD7C00AA08AB0922A3A30A
:10EC3000A3A3A312EC3722E0FCA3E0FD22850C8203
:10EC4000850D8312EC3785108285118312EC5022DA
:10EC5000E0FAA3E0FB2274E81220918A128B13ECF5
:10EC6000FEEDFF8908750E01741812206D12EE3B3F
:10EC70002403F510E4350BF51112F4CEEE2402F561
:10EC800016E43FF517851682F583E024FB601D240A
:10EC9000FE604824FE605124FC605A24FC7003028C
:10ECA000EDE224FA700302EDF002ED67AC0AAD0B61
:10ECB000EEFAEFFB1207A7E9F509E509600302ED9B
:10ECC0006A74016508600302ED6A8510828511830C
:10ECD000E0640A600302ED7902EDB4AC0AAD0BEE1C
:10ECE000FAEFFB1207AD80CFAC0AAD0BEEFAEFFBEB
:10ECF0001207B380C212EF77740D650870518882D5
:10ED00008983E004F012E889120477850A82850B72
:10ED100083E0F8EA24FF1A12EE314045850C828523
:10ED20000D83A3A3E028F0A3E03400F0AC0CAD0DFC
:10ED300012E8891202C190914E121EF78E828F83C3
:10ED4000A3A3A3A3A3E0F9121A73750916802A8559
:10ED50001082851183E06407700D88828983E060EA
:10ED60000675090002ECC17509017409650870098E
:10ED7000850A82850B83E06037780A1222A8AD08E5
:10ED80007C00AA12AB138E828F83A3A3A3A3A3A399
:10ED9000E0F91208CD7402122037E97013A908AA0D
:10EDA0000AAB0B1208EB8B0BEA450B6003750E00E8
:10EDB000E509706BE4F50AF50B780A1222A88516AE
:10EDC00082851783E0FD7C1AAA12AB138E828F8393
:10EDD000A3A3A3A3A3A3E0F91208CD7402122037C2
:10EDE0008043AC0AAD0BEEFAEFFB1207B902ECB7A9
:10EDF000850C82850D83E06401AC0AAD0B7009EED1
:10EE0000FAEFFB1207C58007EEFAEFFB1207BFE926
:10EE1000F50974016509700302ED6A7901800F74C8
:10EE20001665096007EEFAEFFB1207DDA90E02EC8A
:10EE30001AEB34FFFBC3E89AE49B22E0F50AA3E057
:10EE4000F50BE50A2274F4122091EAFEEBFF890823
:10EE5000ECF8EDF9EE241EFAE43FFB74056508704A
:10EE60007A12EF6F8A828B83E004F0E82402FAE4DE
:10EE700039FB88828983A3E0640188828983700FCB
:10EE800012EF7F12200E8A828B8312EFA78020E080
:10EE900075F012A4F885F009A9098A828B8312F60D
:10EEA0007824EEF582E934FFF583E0FAE824EF12E6
:10EEB000EF8A503EE8240150010912F72312E88935
:10EEC0001202A990914E121EF78E828F83A3A3A3E4
:10EED000A3A3E0F9121A737916801988828983A393
:10EEE000A3A3E0640A70078A828B83E0700479012F
:10EEF0008002790002E04974F4122091EAFEEBFFEF
:10EF00008908ECFAEDFB12EF77740765087044127C
:10EF1000EF6F88828983E004F08A828B8312EF7F0F
:10EF200012200EA312EFA712EF8A503EE8240150E0
:10EF3000010912F72312E88912077190914E121EEF
:10EF4000F78E828F83A3A3A3A3A3E0F9121A737988
:10EF50001680198A828B83A3A3A3E0640A700788B2
:10EF6000828983E0700479018002790002E049EE31
:10EF70002408FCE43FFD22EE241EF8E43FF922E0E1
:10EF8000F50A750B007402780A22F582E934FFF560
:10EF900083E0F8E4C8F9EA28F88C828D83A3A312F1
:10EFA000EC50E89AE99B22E0250AF8A3E0350BF93A
:10EFB000E824FCF582E934FFF583E0FAE824FD2239
:10EFC00074E812209174E8122021740112206D124D
:10EFD000E93CE9851882851983F0ECFEEDFF7401A8
:10EFE00012206DE02408F510A3E03400F511E510BF
:10EFF0002406F514E43511F515E5102405F516E49D
:10F000003511F517740112206DE0241EF508A3E0F8
:10F010003400F5098E828F83A385820C85830D854C
:10F020001882851983E06409600302F12D12F2E170
:10F0300014A4F8850882850983E00412F72CE028DF
:10F0400012F3A4E0FAA3E0F8E4C8F9EA28F508E42A
:10F0500039F509851082851183E06401600302F2AD
:10F0600028750F0012F2E1A4851882851983F08EAD
:10F07000828F83E4F0750E00851882851983E0F88D
:10F08000E50EC398400302F228850E0A850C82859E
:10F090000D83E024FBF512E434FFF51378121222FD
:10F0A000A88E828F83A3A3E0250AF8A3E03400880A
:10F0B00082F583A3A3A3A3A3858212858313781269
:10F0C0001222A8851682851783E0FC7D00AA14AB66
:10F0D000151204657404122037E96043E50F650ECC
:10F0E000602B8E828F83A3A312F88FE0F512751325
:10F0F0000078121222A8EA250AFCE43BFDA80FEAD8
:10F1000028FAE43BFB1219C57402122037850C82E1
:10F11000850D83E0250FF50F8E828F83E004F08547
:10F120000C82850D83E0250EF50E02F078EE2403A7
:10F13000FE50010F8E828F83E0640A700C85088276
:10F14000850983E0600302F2DA851682851783E081
:10F15000F50A750B00780A1222A878141222A87CEE
:10F16000027D007A9C7B911204657404122037E9B9
:10F17000600302F2AC851682851783E0F50A780AEF
:10F180001222A878141222A87C027D007A9A7B9120
:10F190001204657404122037E9600302F2AC85168C
:10F1A00082851783E0F50A780A1222A878141222C1
:10F1B000A87C027D007A987B911204657404122069
:10F1C00037E9600302F2AC851682851783E0F50A01
:10F1D000780A1222A878141222A87C027D007AA450
:10F1E0007B911204657404122037E9600302F2ACCB
:10F1F0008E828F83E0F8740268601774056860126D
:10F20000740868600D740F686008740C686003020D
:10F21000F2AC850882850983E004F0850C82850DB7
:10F2200083E0F508A3E0F50974FF6508700474FF36
:10F230006509700302F2DAE5102403F8E43511F9E8
:10F240008882898312E88DC3E5089AE5099B40030B
:10F2500002F2DAE5082401FAE43509FB851082851B
:10F260001183A3AC82AD8312E93C851082851183A2
:10F27000E06401703B740312206D12E93C888289BE
:10F280008312F2FB740512206DE812F7277407123F
:10F29000206D7402F0740812206D7403F07409126A
:10F2A000206D7428F0740312208780047901802C6B
:10F2B000740112206D12F2F012E88D1202B59091D5
:10F2C0004E121EF7740112206D12F2F0A3A3A3A335
:10F2D000A3E0F9121A73791680027900741802EC0F
:10F2E00017850C82850D83E0F5F08E828F83E022F6
:10F2F000E0F8A3E0F583888222A3A312F2FF22E0C4
:10F30000F8A3E0F92274F7122091EAFEEBFF8908D6
:10F3100012EF77741165088C828D83A3703BE0F542
:10F32000F08C828D83E014A4FA88828983E004F053
:10F330008C828D83A3A3E02A12F3A4A3A3E0FA880E
:10F34000828983A3A3A3E0F9EAF874FF68700374C9
:10F35000FF697017790002E254A3A3E0640A700702
:10F3600088828983E070ED790180EB12EF6FE824E9
:10F37000010850010912F7238C828D83A3A3C3E0F7
:10F3800098A3E09940CE12E8891202CD90914E12D6
:10F390001EF78E828F83A3A3A3A3A3E0F9121A738F
:10F3A000791680B2F8A3E03400F988828983227448
:10F3B000EE12209174FF122021EAFEEBFF890A125F
:10F3C000FA467417650A600302F49C12F4CE12E840
:10F3D00089120477E50C2408F8E4350DF9EA24FBDA
:10F3E000FCEB34FFFD88828983E02CF0A3E03DF044
:10F3F00088828983E0F50EA3E0F50F850C82850DE8
:10F4000083A312F2F9E50EC398FCE50F99FD850C74
:10F4100082850D83A3A3A3A3A3E0F50BF8C3EC9807
:10F42000ED9400506DEA24FBF510EB34FFF511E884
:10F43000C39CF8E49DF9C3E51098E511995005EADD
:10F4400024FB8006ECF8E50BC398F9850C82850D4A
:10F4500083A3A3A3A3A3A3E02CF510A3E03DF51180
:10F4600078101222A8780E1222A8850C82850D83AE
:10F47000A312F6891207957404122037E9701D90C3
:10F48000914E121EF7850882850983E0F9121A73DE
:10F4900080358518828519837401800785188285D7
:10F4A0001983E412E8841202DF7401650A7004799A
:10F4B00001801690914E121EF7850882850983E01F
:10F4C000F9121A7312F6607916740102E86EEE24CE
:10F4D00008F50CE43FF50D2274EC12209174FF1234
:10F4E0002021EAFEEBFF890CEE2408F508E43FF545
:10F4F00009EE2405F510E43FF5117417650C60035F
:10F5000002F629E5082404F50AE43509F50B850817
:10F5100082850983A385820E85830F850A82F58300
:10F52000E075F007A4F8A9F0850E82850F8312F626
:10F5300078FAE9FB8A828B8312F681E0687003A374
:10F54000E069600302F6298A828B83A3A312F68105
:10F55000A3A3E0687003A3E069600302F6298C822C
:10F560008D83A3A3A3A3E0F5128A828B83A3A3A315
:10F57000A3E06512600302F62975130078121222C7
:10F58000A88C828D8312EC2E8A828B83A3A3A3A3E3
:10F59000A312E88D1219D77402122037E970030202
:10F5A000F629850A82850B83E004F0F885088285B8
:10F5B0000983A3A3A3E0F9E8C3995059E875F007BC
:10F5C000A4F8A9F0850E82850F83E028FAA3E0391C
:10F5D000FB8A828B83A3A3A3A3A31222C38A828B59
:10F5E00083A3A31222C38A828B83A3A3A3A3E0F9DC
:10F5F0008A828B8312F6891207957404122037E9E8
:10F60000702790914E121EF7851082851183E0F9C4
:10F61000121A73803F850882850983A3A3A3A3A33D
:10F62000E08518828519838007851882851983E40F
:10F6300012E8841202DF7401650C700479018016EF
:10F6400090914E121EF7851082851183E0F9121AEF
:10F650007312F660791674011220377F0C02216351
:10F660008E828F83A3A37419F08E828F83A3A3A3AA
:10F670007447F0A37404F022E028F8A3E039F9E815
:10F680002212F2FF8C828D832212EC378E828F83BE
:10F6900012EC502274F2122091EAFEEBFF8C088DDE
:10F6A00009890B741012206DE0F50A74FF650A6079
:10F6B0006FEE2405F50CE43FF50D780C1222A875C9
:10F6C0000C1E750D00780C1222A8EEFCEFFD7AE9F5
:10F6D0007B071208D374041220378E828F83A3A372
:10F6E000A3A3A3A3E50A12F72CE50BF0740E1220D6
:10F6F0006D12F2FB8E828F83A3A3A3E812F727E596
:10F70000084509601B750C16780C1222A8AC08ADD0
:10F7100009EE2408FAE43FFB1219C57402122037DF
:10F7200002E6498C828D83F0A3E9F022F08E828F6D
:10F7300083A3A32274F6122091ECFEEDFF1207D7EB
:10F740008A088B09A808A909E849602DEE4F6008CE
:10F750008E828F83E812F72788828983A3A3A3A3CD
:10F76000A3E0F874FE6870047917800F74FF687066
:10F7700004790080067916800279028005740212ED
:10F7800020377F02022163C082C0837C0080010C8D
:10F790009002EDE0F8ECC3985025EC75F01FA4F84A
:10F7A000A9F09002E7E028F8A3E039F9888289837C
:10F7B000E06A7003A3E06B70D6E8FAE9FB80047A94
:10F7C000007B0002DF5574EF122091EAFEEBFFEEA2
:10F7D0002405FAE43FFB1208D9EE240212F93FF89F
:10F7E000EE2408F50EE43FF50F74176860057419F0
:10F7F000687070850E0C850F0D850C82850D83E079
:10F800006401704CA385820885830912E942605324
:10F810007510008022E51075F007A4F8A9F0EA2819
:10F82000F582EB39F583A3A3A3A3A312E88DEA4BDA
:10F830006003121A4F051085088285098312F88F1C
:10F84000A3A3A3E0F8E510C39840CA121AA380133B
:10F85000EE240EF582E43FF58312E88DEA4B600357
:10F86000121A4F850A82850B83E412F72CA3A3A3F7
:10F87000A374FFF0EE241EF582E43FF583E4F07CF0
:10F8800016FDF9AA0EAB0F1219DD7F0902216312D2
:10F89000EC50850C82850D832274F6122091E9FECE
:10F8A0001207D78A088B09A808A909E849601BE84C
:10F8B0002407F582E439F583EEF8E07B002401505B
:10F8C000010B684B7004E05480F002F78274F2126E
:10F8D000209174FF122021EAFEEBFFEE4F605BEEF9
:10F8E000240512F93FF46052EE240212F94C122260
:10F8F000A8850882850983E0FD7C1712E8898E823D
:10F900008F83A3A3A3A3A3A3E0F91208CD740212CB
:10F910002037850882850983E06418700D85188278
:10F92000851983E412E8841202DF850A82850B833D
:10F9300074FEF0EEFAEFFB1207DD740102E646F505
:10F940000AE43FF50B850A82F583E022F508E43FDF
:10F95000F509E4F50CF50D780C2274F01220918A6B
:10F960000A8B0B890C74FE650A700474FF650B70BA
:10F970000302FA43E9702B1207D78B09EA45097095
:10F980001E7AFF7BFF1207D78A088B09AE08AF09E2
:10F99000EE4F600B8E828F83E50AF0A3E50BF00239
:10F9A000FA437401650C701D1207D78A088B09AEE3
:10F9B00008AF09EE4F700302FA438E828F8374FF03
:10F9C000F0A3F080217402650C70787901120D416A
:10F9D000E97070AA0AAB0B1207D78A088B09AE0828
:10F9E000AF09EE4F605D12FA46850882F583E0F8B4
:10F9F00074FF68604174FE68602CE4F50EF50F78C2
:10FA00000E1222A88E828F83A3A3E0FD7C14AA0A83
:10FA1000AB0B8E828F83A3A3A3A3A3A3E0F9120849
:10FA2000CD7402122037EEFAEFFB1207DD85088253
:10FA300085098374FFF08E828F83A3A3A3A3A3A35E
:10FA4000A3E4F002E937EE2405F508E43FF50922C6
:10FA5000C082C083121C0B02FC0E74F7122091743A
:10FA60000912206DE0F8A3E0F9801C8C828D83E000
:10FA70008A828B83F08C828D83A3AC82AD838A8251
:10FA80008B83A3AA82AB83E8FEE9FFEE24FF18EF85
:10FA900034FFF9EE4F70D402FC2574F712209174F4
:10FAA0000912206DE0FEA3E0FFEC2EF8ED3FF9E82F
:10FAB00024FF18E934FFF9801788828983E08A825D
:10FAC0008B83F0E824FF18E934FFF9A3AA82AB8303
:10FAD000EEFCEFFDEC24FF1EED34FFFFEC4D70D982
:10FAE00002FC2574F21220918A088B098C0A8D0B76
:10FAF000AA0AAB0B121A9D8A0C8B0DAE0CAF0DEE41
:10FB00004F6011780A1222A8AC08AD091219C57409
:10FB100002122037EEFAEFFB7F0602216374F51222
:10FB20002091ECF8EDF9740B12206D12FD6DAC080C
:10FB3000AD09EC24FFF508ED34FFF509EC4D602C20
:10FB4000EAFCEBFD8C828D83A3AA82AB83E8FEE9FD
:10FB5000FF8E828F83A3A882A9838C828D83E0FC91
:10FB60008E828F83E06C60C67900800279017F030A
:10FB700002216374F6122091E9FE8C088D09780841
:10FB80001222A8EEFC7D00121C057402122037021E
:10FB9000FD68C082C0831219B3807374F61220917D
:10FBA000EAFEEBFFEE4F603DEE2405FAE43FFB1268
:10FBB0001A9D8A088B09A808A909E8496027888244
:10FBC0008983E4F0A3F088828983A3A3EEF0A3EFF6
:10FBD000F088828983A3A3A3A374FFF0E82405FA25
:10FBE000E439FB80047A007B0002FD68C082C08398
:10FBF000EA4B70047905801612FC96600479048043
:10FC00000DEA24FBFAEB34FFFB121AA37900D08330
:10FC1000D08202011F74F71220917C00121A018019
:10FC200004A2E092AF7F0102216374F71220917C5D
:10FC30000180E974F7122091E9FEECFFEA4B60269F
:10FC40009091A8E0F8EEC39840071219EF7903806D
:10FC500043EA24FBF582EB34FF12FE12700512FC1E
:10FC60009660071219EF7905802AEEF074016F7023
:10FC70000DEAFCEBFD7AED7B0D121A13800BEAFC0A
:10FC8000EBFD7AED7B0D121A0D7A007B80EEF912F6
:10FC90001A1F7900808FEA24FFF582EB34FFF58389
:10FCA000E0F42274F2122091890A750C00750D009F
:10FCB0007E007F00A2AFE433F50BC2AF900DED8064
:10FCC00015EE4F700685080C85090DE50824FBF537
:10FCD00082E50912FE0D12FD6DE50845096023E578
:10FCE0000824FFF582E50912FE0DE0650A70D2EEE8
:10FCF0004F7006AE08AF0980D27A007B80121A1FBF
:10FD0000800B7A007B80121A25EE4F6015780C125A
:10FD100022A8EEFCEFFD7AED7B0D121A1974021287
:10FD20002037E50BA2E092AF02FB14E0FAA3E0FB60
:10FD30002274F7122091A2AFE433FEC2AF12FE0785
:10FD4000E4F0A3F0800CE824FBF8E934FFF9E8FACA
:10FD5000E9FB8A828B8312FE1470EB8A828B83EC20
:10FD6000F0A3EDF0EE02FC217F02022163E0F50832
:10FD7000A3E0F5092274F7122091A8A8C2AF8A82E5
:10FD80008B83E0FEA3E0FF12FE07EEF0A3EFF08A04
:10FD9000828B83ECF0A3ED12FF6502FC2374F51255
:10FDA0002091A2AFE433F50AC2AFEC24FBF8ED34A6
:10FDB000FFF9E8FEE9FF8E828F83E0F8A3E0F98A7D
:10FDC000828B8312FD6DEC65087003ED650970068A
:10FDD0008A828B838012740B12206DE0FAA3E0CA32
:10FDE00024FBF582EA12FE0DE8F0A3E9F08E828F83
:10FDF00083E4F0A3F0EC24FF12FE0A74FFF0E50A9E
:10FE0000A2E092AF02FB6EEC24FBF582ED34FFF52D
:10FE10008322F583E0F8A3E0F9E8492274F7122081
:10FE200091E9FE9091A8E0F8EEC398502DACA8C2DD
:10FE3000AFEE29F8E433F9900E37E028FDA3E0395E
:10FE40008D82F583E04AF0A3E04BF0ECA2E7E433C7
:10FE5000F8ECA2E792AF79008002790302FC2574E6
:10FE6000F7122091E9FF9091A8E0F8EFC39850278E
:10FE7000AEA8C2AFEAF4FCEBF4FDEF2912FF70F577
:10FE800083E05CF0A3E05DF0EEA2E7E433F8EEA2DD
:10FE9000E792AF79008002790302FC25C082C0831B
:10FEA000121A91900DEDE4F0A3F0121B0F121AA993
:10FEB000121A8B121A97790002FC0EC082C08312AC
:10FEC0001A3780FB74F4122091750800121A8512FB
:10FED0001869A808E82812FF7012FE12700D0508B4
:10FEE0009091A8E0F8E508C39840E79091A8E0F861
:10FEF000E508C398506AACA8C2AFAE08EE2EFEE487
:10FF000033FF900E37E02EF8A3E03FF98882898313
:10FF100012FD2B88828983E4F0A3F0ECA2E7E4339E
:10FF2000F509ECA2E792AFE508901AFAF0F9744DE2
:10FF30002EF58274903FF58312FF8012208F901A65
:10FF4000FA74FFF0A8A8C2AF900E37E02EF9A3E034
:10FF50003F8982F583E04AF0A3E04B12FF6592AF40
:10FF60007F04022163F0E8A2E7E433F9E8A2E72284
:10FF7000F8E433F9900E37E028FAA3E0398A8222B8
:10FF8000E0F8A3E0F58388822274F01220917410C7
:10FF900012206D780C121ED98A828B83E50C12FF19
:10FFA000C9850C08850E0A850F0B74107808121D80
:10FFB000E1E508F0A37418780C121DE1E50CF0A33C
:10FFC000AA82AB837F08022163F0A3850D09E509AE
:10FFD000F0A32274F7122091E9FEEA4B60187D002D
:10FFE00080010DEDC39C5012EDF8EA28F582E43B48
:0FFFF000F583E06E60EC79008002790102FC2558
:020000040001F9
:10000000C082C0837A001290FCE4128D8DA3A3A35A
:10001000A374FFF00AEAC3940540EB9007C274FF93
:10002000F09007C1E4F09007C0F09007C3F0A3027E
:10003000914874E81220919007C3E0F50AA3E0F517
:100040000BE50A450B7006120FB7028BCF850A82AB
:10005000850B83E0F914601814601524FE601124E8
:10006000C4700302871B24C0700302871B028BCF5E
:100070001212098A088B09EA240EF510E43509F5F5
:1000800011EA2402FEE43509FF9003AEE07003029A
:1000900083A71210B9128C2DAC0CFDAA08AB091263
:1000A0001203E9F514740265147003028374128B51
:1000B000E4850882850983E01460101470030281CE
:1000C0004F24FE70030282A8028BCFE508650A70F8
:1000D00004E509650B602C120FE1850A82850B830C
:1000E000E06402701E90074EE06401701690074DA8
:1000F000E0701079001213A112135F12139B7901A3
:100100001213A7E51470241212D58A0C8B0D8C0ED5
:100110008D0F909132780C121E2C909172780C12E7
:100120001E8D8E828F83780C121EE88512828513B5
:1001300083780C121ED9909126780C121E2C909167
:1001400072780C121E8D8510828511830287FAE564
:1001500008650A7004E509650B6021121005900717
:100160004EE06401701690074DE070107901121393
:10017000A112135F12139B79001213A7E50A24152D
:10018000F50A5002050BE5146013850A82850B837E
:10019000E0600A128E9D7003A3E069701E1212D5F2
:1001A0008A0C8B0D8C0E8D0F909132780C121E2CB8
:1001B000909172780C121E8D128C19850A82850B13
:1001C00083E064017054851282851383780C121EBB
:1001D000D9909126780C121E2C780C1222A0128C29
:1001E00010121E2CAA0CAB0DAC0EAD0F122BD1743D
:1001F00004122037E97005128C01800E8512828569
:100200001383780C121ED9909126780C121E2C9014
:100210009172780C121E8D0286678510828511837B
:100220001222BB8E828F83121EF7122BD1740412FE
:100230002037E9640160030288AB8512828513834D
:10024000780C121ED9909126780C121E2C780C1264
:1002500022A0128C10121E2CAA0CAB0DAC0EAD0FEE
:10026000122BD17404122037E97005128C01800E14
:10027000851282851383780C121ED9909126780CF2
:10028000121E2C909172780C121E8D851082851191
:1002900083780C121EE8900751E0642770047425DF
:1002A0008002E004F00288ABE508650A7004E50905
:1002B000650B6031900765E0F912100B850A8285A5
:1002C0000B83E06402701E90074EE064017016908C
:1002D000074DE0701079001213A112135F12139BE7
:1002E00079011213A7E514600D90075F128EA070BC
:1002F00003A3E069701E1212D58A0C8B0D8C0E8D33
:100300000F909132780C121E2C909172780C121E64
:100310008D128C19851282851383780C121ED99048
:100320009126780C121E2C780C1222A090076112D4
:100330008C13121E2CAA0CAB0DAC0EAD0F122BD1D0
:100340007404122037E97008900761128C04800E43
:10035000851282851383780C121ED9909126780C11
:10036000121E2C909172780C121E8D8510828511B0
:1003700083028947850A82850B83E06402701390AB
:10038000074EE06401700B90074DE0700579001294
:1003900013A1128BD41212638E828F83E0FA900322
:1003A000AFF079020289958A828B83E0F8EA650AC8
:1003B0007003EB650B6003028520E824FE600A24CD
:1003C000FE70030284AB028955EA2415F50AE43570
:1003D00009F50B850A82F583E06037128E9D700364
:1003E000A3E069602D1212D58A0C8B0D8C0E8D0F37
:1003F000909182780C121E2C780C1222A08E828F83
:1004000083121EF7122BD17404122037E960030205
:1004100089551212D58A0C8B0D8C0E8D0F9091324E
:10042000780C121E2C909172780C121E8D128C1961
:100430008E828F83780C121ED9850A82850B83E009
:100440006401702490074BE0F514A3E0F515E4F582
:1004500016F517780C7914121E19851082851183F0
:10046000780C121EE80289558510828511831222AC
:10047000BBAA0CAB0DAC0EAD0F122BD17404122025
:1004800037E964016003028955128C10121E2C8515
:100490001082851183780C121EE8900751E06427C2
:1004A000700474258002E00402895490075F128E64
:1004B000A07003A3E069602A1212D58A0C8B0D8C00
:1004C0000E8D0F909182780C121E2C780C1222A0A7
:1004D0008E828F83121EF7122BD17404122037E9FB
:1004E000703B1212D58A0C8B0D8C0E8D0F909132B1
:1004F000780C121E2C909172780C121E8D8E828FA9
:1005000083780C121EE8900761128C13121E2C8542
:100510001082851183780C121EE812101102895581
:10052000E81460101470030285E824FE700302864C
:1005300075028BCF120FE1850A82850B83E064027E
:10054000701E90074EE06401701690074DE0701029
:1005500079001213A112135F12139B79011213A7D2
:100560001212D58A0C8B0D8C0E8D0F909182780C07
:10057000121E2C780C1222A08E828F83121EF7126C
:100580002BD17404122037E9705B1212D58A0C8BC0
:100590000D8C0E8D0F909132780C121E2C90917252
:1005A000780C121E8D8E828F83780C121EE89003B9
:1005B00081E0640270268E828F83780C121ED9909F
:1005C000910E780C121E2C909172780C121E8D8553
:1005D0001082851183780C121EE8800985108285AF
:1005E00011831290F20287FF12100590074EE0640B
:1005F00001701690074DE0701079011213A11213CB
:100600005F12139B79001213A7128E9D7003A3E053
:1006100069602A1212D58A0C8B0D8C0E8D0F909169
:1006200082780C121E2C780C1222A08E828F8312DC
:100630001EF7122BD17404122037E970351212D52F
:100640008A0C8B0D8C0E8D0F909132780C121E2C13
:10065000909172780C121E8D8E828F83780C121EF0
:10066000E8128C10121E2C851082851183780C12D2
:100670001EE80288AB900765E0F912100B850A822C
:10068000850B83E06402701E90074EE064017016D3
:1006900090074DE0701079001213A112135F12132E
:1006A0009B79011213A790075F128EA07003A3E03D
:1006B00069602A1212D58A0C8B0D8C0E8D0F9091C9
:1006C00082780C121E2C780C1222A08E828F83123C
:1006D0001EF7122BD17404122037E9703B1212D589
:1006E0008A0C8B0D8C0E8D0F909132780C121E2C73
:1006F000909172780C121E8D8E828F83780C121E50
:10070000E8900761128C13121E2C851082851183CC
:10071000780C121EE812101102894F9003AEE0709F
:10072000030289B01210B9128C2D9003AFE0F87556
:10073000F00CA4C8AAF02AF974B128F50A74033998
:10074000F50BE50A2404F510E4350BF5119007C10B
:10075000E05407700302895CA3E0F91212098A08C9
:100760008B09AC0CAD0D121203E9F5167402651677
:10077000700302895C851082851183E0F912125D95
:10078000128BE4E508240EF514E43509F515E508A7
:100790002402FEE43509FF850882850983E01460A0
:1007A0000D14606324FE70030288B302895C120F8B
:1007B000E1E51670241212D58A0C8B0D8C0E8D0F6C
:1007C000909132780C121E2C909172780C121E8D22
:1007D0008E828F83780C121EE885128285138378AF
:1007E0000C121ED9909126780C121E2C90917278C2
:1007F0000C121E8D851482851583780C121EE890CC
:1008000007C2740102895412100590074EE064017A
:10081000701190074DE0700B12135F12139B79005B
:100820001213A7E516600A128E9D7003A3E069708B
:100830001E1212D58A0C8B0D8C0E8D0F9091327872
:100840000C121E2C909172780C121E8D128C198530
:100850001282851383780C121ED9909126780C127F
:100860001E2C780C1222A0128C10121E2CAA0CAB7B
:100870000DAC0EAD0F122BD17404122037E97005A8
:10088000128C01800E851282851383780C121ED97A
:10089000909126780C121E2C909172780C121E8D5D
:1008A000851482851583780C121EE89007C27402A5
:1008B000028954900765E0F912100BE516600D905F
:1008C000075F128EA07003A3E069701E1212D58A12
:1008D0000C8B0D8C0E8D0F909132780C121E2C907B
:1008E0009172780C121E8D128C19851282851383D9
:1008F000780C121ED9909126780C121E2C780C12AE
:1009000022A0900761128C13121E2CAA0CAB0DAC06
:100910000EAD0F122BD17404122037E97008900726
:1009200061128C04800E851282851383780C121E4E
:10093000D9909126780C121E2C909172780C121E70
:100940008D851482851583780C121EE81210119083
:1009500007C27404F0AA08AB09028BCCE50E650A45
:100960007004E50F650B6026850A82850B83A3A3BF
:10097000A3E0600B851082851183E0F912125D12ED
:100980008BD41212638E828F83E09003AFF07902D2
:100990009003AFE0FA75F00CA4CAA8F028FB74B17C
:1009A0002AFA74033BFB1227AFAA0CAB0D028BCCC7
:1009B0009007C1E054077003028BCFA3E0F9121235
:1009C000098A088B09AE08AF09EE240EF508E43F4A
:1009D000F509EE2402F8E43FF9880A890B8E828F2C
:1009E00083E0146010147003028A8B24FE700302EB
:1009F0008B34028BCF120FE11212D58A0C8B0D8C27
:100A00000E8D0F909182780C121E2C780C1222A061
:100A1000850A82850B83121EF7122BD174041220D3
:100A200037E9705F1212D58A0C8B0D8C0E8D0F90EA
:100A30009132780C121E2C909172780C121E8D85BA
:100A40000A82850B83780C121EE8900381E0640211
:100A50007028850A82850B83780C121ED990910E1E
:100A6000780C121E2C909172780C121E8D850882C3
:100A7000850983780C121EE8800985088285098320
:100A80001290F29007C27401028BC71210059007F2
:100A90004EE06401701690074DE07010790112135A
:100AA000A112135F12139B79001213A7128E9D706F
:100AB00003A3E069602C1212D58A0C8B0D8C0E8D6D
:100AC0000F909182780C121E2C780C1222A0850AAD
:100AD00082850B83121EF7122BD17404122037E982
:100AE000704A1212D58A0C8B0D8C0E8D0F9091329C
:100AF000780C121E2C909172780C121E8D850A8231
:100B0000850B83780C121EE8850A82850B83C082D0
:100B1000C08390074B128BF0D083D082780C121ECA
:100B20002C850882850983780C121EE89007C27410
:100B300002028BC7900765E0F912100B90075F1255
:100B40008EA07003A3E069602C1212D58A0C8B0D65
:100B50008C0E8D0F909182780C121E2C780C122224
:100B6000A0850A82850B83121EF7122BD174041202
:100B70002037E9704A1212D58A0C8B0D8C0E8D0F1E
:100B8000909132780C121E2C909172780C121E8D5E
:100B9000850A82850B83780C121EE8850A82850BF4
:100BA00083C082C083900761128BF0D083D082789B
:100BB0000C121E2C850882850983780C121EE812FF
:100BC00010119007C27404F0EEFAEFFB1211FD7FD2
:100BD00010022163E50E2404FEE4350FFF8E828FA0
:100BE00083E0F922E50C2402F512E4350DF5132219
:100BF000128BF422E0F50CA3E0F50DE4F50EF50FF1
:100C00002290074B128C0822128BF48F838E822243
:100C100090074B128C08780C228E828F83E50CF0A3
:100C2000A3E50DF0A3E50EF0A3E50FF022E9F875BA
:100C3000F00CA4C8AAF02AF974B128F50E7403398F
:100C4000F50F850E82F583E0F50CA3E0F50D227417
:100C5000F0122091EAFEEBFF8E828F83A3A3A3A361
:100C6000A3A3E0FAA3E0FB1212B7EE2402F8E43FDC
:100C7000F9880889098882F583121EF71212AB855C
:100C80000882850983121EF712129F1290DD121E30
:100C9000F71212B18E828F83E064407018EE241236
:100CA000F8E43FF988828983E0906064128D8DE0DA
:100CB0009060658006906064E4F0A3F09007C3EE56
:100CC000F0A3EF1290E71295B912208F906054E4D0
:100CD000128D94A3128D94906182E0C2E6F075911A
:100CE000BFEE2415F8E43FF9880A890B8882F58362
:100CF000E0640170031212EDE5E170FC1290D3E0A4
:100D0000F874FF68600288E1850A82850B837401AC
:100D1000F0900387E06401706F1212D58A0C8B0D7E
:100D20008C0E8D0F780C1222A08508828509831203
:100D30001EF7122C2D74041220378A088B098C0A96
:100D40008D0B90917A780C121ED97808790C121CB0
:100D5000F274037808121DE1E50824F4F508E509AA
:100D60003401F50990076BE06003121A85E4F50A77
:100D7000F50B78081222A07A207B00900380E0F91E
:100D8000121B2774041220377F08022163F0888227
:100D90008983A322F0A3F0A3F0A3F0A3F0A3F02291
:100DA00074EC122091EAFEEBFF8C0A8D0BEE4F7073
:100DB00003028E961212D58A0C8B0D8C0E8D0F901D
:100DC0009166780C121E2C909172780C121E8DEE8A
:100DD0002402F508E43FF5098E828F83E0F874025F
:100DE00068700C128E9D7003A3E069701F801274EE
:100DF0000468701890075F128EA07003A3E06970FA
:100E00000B850882850983780C121EE8E50A240206
:100E1000FEE4350BFF90916EC082C083780C1222E5
:100E2000A08E828F83121EF7122C2D74041220378D
:100E30008A108B118C128D13D083D0827810121CE3
:100E4000A350538E828F837810121ED9909186788A
:100E500010121E2C78101222A08508828509831298
:100E60001EF7122BD17404122037E97029909136A5
:100E7000780C121E2C780C1222A08508828509831A
:100E8000121EF7122BD17404122037E97004790076
:100E900080067901800279027F0C02216390074964
:100EA000E0F8A3E0F9A3E0682274EE12209189082B
:100EB00074FF650870399007C1E054077003029011
:100EC0001F7904121221E9640170047904801A79EF
:100ED00001121221E9640170047901800C79021277
:100EE0001221E964017008790212122D029023A9DF
:100EF0000812122D8A108B11A908121221E964011F
:100F000070057509018003750900E5102402F50AD2
:100F1000E43511F50BE50814600D14607A24FE70B9
:100F200003028FB702901F7902121221E964017047
:100F300049790212122D8A0C8B0DAE0CAF0DE5090A
:100F4000A2E0502F8E828F83A3A3780C121ED9901B
:100F5000913A780C121E2C780C1222A0850A8285F8
:100F60000B83121EF7122BD17404122037E9700381
:100F7000029019EEFAEFFB0290237904121221E994
:100F80006401601DE509A2E05006AA10AB118004BF
:100F90007A007B000290237904121221E964017027
:100FA000047904802C7901121221E964016012E5B0
:100FB00009A2E0506A80627901121221E96401708D
:100FC000047901800C7902121221E96401704479DC
:100FD0000212122D8A0C8B0DAE0CAF0DE509A2E0AA
:100FE00050918E828F83A3A3780C121ED990913AD0
:100FF000780C121E2C780C1222A0850A82850B8395
:10100000121EF7122BD17404122037E96003028FED
:10101000738006E509A2E05006AA10AB1180047A9D
:10102000007B007F0A02216374F412209189087A00
:10103000001290FCE060030290C0E82405F50AE489
:1010400039F50BAE0AFF8E828F83A37401F08E8276
:101050008F83E508F01212D5EAF8EBF9ECFAEDFB14
:101060008E828F83A3A3121F1B8E828F83A3A3A3C1
:10107000A3A3A3E4F0A3F01290DD1290F21290D398
:101080007401F0EE2415F582E43FF58374011290AB
:10109000E7E4F0A3F09007C1E04508F09007C0E056
:1010A00004F06401600C7480650860067440650893
:1010B00070089007C3EEF0A3EFF0AA0AAB0B800E06
:1010C0000AEAC3940550030290317A007B007F0442
:1010D000022163EE2414F582E43FF58322EE240E10
:1010E000F582E43FF58322F0EE241AF582E43FF521
:1010F000832274FFF0A3F0A3F0A3F022129192A335
:1011000022C082C0838A828B83E0F8A3E0F98A82BE
:101110008B83E4F0A3128D8DF088828983E0F4F84C
:101120009007C1E058F09007C0E014F070149007E9
:10113000C3E4F0A3F0900381F0FA900380E0F91289
:101140001AB58005ED9061C6F0D083D08202011FF0
:10115000C082C0839007C0E0600A9007C3E0FAA392
:10116000E0FB80047A007B0080DFC082C083E9FC62
:101170007A00129192E06C700E88828983A3A3A3F7
:10118000A3A3A3E0F980090AEAC3940540E4790027
:1011900080B7EA75F01CA4F8A9F074C028F87407A9
:1011A00039F988828983A3A3A3A3A322C082C08321
:1011B0009007C1E0F9809274F71220917800E875E9
:1011C000F01CA4FAABF074C02AFA74073BFBEAFCEB
:1011D000EBFDEC2405FAE43DFB8A828B83E0697029
:1011E0000F8C828D83A3A3A3A3A3A3E06401600B50
:1011F00008E8C3940540C77A007B007F01022163A1
:10120000C082C0839007C080AA74F2122091EAFEC7
:10121000EBFFEE2400F8EF3401F989099061D0E08A
:1012200088828983F09061D7E0FAEE240108EF34D8
:1012300001F9880A890B9061D51293729061D6E00A
:10124000C39A547FFAEE240212936270149061C51F
:10125000E0A2E4500CE0A2E7500788828983748002
:10126000F01213D1850A82850B83E07019850C82F8
:10127000850D83E070109061C5E0A2E45008E0A203
:10128000E7500312937D75E1957A0080149061D345
:10129000E0C0E0EAF8EE28F582E43FF583D0E0F024
:1012A0000A8E82850983E0F8EAC39840E075E191EF
:1012B0007F0602216374F2122091EAFEEBFFEE2416
:1012C00003F8EF3401F9880889099061C8E0888241
:1012D0008983F09061CFE0FAEE240408EF3401F93D
:1012E000880A890B9061CD1293729061CEE0C39A07
:1012F000547FFAEE240512936270149061C5E0A247
:10130000E0500CE0A2E35007888289837480F012D9
:1013100013D7850A82850B83E07019850C82850DB1
:1013200083E070109061C5E0A2E05008E0A2E350B5
:101330000312937D1213DD7A0080149061CBE0C01C
:10134000E0EAF8EE28F8E43F12941CD0E0F00A85B9
:101350000882850983E0F8EAC39840DF75E18102DD
:1013600092B008EF3401F9880C890DEA88828983EC
:10137000F022E0C39A547F88828983F022850C8210
:10138000850D837480F0850A82850B83F022C082EC
:10139000C0839061C6E0FDE0540FF075E1917C00E0
:1013A0008010ECF8EA28F582E43BF583E09061D206
:1013B000F00CEA240012942C40E8EA24021294274C
:1013C00060049061D6F0EA240112942760049061D1
:1013D000D5F0029144C082C0839061C6E0FDE05424
:1013E000F0F075E1817C008010ECF8EA28F8E43B2D
:1013F00012941CE09061CAF00CEA240312942C4071
:10140000E8EA240512942760049061CEF0EA2404EF
:1014100012942760049061CDF0029144F9E8248091
:10142000F582E439F58322129435E022129435E0F6
:10143000F8ECC39822F582EB3401F58322C082C018
:1014400083906195E0C0E0EA2486129435D0E0F004
:10145000906196E0C0E0EA2487129435D0E0F090E5
:101460006197E0C0E0EA2488129435D0E0F0906102
:1014700098E0C0E0EA2489129435D0E0029148C097
:1014800082C083EA2486129427906195F0EA24872B
:10149000129427906196F0EA24881294279061971D
:1014A000F0EA248912942790619802914874F4120A
:1014B000209112960112123FEEFAEFFB12123975CB
:1014C0000A80750B00780A1222A87C007D60EE2449
:1014D00006FAEF3401FB1211557402122037EEFAAE
:1014E000EFFB1212510290CE74F21220911296016B
:1014F00012124BEEFAEFFB121245750C09750D0036
:10150000780C1222A8EE2406FCEF3401FD7A007B51
:10151000601211557402122037750C18780C1222C3
:10152000A8EE2410FCEF3401FD7A0A7B60121155FD
:101530007402122037750C2C780C1222A8EE245A53
:10154000FCEF3401FD7A547B6012115574021220B5
:1015500037EEFAEFFB121257E50875F00CA4C50838
:10156000A8F028F50974B12508F58274033509F54A
:10157000831295B9E06480901ABD70141295E4123C
:1015800095E474B5F0A37411F09003817408801B86
:101590001295C21295C27497F0A374111295C87473
:1015A0006FF0A37412F09003817407F0901ACB12BD
:1015B00095D3A31295D30292B0E0F8A3E0F5838807
:1015C00082227469F0A37412F0A37469F0A37412F8
:1015D000F0A3227497F0A374111295F67497F0A3F8
:1015E0007411F02274AFF0A374111295F674AFF079
:1015F000A37411F0A322F0A37497F0A37411F0A3C5
:10160000228908A808E875F08AA4C8AAF02AF97403
:101610005128FE740839FFEEFAEFFB2274EB12201A
:1016200091907803E06442705690076EE014F07079
:101630004EC2AF129636007831D0E0F618D0E0F600
:10164000E59F5407F870057509FF800375097FC48D
:10165000C0E07830E6F50808E65509F509740B781E
:1016600008121FFFD0E02508F8906270E0A2E74062
:10167000F8E8C333906272F0906270E0D2E0F090CC
:1016800003AFE0F874FF687003029934E8129F47D3
:101690002403F582EF3401F583129F98EA4B600F23
:1016A000EE2402F582EF3401F583E0F9121A1FEE01
:1016B0002405F50AE43FF50B8E828F8312A407857B
:1016C0000A82850B83129F60906054E0900388F03B
:1016D000906055E0900389F0906056E090038AF0A6
:1016E000906057E090038BF0906058E090038CF08E
:1016F000906059E090038DF090605AE090038EF076
:1017000090605BE090038FF090605CE0FC90039051
:10171000F090605DE0FD900391F090605EE0F50870
:10172000900392F090605FE0F509900393F09003CE
:101730008EE0F5142CFAE43400FBA808EA28FAE459
:101740003BFBEA2DFAE43BFBA809EA28F50EE43B53
:10175000F50FEE24F8F582E43F12995AEE24FAF5DB
:1017600082E43F12994FEE24FC12998BEE2400F58F
:1017700082EF3401129FA849603C129966F582E914
:10178000350D12995A129966F50CE9350DF50DE5EE
:101790000C244AF582E4350D12994F906000E0FA6E
:1017A00025E0FAE433FBE82AFAE93BFBEA2494F566
:1017B00082E43B12998FEE240BF50CE43FF50D12F9
:1017C0009F2DF510E43FF511EE240FF512E43FF5DF
:1017D00013EE241DFAE43FFBE514700BED7008E5F1
:1017E000087004E5096070850A82850B83129FE604
:1017F000129F5A1299397003129978900389E06008
:10180000218510828511837401F012A3DE7013EE1E
:10181000247312A3E1700BEE247F12A3E170031274
:1018200099788E828F83129FAA2406FCE439FD905A
:101830006062E070030298D1E82402FAE439FB12F6
:1018400012CF8E828F83E0F8A3E0C82412F582E4E1
:1018500038F583E40298DD8A828B83E4F0A3F0EC10
:1018600060181299397035850E82850F8312A40E87
:101870008A828B83E8F0A3E98021EE24FE12998B03
:10188000906000E0FC25E0FCE433FDE82CF8E93D45
:10189000F9E824DEF582E439129994F0850A82850C
:1018A0000B83129FCDE0687003A3E0696003029789
:1018B000FB851282851383E060087405687001E976
:1018C000600479088002793EEEFAEFFB1210D180B5
:1018D000638C828D83E4F0A3F08A828B83F0A3F083
:1018E000906060E0C0E0EE2468F582E43FF583D0CC
:1018F000E0F09061C8E06006122608E970F48E827C
:101900008F83A3A3A3E0602C9061C8E07006906071
:10191000607480F0EEFAEFFB121281E9640160144A
:101920007902EEFAEFFB1227AF121275E96401603B
:10193000031211F77F0D0221638512828513831232
:101940009946E0640122E4F085108285118322F536
:1019500083E02CF0A3E03400F022F583E0250EF0C4
:10196000A3E0350FF022906000E0F50C25E0F50CC7
:10197000E433F50DE8250C22850E82850F8312A431
:10198000128A828B83E8F0A3E9F022F582E43F1209
:101990009994F022F583E02401F0A3E0340022536F
:1019A000BFEF02011F74E81220919003AFE0F8121C
:1019B0009F47241DF510E43FF511129F2DF50CE40F
:1019C0003FF50D9061D0E0700DEE2463F582E43FA9
:1019D000129FA849600B851082851183E4F0A380D3
:1019E0002D12A3DE7029EE247312A3E17021EE24E0
:1019F0007F12A3E17019850C82850D83E06401706C
:101A00000E850E82850F83129FC3E8F0A3E9F0EEE6
:101A10002407F508E43FF5098E828F83A3A3A3A3CF
:101A2000A3129FC3E028F8A3E039F9E8240150018C
:101A30000985088285098312A7AF121287E964011C
:101A400060089006E0E06401701A851082851183B9
:101A5000E4F0A3F08E828F83129F7485088285093B
:101A600083129F60EE2474F50AE43FF50B129F3A4F
:101A70007074850A82850B831222C38508828509CA
:101A800083129F8C8E828F83A3A3A3A3A3129F98FC
:101A90001225C17402122037E9604B129F83EC2497
:101AA00001F8E43DF9850882850983E0687003A3A5
:101AB000E0696032129F92E86A7002E96B6027EA7F
:101AC00024FF1AEB34FFFB850882850983EAF0A323
:101AD000EBF0122600EA24FFF8EB34FFF9851082C0
:101AE000851183129F60129F3A6003029C57850AFA
:101AF00082850B83129F9E129F74E86A7002E96BC5
:101B00006003029C57850882850983EAF0A3EBF005
:101B1000EE2476FCE43FFDEEFAEFFB1210E9EE2432
:101B20007BF516E43FF517851682F583129FD7855E
:101B30000C82850D83129946F0A3F0EE240F12A3B8
:101B4000D9850882850983129FE6EE240BF582E48D
:101B50003FF583129F60129F83129F921226008A84
:101B6000088B09129F23129F98E4F50AF50B8A0C43
:101B70008B0DF50EF50F7808790C121CF2EE247718
:101B8000129FB57808790C121E19129F1912A40E13
:101B9000EE2479F512E43FF513851282F583129F46
:101BA0008CEE2430F50EE43FF50FEE2432F50CE414
:101BB0003FF50DEA6C7002EB6D7027850C82850D88
:101BC00083E0687003A3E069701885168285178327
:101BD000129F98850E82850F83E06A7003A3E06BE5
:101BE00060348814891574047814121FFF78141255
:101BF00022A88516828517831222C3EDC313FDEC3C
:101C000013FC8E828F83A3A3A3A3E0FA7B00120BA5
:101C1000A97404122037EE247612A3E1C0E0EE246A
:101C20002BF582E43FF583D0E0F0851282851383A3
:101C300012A40E129F23129F6085168285178312AD
:101C40009FD7129F19129FCDE812A7AF1210EFEE87
:101C5000247312A3B08006129F2312A41885108249
:101C6000851183E0F514A3E0F515EE2412F512E4D6
